{
  "_format": "hh-sol-artifact-1",
  "contractName": "LibreNFT721",
  "sourceName": "contracts/LibreNFT721.sol",
  "abi": [
    {
      "inputs": [
        {
          "internalType": "string",
          "name": "_name",
          "type": "string"
        },
        {
          "internalType": "string",
          "name": "_symbol",
          "type": "string"
        },
        {
          "internalType": "string",
          "name": "_uri",
          "type": "string"
        },
        {
          "internalType": "string",
          "name": "_tokenUri",
          "type": "string"
        },
        {
          "internalType": "string",
          "name": "_unlockable",
          "type": "string"
        },
        {
          "internalType": "bool",
          "name": "_transferable",
          "type": "bool"
        },
        {
          "internalType": "uint256",
          "name": "_rentableFrom",
          "type": "uint256"
        },
        {
          "internalType": "uint256",
          "name": "_rentableTo",
          "type": "uint256"
        },
        {
          "internalType": "uint256",
          "name": "_fractions",
          "type": "uint256"
        },
        {
          "internalType": "uint256",
          "name": "_timeframeFrom",
          "type": "uint256"
        },
        {
          "internalType": "uint256",
          "name": "_timeframeTo",
          "type": "uint256"
        }
      ],
      "stateMutability": "nonpayable",
      "type": "constructor"
    },
    {
      "anonymous": false,
      "inputs": [
        {
          "indexed": true,
          "internalType": "address",
          "name": "owner",
          "type": "address"
        },
        {
          "indexed": true,
          "internalType": "address",
          "name": "approved",
          "type": "address"
        },
        {
          "indexed": true,
          "internalType": "uint256",
          "name": "tokenId",
          "type": "uint256"
        }
      ],
      "name": "Approval",
      "type": "event"
    },
    {
      "anonymous": false,
      "inputs": [
        {
          "indexed": true,
          "internalType": "address",
          "name": "owner",
          "type": "address"
        },
        {
          "indexed": true,
          "internalType": "address",
          "name": "operator",
          "type": "address"
        },
        {
          "indexed": false,
          "internalType": "bool",
          "name": "approved",
          "type": "bool"
        }
      ],
      "name": "ApprovalForAll",
      "type": "event"
    },
    {
      "anonymous": false,
      "inputs": [
        {
          "indexed": true,
          "internalType": "address",
          "name": "previousOwner",
          "type": "address"
        },
        {
          "indexed": true,
          "internalType": "address",
          "name": "newOwner",
          "type": "address"
        }
      ],
      "name": "OwnershipTransferred",
      "type": "event"
    },
    {
      "anonymous": false,
      "inputs": [
        {
          "indexed": true,
          "internalType": "address",
          "name": "from",
          "type": "address"
        },
        {
          "indexed": true,
          "internalType": "address",
          "name": "to",
          "type": "address"
        },
        {
          "indexed": true,
          "internalType": "uint256",
          "name": "tokenId",
          "type": "uint256"
        }
      ],
      "name": "Transfer",
      "type": "event"
    },
    {
      "anonymous": false,
      "inputs": [
        {
          "indexed": true,
          "internalType": "uint256",
          "name": "tokenId",
          "type": "uint256"
        },
        {
          "indexed": true,
          "internalType": "address",
          "name": "user",
          "type": "address"
        },
        {
          "indexed": false,
          "internalType": "uint64",
          "name": "expires",
          "type": "uint64"
        }
      ],
      "name": "UpdateUser",
      "type": "event"
    },
    {
      "inputs": [
        {
          "internalType": "string",
          "name": "_uri",
          "type": "string"
        },
        {
          "internalType": "string",
          "name": "_unlockable",
          "type": "string"
        },
        {
          "internalType": "uint256",
          "name": "_tokenPrice",
          "type": "uint256"
        },
        {
          "internalType": "bool",
          "name": "_transferable",
          "type": "bool"
        },
        {
          "internalType": "uint256",
          "name": "_rentableFrom",
          "type": "uint256"
        },
        {
          "internalType": "uint256",
          "name": "_rentableTo",
          "type": "uint256"
        },
        {
          "internalType": "uint256",
          "name": "_fractions",
          "type": "uint256"
        },
        {
          "internalType": "uint256",
          "name": "_timeframeFrom",
          "type": "uint256"
        },
        {
          "internalType": "uint256",
          "name": "_timeframeTo",
          "type": "uint256"
        }
      ],
      "name": "addInventory",
      "outputs": [
        {
          "internalType": "uint256",
          "name": "",
          "type": "uint256"
        }
      ],
      "stateMutability": "nonpayable",
      "type": "function"
    },
    {
      "inputs": [
        {
          "internalType": "address",
          "name": "to",
          "type": "address"
        },
        {
          "internalType": "uint256",
          "name": "tokenId",
          "type": "uint256"
        }
      ],
      "name": "approve",
      "outputs": [],
      "stateMutability": "nonpayable",
      "type": "function"
    },
    {
      "inputs": [],
      "name": "availableToWithdraw",
      "outputs": [
        {
          "internalType": "uint256",
          "name": "",
          "type": "uint256"
        }
      ],
      "stateMutability": "view",
      "type": "function"
    },
    {
      "inputs": [
        {
          "internalType": "address",
          "name": "owner",
          "type": "address"
        }
      ],
      "name": "balanceOf",
      "outputs": [
        {
          "internalType": "uint256",
          "name": "",
          "type": "uint256"
        }
      ],
      "stateMutability": "view",
      "type": "function"
    },
    {
      "inputs": [
        {
          "internalType": "address",
          "name": "_user",
          "type": "address"
        },
        {
          "internalType": "uint256",
          "name": "_tokenId",
          "type": "uint256"
        }
      ],
      "name": "fractionsOf",
      "outputs": [
        {
          "internalType": "uint256",
          "name": "",
          "type": "uint256"
        }
      ],
      "stateMutability": "view",
      "type": "function"
    },
    {
      "inputs": [
        {
          "internalType": "uint256",
          "name": "tokenId",
          "type": "uint256"
        }
      ],
      "name": "getApproved",
      "outputs": [
        {
          "internalType": "address",
          "name": "",
          "type": "address"
        }
      ],
      "stateMutability": "view",
      "type": "function"
    },
    {
      "inputs": [],
      "name": "getChainID",
      "outputs": [
        {
          "internalType": "uint256",
          "name": "",
          "type": "uint256"
        }
      ],
      "stateMutability": "view",
      "type": "function"
    },
    {
      "inputs": [],
      "name": "getCounter",
      "outputs": [
        {
          "internalType": "uint256",
          "name": "",
          "type": "uint256"
        }
      ],
      "stateMutability": "view",
      "type": "function"
    },
    {
      "inputs": [
        {
          "internalType": "address",
          "name": "owner",
          "type": "address"
        },
        {
          "internalType": "address",
          "name": "operator",
          "type": "address"
        }
      ],
      "name": "isApprovedForAll",
      "outputs": [
        {
          "internalType": "bool",
          "name": "",
          "type": "bool"
        }
      ],
      "stateMutability": "view",
      "type": "function"
    },
    {
      "inputs": [
        {
          "internalType": "uint256",
          "name": "_tokenId",
          "type": "uint256"
        }
      ],
      "name": "isValidateByTimeframe",
      "outputs": [
        {
          "internalType": "bool",
          "name": "",
          "type": "bool"
        }
      ],
      "stateMutability": "view",
      "type": "function"
    },
    {
      "inputs": [
        {
          "internalType": "uint256",
          "name": "_tokenId",
          "type": "uint256"
        }
      ],
      "name": "mint",
      "outputs": [],
      "stateMutability": "payable",
      "type": "function"
    },
    {
      "inputs": [],
      "name": "name",
      "outputs": [
        {
          "internalType": "string",
          "name": "",
          "type": "string"
        }
      ],
      "stateMutability": "view",
      "type": "function"
    },
    {
      "inputs": [],
      "name": "owner",
      "outputs": [
        {
          "internalType": "address",
          "name": "",
          "type": "address"
        }
      ],
      "stateMutability": "view",
      "type": "function"
    },
    {
      "inputs": [
        {
          "internalType": "uint256",
          "name": "tokenId",
          "type": "uint256"
        }
      ],
      "name": "ownerOf",
      "outputs": [
        {
          "internalType": "address",
          "name": "",
          "type": "address"
        }
      ],
      "stateMutability": "view",
      "type": "function"
    },
    {
      "inputs": [],
      "name": "renounceOwnership",
      "outputs": [],
      "stateMutability": "nonpayable",
      "type": "function"
    },
    {
      "inputs": [
        {
          "internalType": "address",
          "name": "_from",
          "type": "address"
        },
        {
          "internalType": "address",
          "name": "_to",
          "type": "address"
        },
        {
          "internalType": "uint256",
          "name": "_tokenId",
          "type": "uint256"
        }
      ],
      "name": "safeTransferFrom",
      "outputs": [],
      "stateMutability": "nonpayable",
      "type": "function"
    },
    {
      "inputs": [
        {
          "internalType": "address",
          "name": "_from",
          "type": "address"
        },
        {
          "internalType": "address",
          "name": "_to",
          "type": "address"
        },
        {
          "internalType": "uint256",
          "name": "_tokenId",
          "type": "uint256"
        },
        {
          "internalType": "bytes",
          "name": "data",
          "type": "bytes"
        }
      ],
      "name": "safeTransferFrom",
      "outputs": [],
      "stateMutability": "nonpayable",
      "type": "function"
    },
    {
      "inputs": [
        {
          "internalType": "address",
          "name": "operator",
          "type": "address"
        },
        {
          "internalType": "bool",
          "name": "approved",
          "type": "bool"
        }
      ],
      "name": "setApprovalForAll",
      "outputs": [],
      "stateMutability": "nonpayable",
      "type": "function"
    },
    {
      "inputs": [
        {
          "internalType": "uint256",
          "name": "_tokenId",
          "type": "uint256"
        },
        {
          "internalType": "address",
          "name": "_user",
          "type": "address"
        },
        {
          "internalType": "uint64",
          "name": "_expires",
          "type": "uint64"
        }
      ],
      "name": "setUser",
      "outputs": [],
      "stateMutability": "nonpayable",
      "type": "function"
    },
    {
      "inputs": [
        {
          "internalType": "bytes4",
          "name": "interfaceId",
          "type": "bytes4"
        }
      ],
      "name": "supportsInterface",
      "outputs": [
        {
          "internalType": "bool",
          "name": "",
          "type": "bool"
        }
      ],
      "stateMutability": "view",
      "type": "function"
    },
    {
      "inputs": [],
      "name": "symbol",
      "outputs": [
        {
          "internalType": "string",
          "name": "",
          "type": "string"
        }
      ],
      "stateMutability": "view",
      "type": "function"
    },
    {
      "inputs": [
        {
          "internalType": "uint256",
          "name": "tokenId",
          "type": "uint256"
        }
      ],
      "name": "tokenURI",
      "outputs": [
        {
          "internalType": "string",
          "name": "",
          "type": "string"
        }
      ],
      "stateMutability": "view",
      "type": "function"
    },
    {
      "inputs": [
        {
          "internalType": "uint256",
          "name": "_tokenId",
          "type": "uint256"
        }
      ],
      "name": "totalFractionsOf",
      "outputs": [
        {
          "internalType": "uint256",
          "name": "",
          "type": "uint256"
        }
      ],
      "stateMutability": "view",
      "type": "function"
    },
    {
      "inputs": [
        {
          "internalType": "address",
          "name": "_recipient",
          "type": "address"
        },
        {
          "internalType": "uint256",
          "name": "_tokenId",
          "type": "uint256"
        },
        {
          "internalType": "uint256",
          "name": "_amount",
          "type": "uint256"
        }
      ],
      "name": "transferFractions",
      "outputs": [],
      "stateMutability": "nonpayable",
      "type": "function"
    },
    {
      "inputs": [
        {
          "internalType": "address",
          "name": "_from",
          "type": "address"
        },
        {
          "internalType": "address",
          "name": "_to",
          "type": "address"
        },
        {
          "internalType": "uint256",
          "name": "_tokenId",
          "type": "uint256"
        }
      ],
      "name": "transferFrom",
      "outputs": [],
      "stateMutability": "nonpayable",
      "type": "function"
    },
    {
      "inputs": [
        {
          "internalType": "address",
          "name": "newOwner",
          "type": "address"
        }
      ],
      "name": "transferOwnership",
      "outputs": [],
      "stateMutability": "nonpayable",
      "type": "function"
    },
    {
      "inputs": [
        {
          "internalType": "uint256",
          "name": "tokenId",
          "type": "uint256"
        }
      ],
      "name": "userExpires",
      "outputs": [
        {
          "internalType": "uint256",
          "name": "",
          "type": "uint256"
        }
      ],
      "stateMutability": "view",
      "type": "function"
    },
    {
      "inputs": [
        {
          "internalType": "uint256",
          "name": "tokenId",
          "type": "uint256"
        }
      ],
      "name": "userOf",
      "outputs": [
        {
          "internalType": "address",
          "name": "",
          "type": "address"
        }
      ],
      "stateMutability": "view",
      "type": "function"
    },
    {
      "inputs": [],
      "name": "withdraw",
      "outputs": [],
      "stateMutability": "nonpayable",
      "type": "function"
    }
  ],
  "bytecode": "0x6101406040523480156200001257600080fd5b50604051620058b1380380620058b1833981810160405281019062000038919062000ae6565b6040518060400160405280600f81526020017f4c617a794e46542d566f756368657200000000000000000000000000000000008152506040518060400160405280600181526020017f31000000000000000000000000000000000000000000000000000000000000008152508c8c8c82828160009081620000ba919062000ecf565b508060019081620000cc919062000ecf565b5050508060089081620000e0919062000ecf565b5050505060008280519060200120905060008280519060200120905060007f8b73c3c69bb8fe3d512ecc4cf759cc79239f7b179b0ffacaa9a75d522b39400f90508260e081815250508161010081815250504660a081815250506200014d8184846200038760201b60201c565b608081815250503073ffffffffffffffffffffffffffffffffffffffff1660c08173ffffffffffffffffffffffffffffffffffffffff16815250508061012081815250505050505050620001b6620001aa620003c360201b60201c565b620003cb60201b60201c565b620001cd600b6200049160201b62001a551760201c565b6000620001e6600b620004a760201b62001a6b1760201c565b9050620001ff600b6200049160201b62001a551760201c565b620002113382620004b560201b60201c565b62000223818a620006fb60201b60201c565b86600c600083815260200190815260200160002060006101000a81548160ff021916908315150217905550604051806040016040528087815260200186815250600d6000838152602001908152602001600020600082015181600001556020820151816001015590505083600f60008381526020019081526020016000208190555083600e600083815260200190815260200160002060003373ffffffffffffffffffffffffffffffffffffffff1673ffffffffffffffffffffffffffffffffffffffff16815260200190815260200160002081905550876010600083815260200190815260200160002090816200031c919062000ecf565b50604051806040016040528084815260200183815250601160008381526020019081526020016000206000820151816000015560208201518160010155905050600060126000838152602001908152602001600020819055505050505050505050505050506200121e565b60008383834630604051602001620003a495949392919062001027565b6040516020818303038152906040528051906020012090509392505050565b600033905090565b6000600a60009054906101000a900473ffffffffffffffffffffffffffffffffffffffff16905081600a60006101000a81548173ffffffffffffffffffffffffffffffffffffffff021916908373ffffffffffffffffffffffffffffffffffffffff1602179055508173ffffffffffffffffffffffffffffffffffffffff168173ffffffffffffffffffffffffffffffffffffffff167f8be0079c531659141344cd1fd0a4f28419497f9722a3daafe3b4186f6b6457e060405160405180910390a35050565b6001816000016000828254019250508190555050565b600081600001549050919050565b600073ffffffffffffffffffffffffffffffffffffffff168273ffffffffffffffffffffffffffffffffffffffff160362000527576040517f08c379a00000000000000000000000000000000000000000000000000000000081526004016200051e90620010e5565b60405180910390fd5b62000538816200072260201b60201c565b156200057b576040517f08c379a0000000000000000000000000000000000000000000000000000000008152600401620005729062001157565b60405180910390fd5b620005916000838360016200076b60201b60201c565b620005a2816200072260201b60201c565b15620005e5576040517f08c379a0000000000000000000000000000000000000000000000000000000008152600401620005dc9062001157565b60405180910390fd5b6001600360008473ffffffffffffffffffffffffffffffffffffffff1673ffffffffffffffffffffffffffffffffffffffff16815260200190815260200160002060008282540192505081905550816002600083815260200190815260200160002060006101000a81548173ffffffffffffffffffffffffffffffffffffffff021916908373ffffffffffffffffffffffffffffffffffffffff160217905550808273ffffffffffffffffffffffffffffffffffffffff16600073ffffffffffffffffffffffffffffffffffffffff167fddf252ad1be2c89b69c2b068fc378daa952ba7f163c4a11628f55a4df523b3ef60405160405180910390a4620006f76000838360016200089860201b60201c565b5050565b806009600084815260200190815260200160002090816200071d919062000ecf565b505050565b60008073ffffffffffffffffffffffffffffffffffffffff166200074c836200089e60201b60201c565b73ffffffffffffffffffffffffffffffffffffffff1614159050919050565b60018111156200089257600073ffffffffffffffffffffffffffffffffffffffff168473ffffffffffffffffffffffffffffffffffffffff1614620008035780600360008673ffffffffffffffffffffffffffffffffffffffff1673ffffffffffffffffffffffffffffffffffffffff1681526020019081526020016000206000828254620007fb9190620011a8565b925050819055505b600073ffffffffffffffffffffffffffffffffffffffff168373ffffffffffffffffffffffffffffffffffffffff1614620008915780600360008573ffffffffffffffffffffffffffffffffffffffff1673ffffffffffffffffffffffffffffffffffffffff1681526020019081526020016000206000828254620008899190620011e3565b925050819055505b5b50505050565b50505050565b60006002600083815260200190815260200160002060009054906101000a900473ffffffffffffffffffffffffffffffffffffffff169050919050565b6000604051905090565b600080fd5b600080fd5b600080fd5b600080fd5b6000601f19601f8301169050919050565b7f4e487b7100000000000000000000000000000000000000000000000000000000600052604160045260246000fd5b6200094482620008f9565b810181811067ffffffffffffffff821117156200096657620009656200090a565b5b80604052505050565b60006200097b620008db565b905062000989828262000939565b919050565b600067ffffffffffffffff821115620009ac57620009ab6200090a565b5b620009b782620008f9565b9050602081019050919050565b60005b83811015620009e4578082015181840152602081019050620009c7565b60008484015250505050565b600062000a0762000a01846200098e565b6200096f565b90508281526020810184848401111562000a265762000a25620008f4565b5b62000a33848285620009c4565b509392505050565b600082601f83011262000a535762000a52620008ef565b5b815162000a65848260208601620009f0565b91505092915050565b60008115159050919050565b62000a858162000a6e565b811462000a9157600080fd5b50565b60008151905062000aa58162000a7a565b92915050565b6000819050919050565b62000ac08162000aab565b811462000acc57600080fd5b50565b60008151905062000ae08162000ab5565b92915050565b60008060008060008060008060008060006101608c8e03121562000b0f5762000b0e620008e5565b5b60008c015167ffffffffffffffff81111562000b305762000b2f620008ea565b5b62000b3e8e828f0162000a3b565b9b505060208c015167ffffffffffffffff81111562000b625762000b61620008ea565b5b62000b708e828f0162000a3b565b9a505060408c015167ffffffffffffffff81111562000b945762000b93620008ea565b5b62000ba28e828f0162000a3b565b99505060608c015167ffffffffffffffff81111562000bc65762000bc5620008ea565b5b62000bd48e828f0162000a3b565b98505060808c015167ffffffffffffffff81111562000bf85762000bf7620008ea565b5b62000c068e828f0162000a3b565b97505060a062000c198e828f0162000a94565b96505060c062000c2c8e828f0162000acf565b95505060e062000c3f8e828f0162000acf565b94505061010062000c538e828f0162000acf565b93505061012062000c678e828f0162000acf565b92505061014062000c7b8e828f0162000acf565b9150509295989b509295989b9093969950565b600081519050919050565b7f4e487b7100000000000000000000000000000000000000000000000000000000600052602260045260246000fd5b6000600282049050600182168062000ce157607f821691505b60208210810362000cf75762000cf662000c99565b5b50919050565b60008190508160005260206000209050919050565b60006020601f8301049050919050565b600082821b905092915050565b60006008830262000d617fffffffffffffffffffffffffffffffffffffffffffffffffffffffffffffffff8262000d22565b62000d6d868362000d22565b95508019841693508086168417925050509392505050565b6000819050919050565b600062000db062000daa62000da48462000aab565b62000d85565b62000aab565b9050919050565b6000819050919050565b62000dcc8362000d8f565b62000de462000ddb8262000db7565b84845462000d2f565b825550505050565b600090565b62000dfb62000dec565b62000e0881848462000dc1565b505050565b5b8181101562000e305762000e2460008262000df1565b60018101905062000e0e565b5050565b601f82111562000e7f5762000e498162000cfd565b62000e548462000d12565b8101602085101562000e64578190505b62000e7c62000e738562000d12565b83018262000e0d565b50505b505050565b600082821c905092915050565b600062000ea46000198460080262000e84565b1980831691505092915050565b600062000ebf838362000e91565b9150826002028217905092915050565b62000eda8262000c8e565b67ffffffffffffffff81111562000ef65762000ef56200090a565b5b62000f02825462000cc8565b62000f0f82828562000e34565b600060209050601f83116001811462000f47576000841562000f32578287015190505b62000f3e858262000eb1565b86555062000fae565b601f19841662000f578662000cfd565b60005b8281101562000f815784890151825560018201915060208501945060208101905062000f5a565b8683101562000fa1578489015162000f9d601f89168262000e91565b8355505b6001600288020188555050505b505050505050565b6000819050919050565b62000fcb8162000fb6565b82525050565b62000fdc8162000aab565b82525050565b600073ffffffffffffffffffffffffffffffffffffffff82169050919050565b60006200100f8262000fe2565b9050919050565b620010218162001002565b82525050565b600060a0820190506200103e600083018862000fc0565b6200104d602083018762000fc0565b6200105c604083018662000fc0565b6200106b606083018562000fd1565b6200107a608083018462001016565b9695505050505050565b600082825260208201905092915050565b7f4552433732313a206d696e7420746f20746865207a65726f2061646472657373600082015250565b6000620010cd60208362001084565b9150620010da8262001095565b602082019050919050565b600060208201905081810360008301526200110081620010be565b9050919050565b7f4552433732313a20746f6b656e20616c7265616479206d696e74656400000000600082015250565b60006200113f601c8362001084565b91506200114c8262001107565b602082019050919050565b60006020820190508181036000830152620011728162001130565b9050919050565b7f4e487b7100000000000000000000000000000000000000000000000000000000600052601160045260246000fd5b6000620011b58262000aab565b9150620011c28362000aab565b9250828203905081811115620011dd57620011dc62001179565b5b92915050565b6000620011f08262000aab565b9150620011fd8362000aab565b925082820190508082111562001218576200121762001179565b5b92915050565b60805160a05160c05160e05161010051610120516146556200125c6000396000505060005050600050506000505060005050600050506146556000f3fe6080604052600436106101c25760003560e01c80638fc88c48116100f7578063c2f1f14a11610095578063e49ed29211610064578063e49ed2921461066b578063e985e9c514610694578063f2fde38b146106d1578063f9ba021c146106fa576101c2565b8063c2f1f14a1461059d578063c87b56dd146105da578063e030565e14610617578063e322ad2b14610640576101c2565b8063a0712d68116100d1578063a0712d68146104f2578063a22cb4651461050e578063b88d4fde14610537578063c1844f3614610560576101c2565b80638fc88c481461044d578063910bbe4f1461048a57806395d89b41146104c7576101c2565b806342842e0e1161016457806370a082311161013e57806370a08231146103a3578063715018a6146103e05780638ada066e146103f75780638da5cb5b14610422576101c2565b806342842e0e14610312578063564b81ef1461033b5780636352211e14610366576101c2565b8063095ea7b3116101a0578063095ea7b31461026c57806323b872dd146102955780633cac65c6146102be5780633ccfd60b146102fb576101c2565b806301ffc9a7146101c757806306fdde0314610204578063081812fc1461022f575b600080fd5b3480156101d357600080fd5b506101ee60048036038101906101e99190612e6d565b610737565b6040516101fb9190612eb5565b60405180910390f35b34801561021057600080fd5b506102196107b1565b6040516102269190612f60565b60405180910390f35b34801561023b57600080fd5b5061025660048036038101906102519190612fb8565b610843565b6040516102639190613026565b60405180910390f35b34801561027857600080fd5b50610293600480360381019061028e919061306d565b610889565b005b3480156102a157600080fd5b506102bc60048036038101906102b791906130ad565b6109a0565b005b3480156102ca57600080fd5b506102e560048036038101906102e09190613261565b610afc565b6040516102f29190613372565b60405180910390f35b34801561030757600080fd5b50610310610c33565b005b34801561031e57600080fd5b50610339600480360381019061033491906130ad565b610d14565b005b34801561034757600080fd5b50610350610e80565b60405161035d9190613372565b60405180910390f35b34801561037257600080fd5b5061038d60048036038101906103889190612fb8565b610e8d565b60405161039a9190613026565b60405180910390f35b3480156103af57600080fd5b506103ca60048036038101906103c5919061338d565b610f13565b6040516103d79190613372565b60405180910390f35b3480156103ec57600080fd5b506103f5610fca565b005b34801561040357600080fd5b5061040c610fde565b6040516104199190613372565b60405180910390f35b34801561042e57600080fd5b50610437610fef565b6040516104449190613026565b60405180910390f35b34801561045957600080fd5b50610474600480360381019061046f9190612fb8565b611019565b6040516104819190613372565b60405180910390f35b34801561049657600080fd5b506104b160048036038101906104ac9190612fb8565b611057565b6040516104be9190613372565b60405180910390f35b3480156104d357600080fd5b506104dc611074565b6040516104e99190612f60565b60405180910390f35b61050c60048036038101906105079190612fb8565b611106565b005b34801561051a57600080fd5b50610535600480360381019061053091906133ba565b611284565b005b34801561054357600080fd5b5061055e6004803603810190610559919061349b565b61129a565b005b34801561056c57600080fd5b506105876004803603810190610582919061306d565b6113f8565b6040516105949190613372565b60405180910390f35b3480156105a957600080fd5b506105c460048036038101906105bf9190612fb8565b611453565b6040516105d19190613026565b60405180910390f35b3480156105e657600080fd5b5061060160048036038101906105fc9190612fb8565b6114d8565b60405161060e9190612f60565b60405180910390f35b34801561062357600080fd5b5061063e6004803603810190610639919061355e565b6115ea565b005b34801561064c57600080fd5b506106556116b6565b6040516106629190613372565b60405180910390f35b34801561067757600080fd5b50610692600480360381019061068d91906135b1565b6116fd565b005b3480156106a057600080fd5b506106bb60048036038101906106b69190613604565b6118b0565b6040516106c89190612eb5565b60405180910390f35b3480156106dd57600080fd5b506106f860048036038101906106f3919061338d565b611944565b005b34801561070657600080fd5b50610721600480360381019061071c9190612fb8565b6119c7565b60405161072e9190612eb5565b60405180910390f35b60007fad092b5c000000000000000000000000000000000000000000000000000000007bffffffffffffffffffffffffffffffffffffffffffffffffffffffff1916827bffffffffffffffffffffffffffffffffffffffffffffffffffffffff191614806107aa57506107a982611a79565b5b9050919050565b6060600080546107c090613673565b80601f01602080910402602001604051908101604052809291908181526020018280546107ec90613673565b80156108395780601f1061080e57610100808354040283529160200191610839565b820191906000526020600020905b81548152906001019060200180831161081c57829003601f168201915b5050505050905090565b600061084e82611b5b565b6004600083815260200190815260200160002060009054906101000a900473ffffffffffffffffffffffffffffffffffffffff169050919050565b600061089482610e8d565b90508073ffffffffffffffffffffffffffffffffffffffff168373ffffffffffffffffffffffffffffffffffffffff1603610904576040517f08c379a00000000000000000000000000000000000000000000000000000000081526004016108fb90613716565b60405180910390fd5b8073ffffffffffffffffffffffffffffffffffffffff16610923611ba6565b73ffffffffffffffffffffffffffffffffffffffff16148061095257506109518161094c611ba6565b6118b0565b5b610991576040517f08c379a0000000000000000000000000000000000000000000000000000000008152600401610988906137a8565b60405180910390fd5b61099b8383611bae565b505050565b8273ffffffffffffffffffffffffffffffffffffffff166109c082610e8d565b73ffffffffffffffffffffffffffffffffffffffff1614610a16576040517f08c379a0000000000000000000000000000000000000000000000000000000008152600401610a0d9061383a565b60405180910390fd5b600073ffffffffffffffffffffffffffffffffffffffff168273ffffffffffffffffffffffffffffffffffffffff1603610a85576040517f08c379a0000000000000000000000000000000000000000000000000000000008152600401610a7c906138cc565b60405180910390fd5b60001515600c600083815260200190815260200160002060009054906101000a900460ff16151503610aec576040517f08c379a0000000000000000000000000000000000000000000000000000000008152600401610ae390613938565b60405180910390fd5b610af7838383611c67565b505050565b6000610b06611cc7565b6000610b12600b611a6b565b9050610b1e600b611a55565b610b28818c611d45565b87600c600083815260200190815260200160002060006101000a81548160ff021916908315150217905550604051806040016040528088815260200187815250600d6000838152602001908152602001600020600082015181600001556020820151816001015590505084600f60008381526020019081526020016000208190555089601060008381526020019081526020016000209081610bca9190613b04565b50604051806040016040528085815260200184815250601160008381526020019081526020016000206000820151816000015560208201518160010155905050886012600083815260200190815260200160002081905550809150509998505050505050505050565b610c3b611cc7565b60003390506000601360008373ffffffffffffffffffffffffffffffffffffffff1673ffffffffffffffffffffffffffffffffffffffff1681526020019081526020016000205490506000601360008473ffffffffffffffffffffffffffffffffffffffff1673ffffffffffffffffffffffffffffffffffffffff168152602001908152602001600020819055508173ffffffffffffffffffffffffffffffffffffffff166108fc829081150290604051600060405180830381858888f19350505050158015610d0f573d6000803e3d6000fd5b505050565b8273ffffffffffffffffffffffffffffffffffffffff16610d3482610e8d565b73ffffffffffffffffffffffffffffffffffffffff1614610d8a576040517f08c379a0000000000000000000000000000000000000000000000000000000008152600401610d819061383a565b60405180910390fd5b600073ffffffffffffffffffffffffffffffffffffffff168273ffffffffffffffffffffffffffffffffffffffff1603610df9576040517f08c379a0000000000000000000000000000000000000000000000000000000008152600401610df0906138cc565b60405180910390fd5b60001515600c600083815260200190815260200160002060009054906101000a900460ff16151503610e60576040517f08c379a0000000000000000000000000000000000000000000000000000000008152600401610e5790613938565b60405180910390fd5b610e7b83838360405180602001604052806000815250611d6a565b505050565b6000804690508091505090565b600080610e9983611dcc565b9050600073ffffffffffffffffffffffffffffffffffffffff168173ffffffffffffffffffffffffffffffffffffffff1603610f0a576040517f08c379a0000000000000000000000000000000000000000000000000000000008152600401610f0190613c22565b60405180910390fd5b80915050919050565b60008073ffffffffffffffffffffffffffffffffffffffff168273ffffffffffffffffffffffffffffffffffffffff1603610f83576040517f08c379a0000000000000000000000000000000000000000000000000000000008152600401610f7a90613cb4565b60405180910390fd5b600360008373ffffffffffffffffffffffffffffffffffffffff1673ffffffffffffffffffffffffffffffffffffffff168152602001908152602001600020549050919050565b610fd2611cc7565b610fdc6000611e09565b565b6000610fea600b611a6b565b905090565b6000600a60009054906101000a900473ffffffffffffffffffffffffffffffffffffffff16905090565b60006007600083815260200190815260200160002060000160149054906101000a900467ffffffffffffffff1667ffffffffffffffff169050919050565b6000600f6000838152602001908152602001600020549050919050565b60606001805461108390613673565b80601f01602080910402602001604051908101604052809291908181526020018280546110af90613673565b80156110fc5780601f106110d1576101008083540402835291602001916110fc565b820191906000526020600020905b8154815290600101906020018083116110df57829003601f168201915b5050505050905090565b600060126000838152602001908152602001600020541161115c576040517f08c379a000000000000000000000000000000000000000000000000000000000815260040161115390613d20565b60405180910390fd5b60126000828152602001908152602001600020543410156111b2576040517f08c379a00000000000000000000000000000000000000000000000000000000081526004016111a990613d8c565b60405180910390fd5b600f600082815260200190815260200160002054600e600083815260200190815260200160002060003373ffffffffffffffffffffffffffffffffffffffff1673ffffffffffffffffffffffffffffffffffffffff168152602001908152602001600020819055503460136000611227610fef565b73ffffffffffffffffffffffffffffffffffffffff1673ffffffffffffffffffffffffffffffffffffffff16815260200190815260200160002060008282546112709190613ddb565b925050819055506112813382611ecf565b50565b61129661128f611ba6565b83836120ec565b5050565b8373ffffffffffffffffffffffffffffffffffffffff166112ba83610e8d565b73ffffffffffffffffffffffffffffffffffffffff1614611310576040517f08c379a00000000000000000000000000000000000000000000000000000000081526004016113079061383a565b60405180910390fd5b600073ffffffffffffffffffffffffffffffffffffffff168373ffffffffffffffffffffffffffffffffffffffff160361137f576040517f08c379a0000000000000000000000000000000000000000000000000000000008152600401611376906138cc565b60405180910390fd5b60001515600c600084815260200190815260200160002060009054906101000a900460ff161515036113e6576040517f08c379a00000000000000000000000000000000000000000000000000000000081526004016113dd90613938565b60405180910390fd5b6113f284848484611d6a565b50505050565b6000600e600083815260200190815260200160002060008473ffffffffffffffffffffffffffffffffffffffff1673ffffffffffffffffffffffffffffffffffffffff16815260200190815260200160002054905092915050565b6000426007600084815260200190815260200160002060000160149054906101000a900467ffffffffffffffff1667ffffffffffffffff16106114ce576007600083815260200190815260200160002060000160009054906101000a900473ffffffffffffffffffffffffffffffffffffffff1690506114d3565b600090505b919050565b60606114e382611b5b565b600060066000848152602001908152602001600020805461150390613673565b80601f016020809104026020016040519081016040528092919081815260200182805461152f90613673565b801561157c5780601f106115515761010080835404028352916020019161157c565b820191906000526020600020905b81548152906001019060200180831161155f57829003601f168201915b50505050509050600061158d612258565b905060008151036115a25781925050506115e5565b6000825111156115d75780826040516020016115bf929190613e4b565b604051602081830303815290604052925050506115e5565b6115e0846122ea565b925050505b919050565b42600d6000858152602001908152602001600020600001541015611643576040517f08c379a000000000000000000000000000000000000000000000000000000000815260040161163a90613ee1565b60405180910390fd5b8067ffffffffffffffff16600d60008581526020019081526020016000206001015411156116a6576040517f08c379a000000000000000000000000000000000000000000000000000000000815260040161169d90613f73565b60405180910390fd5b6116b1838383612352565b505050565b6000601360003373ffffffffffffffffffffffffffffffffffffffff1673ffffffffffffffffffffffffffffffffffffffff16815260200190815260200160002054905090565b6000600f60008481526020019081526020016000205411611753576040517f08c379a000000000000000000000000000000000000000000000000000000000815260040161174a90614005565b60405180910390fd5b80600e600084815260200190815260200160002060003373ffffffffffffffffffffffffffffffffffffffff1673ffffffffffffffffffffffffffffffffffffffff1681526020019081526020016000205410156117e6576040517f08c379a00000000000000000000000000000000000000000000000000000000081526004016117dd90614097565b60405180910390fd5b80600e600084815260200190815260200160002060003373ffffffffffffffffffffffffffffffffffffffff1673ffffffffffffffffffffffffffffffffffffffff1681526020019081526020016000206000828254039250508190555080600e600084815260200190815260200160002060008573ffffffffffffffffffffffffffffffffffffffff1673ffffffffffffffffffffffffffffffffffffffff16815260200190815260200160002060008282546118a49190613ddb565b92505081905550505050565b6000600560008473ffffffffffffffffffffffffffffffffffffffff1673ffffffffffffffffffffffffffffffffffffffff16815260200190815260200160002060008373ffffffffffffffffffffffffffffffffffffffff1673ffffffffffffffffffffffffffffffffffffffff16815260200190815260200160002060009054906101000a900460ff16905092915050565b61194c611cc7565b600073ffffffffffffffffffffffffffffffffffffffff168173ffffffffffffffffffffffffffffffffffffffff16036119bb576040517f08c379a00000000000000000000000000000000000000000000000000000000081526004016119b290614129565b60405180910390fd5b6119c481611e09565b50565b6000806011600084815260200190815260200160002060000154148015611a04575060006011600084815260200190815260200160002060010154145b15611a125760009050611a50565b60116000838152602001908152602001600020600001544210158015611a4d5750601160008381526020019081526020016000206001015442105b90505b919050565b6001816000016000828254019250508190555050565b600081600001549050919050565b60007f80ac58cd000000000000000000000000000000000000000000000000000000007bffffffffffffffffffffffffffffffffffffffffffffffffffffffff1916827bffffffffffffffffffffffffffffffffffffffffffffffffffffffff19161480611b4457507f5b5e139f000000000000000000000000000000000000000000000000000000007bffffffffffffffffffffffffffffffffffffffffffffffffffffffff1916827bffffffffffffffffffffffffffffffffffffffffffffffffffffffff1916145b80611b545750611b5382612475565b5b9050919050565b611b64816124df565b611ba3576040517f08c379a0000000000000000000000000000000000000000000000000000000008152600401611b9a90613c22565b60405180910390fd5b50565b600033905090565b816004600083815260200190815260200160002060006101000a81548173ffffffffffffffffffffffffffffffffffffffff021916908373ffffffffffffffffffffffffffffffffffffffff160217905550808273ffffffffffffffffffffffffffffffffffffffff16611c2183610e8d565b73ffffffffffffffffffffffffffffffffffffffff167f8c5be1e5ebec7d5bd14f71427d1e84f3dd0314c0f7b2291e5b200ac8c7c3b92560405160405180910390a45050565b611c78611c72611ba6565b82612520565b611cb7576040517f08c379a0000000000000000000000000000000000000000000000000000000008152600401611cae906141bb565b60405180910390fd5b611cc28383836125b5565b505050565b611ccf611ba6565b73ffffffffffffffffffffffffffffffffffffffff16611ced610fef565b73ffffffffffffffffffffffffffffffffffffffff1614611d43576040517f08c379a0000000000000000000000000000000000000000000000000000000008152600401611d3a90614227565b60405180910390fd5b565b80600960008481526020019081526020016000209081611d659190613b04565b505050565b611d7b611d75611ba6565b83612520565b611dba576040517f08c379a0000000000000000000000000000000000000000000000000000000008152600401611db1906141bb565b60405180910390fd5b611dc6848484846128ae565b50505050565b60006002600083815260200190815260200160002060009054906101000a900473ffffffffffffffffffffffffffffffffffffffff169050919050565b6000600a60009054906101000a900473ffffffffffffffffffffffffffffffffffffffff16905081600a60006101000a81548173ffffffffffffffffffffffffffffffffffffffff021916908373ffffffffffffffffffffffffffffffffffffffff1602179055508173ffffffffffffffffffffffffffffffffffffffff168173ffffffffffffffffffffffffffffffffffffffff167f8be0079c531659141344cd1fd0a4f28419497f9722a3daafe3b4186f6b6457e060405160405180910390a35050565b600073ffffffffffffffffffffffffffffffffffffffff168273ffffffffffffffffffffffffffffffffffffffff1603611f3e576040517f08c379a0000000000000000000000000000000000000000000000000000000008152600401611f3590614293565b60405180910390fd5b611f47816124df565b15611f87576040517f08c379a0000000000000000000000000000000000000000000000000000000008152600401611f7e906142ff565b60405180910390fd5b611f9560008383600161290a565b611f9e816124df565b15611fde576040517f08c379a0000000000000000000000000000000000000000000000000000000008152600401611fd5906142ff565b60405180910390fd5b6001600360008473ffffffffffffffffffffffffffffffffffffffff1673ffffffffffffffffffffffffffffffffffffffff16815260200190815260200160002060008282540192505081905550816002600083815260200190815260200160002060006101000a81548173ffffffffffffffffffffffffffffffffffffffff021916908373ffffffffffffffffffffffffffffffffffffffff160217905550808273ffffffffffffffffffffffffffffffffffffffff16600073ffffffffffffffffffffffffffffffffffffffff167fddf252ad1be2c89b69c2b068fc378daa952ba7f163c4a11628f55a4df523b3ef60405160405180910390a46120e8600083836001612a30565b5050565b8173ffffffffffffffffffffffffffffffffffffffff168373ffffffffffffffffffffffffffffffffffffffff160361215a576040517f08c379a00000000000000000000000000000000000000000000000000000000081526004016121519061436b565b60405180910390fd5b80600560008573ffffffffffffffffffffffffffffffffffffffff1673ffffffffffffffffffffffffffffffffffffffff16815260200190815260200160002060008473ffffffffffffffffffffffffffffffffffffffff1673ffffffffffffffffffffffffffffffffffffffff16815260200190815260200160002060006101000a81548160ff0219169083151502179055508173ffffffffffffffffffffffffffffffffffffffff168373ffffffffffffffffffffffffffffffffffffffff167f17307eab39ab6107e8899845ad3d59bd9653f200f220920489ca2b5937696c318360405161224b9190612eb5565b60405180910390a3505050565b60606008805461226790613673565b80601f016020809104026020016040519081016040528092919081815260200182805461229390613673565b80156122e05780601f106122b5576101008083540402835291602001916122e0565b820191906000526020600020905b8154815290600101906020018083116122c357829003601f168201915b5050505050905090565b60606122f582611b5b565b60006122ff612258565b9050600081511161231f576040518060200160405280600081525061234a565b8061232984612a36565b60405160200161233a929190613e4b565b6040516020818303038152906040525b915050919050565b61235c3384612520565b61239b576040517f08c379a0000000000000000000000000000000000000000000000000000000008152600401612392906143fd565b60405180910390fd5b6000600760008581526020019081526020016000209050828160000160006101000a81548173ffffffffffffffffffffffffffffffffffffffff021916908373ffffffffffffffffffffffffffffffffffffffff160217905550818160000160146101000a81548167ffffffffffffffff021916908367ffffffffffffffff1602179055508273ffffffffffffffffffffffffffffffffffffffff16847f4e06b4e7000e659094299b3533b47b6aa8ad048e95e872d23d1f4ee55af89cfe84604051612467919061442c565b60405180910390a350505050565b60007f01ffc9a7000000000000000000000000000000000000000000000000000000007bffffffffffffffffffffffffffffffffffffffffffffffffffffffff1916827bffffffffffffffffffffffffffffffffffffffffffffffffffffffff1916149050919050565b60008073ffffffffffffffffffffffffffffffffffffffff1661250183611dcc565b73ffffffffffffffffffffffffffffffffffffffff1614159050919050565b60008061252c83610e8d565b90508073ffffffffffffffffffffffffffffffffffffffff168473ffffffffffffffffffffffffffffffffffffffff16148061256e575061256d81856118b0565b5b806125ac57508373ffffffffffffffffffffffffffffffffffffffff1661259484610843565b73ffffffffffffffffffffffffffffffffffffffff16145b91505092915050565b8273ffffffffffffffffffffffffffffffffffffffff166125d582610e8d565b73ffffffffffffffffffffffffffffffffffffffff161461262b576040517f08c379a00000000000000000000000000000000000000000000000000000000081526004016126229061383a565b60405180910390fd5b600073ffffffffffffffffffffffffffffffffffffffff168273ffffffffffffffffffffffffffffffffffffffff160361269a576040517f08c379a0000000000000000000000000000000000000000000000000000000008152600401612691906138cc565b60405180910390fd5b6126a7838383600161290a565b8273ffffffffffffffffffffffffffffffffffffffff166126c782610e8d565b73ffffffffffffffffffffffffffffffffffffffff161461271d576040517f08c379a00000000000000000000000000000000000000000000000000000000081526004016127149061383a565b60405180910390fd5b6004600082815260200190815260200160002060006101000a81549073ffffffffffffffffffffffffffffffffffffffff02191690556001600360008573ffffffffffffffffffffffffffffffffffffffff1673ffffffffffffffffffffffffffffffffffffffff168152602001908152602001600020600082825403925050819055506001600360008473ffffffffffffffffffffffffffffffffffffffff1673ffffffffffffffffffffffffffffffffffffffff16815260200190815260200160002060008282540192505081905550816002600083815260200190815260200160002060006101000a81548173ffffffffffffffffffffffffffffffffffffffff021916908373ffffffffffffffffffffffffffffffffffffffff160217905550808273ffffffffffffffffffffffffffffffffffffffff168473ffffffffffffffffffffffffffffffffffffffff167fddf252ad1be2c89b69c2b068fc378daa952ba7f163c4a11628f55a4df523b3ef60405160405180910390a46128a98383836001612a30565b505050565b6128b98484846125b5565b6128c584848484612b04565b612904576040517f08c379a00000000000000000000000000000000000000000000000000000000081526004016128fb906144b9565b60405180910390fd5b50505050565b6001811115612a2a57600073ffffffffffffffffffffffffffffffffffffffff168473ffffffffffffffffffffffffffffffffffffffff161461299e5780600360008673ffffffffffffffffffffffffffffffffffffffff1673ffffffffffffffffffffffffffffffffffffffff168152602001908152602001600020600082825461299691906144d9565b925050819055505b600073ffffffffffffffffffffffffffffffffffffffff168373ffffffffffffffffffffffffffffffffffffffff1614612a295780600360008573ffffffffffffffffffffffffffffffffffffffff1673ffffffffffffffffffffffffffffffffffffffff1681526020019081526020016000206000828254612a219190613ddb565b925050819055505b5b50505050565b50505050565b606060006001612a4584612c8b565b01905060008167ffffffffffffffff811115612a6457612a6361310a565b5b6040519080825280601f01601f191660200182016040528015612a965781602001600182028036833780820191505090505b509050600082602001820190505b600115612af9578080600190039150507f3031323334353637383961626364656600000000000000000000000000000000600a86061a8153600a8581612aed57612aec61450d565b5b04945060008503612aa4575b819350505050919050565b6000612b258473ffffffffffffffffffffffffffffffffffffffff16612dde565b15612c7e578373ffffffffffffffffffffffffffffffffffffffff1663150b7a02612b4e611ba6565b8786866040518563ffffffff1660e01b8152600401612b709493929190614591565b6020604051808303816000875af1925050508015612bac57506040513d601f19601f82011682018060405250810190612ba991906145f2565b60015b612c2e573d8060008114612bdc576040519150601f19603f3d011682016040523d82523d6000602084013e612be1565b606091505b506000815103612c26576040517f08c379a0000000000000000000000000000000000000000000000000000000008152600401612c1d906144b9565b60405180910390fd5b805181602001fd5b63150b7a0260e01b7bffffffffffffffffffffffffffffffffffffffffffffffffffffffff1916817bffffffffffffffffffffffffffffffffffffffffffffffffffffffff191614915050612c83565b600190505b949350505050565b600080600090507a184f03e93ff9f4daa797ed6e38ed64bf6a1f0100000000000000008310612ce9577a184f03e93ff9f4daa797ed6e38ed64bf6a1f0100000000000000008381612cdf57612cde61450d565b5b0492506040810190505b6d04ee2d6d415b85acef81000000008310612d26576d04ee2d6d415b85acef81000000008381612d1c57612d1b61450d565b5b0492506020810190505b662386f26fc100008310612d5557662386f26fc100008381612d4b57612d4a61450d565b5b0492506010810190505b6305f5e1008310612d7e576305f5e1008381612d7457612d7361450d565b5b0492506008810190505b6127108310612da3576127108381612d9957612d9861450d565b5b0492506004810190505b60648310612dc65760648381612dbc57612dbb61450d565b5b0492506002810190505b600a8310612dd5576001810190505b80915050919050565b6000808273ffffffffffffffffffffffffffffffffffffffff163b119050919050565b6000604051905090565b600080fd5b600080fd5b60007fffffffff0000000000000000000000000000000000000000000000000000000082169050919050565b612e4a81612e15565b8114612e5557600080fd5b50565b600081359050612e6781612e41565b92915050565b600060208284031215612e8357612e82612e0b565b5b6000612e9184828501612e58565b91505092915050565b60008115159050919050565b612eaf81612e9a565b82525050565b6000602082019050612eca6000830184612ea6565b92915050565b600081519050919050565b600082825260208201905092915050565b60005b83811015612f0a578082015181840152602081019050612eef565b60008484015250505050565b6000601f19601f8301169050919050565b6000612f3282612ed0565b612f3c8185612edb565b9350612f4c818560208601612eec565b612f5581612f16565b840191505092915050565b60006020820190508181036000830152612f7a8184612f27565b905092915050565b6000819050919050565b612f9581612f82565b8114612fa057600080fd5b50565b600081359050612fb281612f8c565b92915050565b600060208284031215612fce57612fcd612e0b565b5b6000612fdc84828501612fa3565b91505092915050565b600073ffffffffffffffffffffffffffffffffffffffff82169050919050565b600061301082612fe5565b9050919050565b61302081613005565b82525050565b600060208201905061303b6000830184613017565b92915050565b61304a81613005565b811461305557600080fd5b50565b60008135905061306781613041565b92915050565b6000806040838503121561308457613083612e0b565b5b600061309285828601613058565b92505060206130a385828601612fa3565b9150509250929050565b6000806000606084860312156130c6576130c5612e0b565b5b60006130d486828701613058565b93505060206130e586828701613058565b92505060406130f686828701612fa3565b9150509250925092565b600080fd5b600080fd5b7f4e487b7100000000000000000000000000000000000000000000000000000000600052604160045260246000fd5b61314282612f16565b810181811067ffffffffffffffff821117156131615761316061310a565b5b80604052505050565b6000613174612e01565b90506131808282613139565b919050565b600067ffffffffffffffff8211156131a05761319f61310a565b5b6131a982612f16565b9050602081019050919050565b82818337600083830152505050565b60006131d86131d384613185565b61316a565b9050828152602081018484840111156131f4576131f3613105565b5b6131ff8482856131b6565b509392505050565b600082601f83011261321c5761321b613100565b5b813561322c8482602086016131c5565b91505092915050565b61323e81612e9a565b811461324957600080fd5b50565b60008135905061325b81613235565b92915050565b60008060008060008060008060006101208a8c03121561328457613283612e0b565b5b60008a013567ffffffffffffffff8111156132a2576132a1612e10565b5b6132ae8c828d01613207565b99505060208a013567ffffffffffffffff8111156132cf576132ce612e10565b5b6132db8c828d01613207565b98505060406132ec8c828d01612fa3565b97505060606132fd8c828d0161324c565b965050608061330e8c828d01612fa3565b95505060a061331f8c828d01612fa3565b94505060c06133308c828d01612fa3565b93505060e06133418c828d01612fa3565b9250506101006133538c828d01612fa3565b9150509295985092959850929598565b61336c81612f82565b82525050565b60006020820190506133876000830184613363565b92915050565b6000602082840312156133a3576133a2612e0b565b5b60006133b184828501613058565b91505092915050565b600080604083850312156133d1576133d0612e0b565b5b60006133df85828601613058565b92505060206133f08582860161324c565b9150509250929050565b600067ffffffffffffffff8211156134155761341461310a565b5b61341e82612f16565b9050602081019050919050565b600061343e613439846133fa565b61316a565b90508281526020810184848401111561345a57613459613105565b5b6134658482856131b6565b509392505050565b600082601f83011261348257613481613100565b5b813561349284826020860161342b565b91505092915050565b600080600080608085870312156134b5576134b4612e0b565b5b60006134c387828801613058565b94505060206134d487828801613058565b93505060406134e587828801612fa3565b925050606085013567ffffffffffffffff81111561350657613505612e10565b5b6135128782880161346d565b91505092959194509250565b600067ffffffffffffffff82169050919050565b61353b8161351e565b811461354657600080fd5b50565b60008135905061355881613532565b92915050565b60008060006060848603121561357757613576612e0b565b5b600061358586828701612fa3565b935050602061359686828701613058565b92505060406135a786828701613549565b9150509250925092565b6000806000606084860312156135ca576135c9612e0b565b5b60006135d886828701613058565b93505060206135e986828701612fa3565b92505060406135fa86828701612fa3565b9150509250925092565b6000806040838503121561361b5761361a612e0b565b5b600061362985828601613058565b925050602061363a85828601613058565b9150509250929050565b7f4e487b7100000000000000000000000000000000000000000000000000000000600052602260045260246000fd5b6000600282049050600182168061368b57607f821691505b60208210810361369e5761369d613644565b5b50919050565b7f4552433732313a20617070726f76616c20746f2063757272656e74206f776e6560008201527f7200000000000000000000000000000000000000000000000000000000000000602082015250565b6000613700602183612edb565b915061370b826136a4565b604082019050919050565b6000602082019050818103600083015261372f816136f3565b9050919050565b7f4552433732313a20617070726f76652063616c6c6572206973206e6f7420746f60008201527f6b656e206f776e6572206f7220617070726f76656420666f7220616c6c000000602082015250565b6000613792603d83612edb565b915061379d82613736565b604082019050919050565b600060208201905081810360008301526137c181613785565b9050919050565b7f4552433732313a207472616e736665722066726f6d20696e636f72726563742060008201527f6f776e6572000000000000000000000000000000000000000000000000000000602082015250565b6000613824602583612edb565b915061382f826137c8565b604082019050919050565b6000602082019050818103600083015261385381613817565b9050919050565b7f4552433732313a207472616e7366657220746f20746865207a65726f2061646460008201527f7265737300000000000000000000000000000000000000000000000000000000602082015250565b60006138b6602483612edb565b91506138c18261385a565b604082019050919050565b600060208201905081810360008301526138e5816138a9565b9050919050565b7f746f6b656e4964206973206e6f74207472616e7366657261626c650000000000600082015250565b6000613922601b83612edb565b915061392d826138ec565b602082019050919050565b6000602082019050818103600083015261395181613915565b9050919050565b60008190508160005260206000209050919050565b60006020601f8301049050919050565b600082821b905092915050565b6000600883026139ba7fffffffffffffffffffffffffffffffffffffffffffffffffffffffffffffffff8261397d565b6139c4868361397d565b95508019841693508086168417925050509392505050565b6000819050919050565b6000613a016139fc6139f784612f82565b6139dc565b612f82565b9050919050565b6000819050919050565b613a1b836139e6565b613a2f613a2782613a08565b84845461398a565b825550505050565b600090565b613a44613a37565b613a4f818484613a12565b505050565b5b81811015613a7357613a68600082613a3c565b600181019050613a55565b5050565b601f821115613ab857613a8981613958565b613a928461396d565b81016020851015613aa1578190505b613ab5613aad8561396d565b830182613a54565b50505b505050565b600082821c905092915050565b6000613adb60001984600802613abd565b1980831691505092915050565b6000613af48383613aca565b9150826002028217905092915050565b613b0d82612ed0565b67ffffffffffffffff811115613b2657613b2561310a565b5b613b308254613673565b613b3b828285613a77565b600060209050601f831160018114613b6e5760008415613b5c578287015190505b613b668582613ae8565b865550613bce565b601f198416613b7c86613958565b60005b82811015613ba457848901518255600182019150602085019450602081019050613b7f565b86831015613bc15784890151613bbd601f891682613aca565b8355505b6001600288020188555050505b505050505050565b7f4552433732313a20696e76616c696420746f6b656e2049440000000000000000600082015250565b6000613c0c601883612edb565b9150613c1782613bd6565b602082019050919050565b60006020820190508181036000830152613c3b81613bff565b9050919050565b7f4552433732313a2061646472657373207a65726f206973206e6f74206120766160008201527f6c6964206f776e65720000000000000000000000000000000000000000000000602082015250565b6000613c9e602983612edb565b9150613ca982613c42565b604082019050919050565b60006020820190508181036000830152613ccd81613c91565b9050919050565b7f7072696365206d75737420626520736574000000000000000000000000000000600082015250565b6000613d0a601183612edb565b9150613d1582613cd4565b602082019050919050565b60006020820190508181036000830152613d3981613cfd565b9050919050565b7f696e73756666696369656e742062616c616e6365000000000000000000000000600082015250565b6000613d76601483612edb565b9150613d8182613d40565b602082019050919050565b60006020820190508181036000830152613da581613d69565b9050919050565b7f4e487b7100000000000000000000000000000000000000000000000000000000600052601160045260246000fd5b6000613de682612f82565b9150613df183612f82565b9250828201905080821115613e0957613e08613dac565b5b92915050565b600081905092915050565b6000613e2582612ed0565b613e2f8185613e0f565b9350613e3f818560208601612eec565b80840191505092915050565b6000613e578285613e1a565b9150613e638284613e1a565b91508190509392505050565b7f72656e7461626c652074696d696e67206973207374696c6c20696e76616c696460008201527f20666f72207468697320746f6b656e2069640000000000000000000000000000602082015250565b6000613ecb603283612edb565b9150613ed682613e6f565b604082019050919050565b60006020820190508181036000830152613efa81613ebe565b9050919050565b7f72656e7461626c652074696d696e6720686173206578706972656420666f722060008201527f7468697320746f6b656e20696400000000000000000000000000000000000000602082015250565b6000613f5d602d83612edb565b9150613f6882613f01565b604082019050919050565b60006020820190508181036000830152613f8c81613f50565b9050919050565b7f6672616374696f6e616c206f7074696f6e73206e6f7420616c6c6f776564206660008201527f6f72207468697320746f6b656e49640000000000000000000000000000000000602082015250565b6000613fef602f83612edb565b9150613ffa82613f93565b604082019050919050565b6000602082019050818103600083015261401e81613fe2565b9050919050565b7f6d73672e73656e64657220646f65736e2774206861766520656e6f756768206660008201527f72616e63696f6e616c2062616c616e6365000000000000000000000000000000602082015250565b6000614081603183612edb565b915061408c82614025565b604082019050919050565b600060208201905081810360008301526140b081614074565b9050919050565b7f4f776e61626c653a206e6577206f776e657220697320746865207a65726f206160008201527f6464726573730000000000000000000000000000000000000000000000000000602082015250565b6000614113602683612edb565b915061411e826140b7565b604082019050919050565b6000602082019050818103600083015261414281614106565b9050919050565b7f4552433732313a2063616c6c6572206973206e6f7420746f6b656e206f776e6560008201527f72206f7220617070726f76656400000000000000000000000000000000000000602082015250565b60006141a5602d83612edb565b91506141b082614149565b604082019050919050565b600060208201905081810360008301526141d481614198565b9050919050565b7f4f776e61626c653a2063616c6c6572206973206e6f7420746865206f776e6572600082015250565b6000614211602083612edb565b915061421c826141db565b602082019050919050565b6000602082019050818103600083015261424081614204565b9050919050565b7f4552433732313a206d696e7420746f20746865207a65726f2061646472657373600082015250565b600061427d602083612edb565b915061428882614247565b602082019050919050565b600060208201905081810360008301526142ac81614270565b9050919050565b7f4552433732313a20746f6b656e20616c7265616479206d696e74656400000000600082015250565b60006142e9601c83612edb565b91506142f4826142b3565b602082019050919050565b60006020820190508181036000830152614318816142dc565b9050919050565b7f4552433732313a20617070726f766520746f2063616c6c657200000000000000600082015250565b6000614355601983612edb565b91506143608261431f565b602082019050919050565b6000602082019050818103600083015261438481614348565b9050919050565b7f4552433732313a207472616e736665722063616c6c6572206973206e6f74206f60008201527f776e6572206e6f7220617070726f766564000000000000000000000000000000602082015250565b60006143e7603183612edb565b91506143f28261438b565b604082019050919050565b60006020820190508181036000830152614416816143da565b9050919050565b6144268161351e565b82525050565b6000602082019050614441600083018461441d565b92915050565b7f4552433732313a207472616e7366657220746f206e6f6e20455243373231526560008201527f63656976657220696d706c656d656e7465720000000000000000000000000000602082015250565b60006144a3603283612edb565b91506144ae82614447565b604082019050919050565b600060208201905081810360008301526144d281614496565b9050919050565b60006144e482612f82565b91506144ef83612f82565b925082820390508181111561450757614506613dac565b5b92915050565b7f4e487b7100000000000000000000000000000000000000000000000000000000600052601260045260246000fd5b600081519050919050565b600082825260208201905092915050565b60006145638261453c565b61456d8185614547565b935061457d818560208601612eec565b61458681612f16565b840191505092915050565b60006080820190506145a66000830187613017565b6145b36020830186613017565b6145c06040830185613363565b81810360608301526145d28184614558565b905095945050505050565b6000815190506145ec81612e41565b92915050565b60006020828403121561460857614607612e0b565b5b6000614616848285016145dd565b9150509291505056fea264697066735822122055fc621b46dee45457c7136b2dc29f2cd7d436b6e026a1a6fd2d2b73d531e32b64736f6c63430008110033",
  "linkReferences": {},
  "deployedLinkReferences": {}
}