{
  "_format": "hh-sol-artifact-1",
  "contractName": "LibreNFT721",
  "sourceName": "contracts/LibreNFT721.sol",
  "abi": [
    {
      "inputs": [
        {
          "internalType": "string",
          "name": "_name",
          "type": "string"
        },
        {
          "internalType": "string",
          "name": "_symbol",
          "type": "string"
        },
        {
          "internalType": "string",
          "name": "_collectionUri",
          "type": "string"
        },
        {
          "internalType": "string",
          "name": "_tokenUri",
          "type": "string"
        },
        {
          "components": [
            {
              "internalType": "bool",
              "name": "_unlockable",
              "type": "bool"
            },
            {
              "internalType": "bool",
              "name": "_transferable",
              "type": "bool"
            },
            {
              "internalType": "bool",
              "name": "_rentable",
              "type": "bool"
            },
            {
              "internalType": "uint256",
              "name": "_tokenPrice",
              "type": "uint256"
            },
            {
              "internalType": "uint256",
              "name": "_fractions",
              "type": "uint256"
            },
            {
              "internalType": "address",
              "name": "_paymentToken",
              "type": "address"
            },
            {
              "internalType": "bytes32",
              "name": "_whitelist",
              "type": "bytes32"
            },
            {
              "internalType": "bool",
              "name": "_isOnSale",
              "type": "bool"
            },
            {
              "internalType": "bool",
              "name": "_isTFUnlockable",
              "type": "bool"
            }
          ],
          "internalType": "struct LibreNFTProps",
          "name": "_props",
          "type": "tuple"
        }
      ],
      "stateMutability": "nonpayable",
      "type": "constructor"
    },
    {
      "anonymous": false,
      "inputs": [
        {
          "indexed": true,
          "internalType": "address",
          "name": "owner",
          "type": "address"
        },
        {
          "indexed": true,
          "internalType": "address",
          "name": "approved",
          "type": "address"
        },
        {
          "indexed": true,
          "internalType": "uint256",
          "name": "tokenId",
          "type": "uint256"
        }
      ],
      "name": "Approval",
      "type": "event"
    },
    {
      "anonymous": false,
      "inputs": [
        {
          "indexed": true,
          "internalType": "address",
          "name": "owner",
          "type": "address"
        },
        {
          "indexed": true,
          "internalType": "address",
          "name": "operator",
          "type": "address"
        },
        {
          "indexed": false,
          "internalType": "bool",
          "name": "approved",
          "type": "bool"
        }
      ],
      "name": "ApprovalForAll",
      "type": "event"
    },
    {
      "anonymous": false,
      "inputs": [
        {
          "indexed": true,
          "internalType": "address",
          "name": "previousOwner",
          "type": "address"
        },
        {
          "indexed": true,
          "internalType": "address",
          "name": "newOwner",
          "type": "address"
        }
      ],
      "name": "OwnershipTransferred",
      "type": "event"
    },
    {
      "anonymous": false,
      "inputs": [
        {
          "indexed": true,
          "internalType": "address",
          "name": "from",
          "type": "address"
        },
        {
          "indexed": true,
          "internalType": "address",
          "name": "to",
          "type": "address"
        },
        {
          "indexed": true,
          "internalType": "uint256",
          "name": "tokenId",
          "type": "uint256"
        }
      ],
      "name": "Transfer",
      "type": "event"
    },
    {
      "anonymous": false,
      "inputs": [
        {
          "indexed": true,
          "internalType": "uint256",
          "name": "tokenId",
          "type": "uint256"
        },
        {
          "indexed": true,
          "internalType": "address",
          "name": "user",
          "type": "address"
        },
        {
          "indexed": false,
          "internalType": "uint64",
          "name": "expires",
          "type": "uint64"
        }
      ],
      "name": "UpdateUser",
      "type": "event"
    },
    {
      "inputs": [
        {
          "internalType": "string",
          "name": "_uri",
          "type": "string"
        },
        {
          "components": [
            {
              "internalType": "bool",
              "name": "_unlockable",
              "type": "bool"
            },
            {
              "internalType": "bool",
              "name": "_transferable",
              "type": "bool"
            },
            {
              "internalType": "bool",
              "name": "_rentable",
              "type": "bool"
            },
            {
              "internalType": "uint256",
              "name": "_tokenPrice",
              "type": "uint256"
            },
            {
              "internalType": "uint256",
              "name": "_fractions",
              "type": "uint256"
            },
            {
              "internalType": "address",
              "name": "_paymentToken",
              "type": "address"
            },
            {
              "internalType": "bytes32",
              "name": "_whitelist",
              "type": "bytes32"
            },
            {
              "internalType": "bool",
              "name": "_isOnSale",
              "type": "bool"
            },
            {
              "internalType": "bool",
              "name": "_isTFUnlockable",
              "type": "bool"
            }
          ],
          "internalType": "struct LibreNFTProps",
          "name": "_props",
          "type": "tuple"
        }
      ],
      "name": "addInventory",
      "outputs": [
        {
          "internalType": "uint256",
          "name": "",
          "type": "uint256"
        }
      ],
      "stateMutability": "nonpayable",
      "type": "function"
    },
    {
      "inputs": [
        {
          "internalType": "address",
          "name": "to",
          "type": "address"
        },
        {
          "internalType": "uint256",
          "name": "tokenId",
          "type": "uint256"
        }
      ],
      "name": "approve",
      "outputs": [],
      "stateMutability": "nonpayable",
      "type": "function"
    },
    {
      "inputs": [],
      "name": "availableToWithdraw",
      "outputs": [
        {
          "internalType": "uint256",
          "name": "",
          "type": "uint256"
        }
      ],
      "stateMutability": "view",
      "type": "function"
    },
    {
      "inputs": [
        {
          "internalType": "address",
          "name": "owner",
          "type": "address"
        }
      ],
      "name": "balanceOf",
      "outputs": [
        {
          "internalType": "uint256",
          "name": "",
          "type": "uint256"
        }
      ],
      "stateMutability": "view",
      "type": "function"
    },
    {
      "inputs": [
        {
          "internalType": "uint256",
          "name": "_tokenId",
          "type": "uint256"
        }
      ],
      "name": "cancelRents",
      "outputs": [],
      "stateMutability": "nonpayable",
      "type": "function"
    },
    {
      "inputs": [
        {
          "internalType": "address",
          "name": "_user",
          "type": "address"
        },
        {
          "internalType": "uint256",
          "name": "_tokenId",
          "type": "uint256"
        }
      ],
      "name": "fractionsOf",
      "outputs": [
        {
          "internalType": "uint256",
          "name": "",
          "type": "uint256"
        }
      ],
      "stateMutability": "view",
      "type": "function"
    },
    {
      "inputs": [
        {
          "internalType": "uint256",
          "name": "tokenId",
          "type": "uint256"
        }
      ],
      "name": "getApproved",
      "outputs": [
        {
          "internalType": "address",
          "name": "",
          "type": "address"
        }
      ],
      "stateMutability": "view",
      "type": "function"
    },
    {
      "inputs": [],
      "name": "getCounter",
      "outputs": [
        {
          "internalType": "uint256",
          "name": "",
          "type": "uint256"
        }
      ],
      "stateMutability": "view",
      "type": "function"
    },
    {
      "inputs": [
        {
          "internalType": "uint256",
          "name": "_tokenId",
          "type": "uint256"
        }
      ],
      "name": "getTimeFramedUnlockable",
      "outputs": [
        {
          "internalType": "bool",
          "name": "_isTFUnlockable",
          "type": "bool"
        },
        {
          "internalType": "uint256",
          "name": "timeframeFrom",
          "type": "uint256"
        },
        {
          "internalType": "uint256",
          "name": "timeframeTo",
          "type": "uint256"
        }
      ],
      "stateMutability": "view",
      "type": "function"
    },
    {
      "inputs": [
        {
          "internalType": "uint256",
          "name": "_tokenId",
          "type": "uint256"
        }
      ],
      "name": "getTokenProps",
      "outputs": [
        {
          "components": [
            {
              "internalType": "bool",
              "name": "_unlockable",
              "type": "bool"
            },
            {
              "internalType": "bool",
              "name": "_transferable",
              "type": "bool"
            },
            {
              "internalType": "bool",
              "name": "_rentable",
              "type": "bool"
            },
            {
              "internalType": "uint256",
              "name": "_tokenPrice",
              "type": "uint256"
            },
            {
              "internalType": "uint256",
              "name": "_fractions",
              "type": "uint256"
            },
            {
              "internalType": "address",
              "name": "_paymentToken",
              "type": "address"
            },
            {
              "internalType": "bytes32",
              "name": "_whitelist",
              "type": "bytes32"
            },
            {
              "internalType": "bool",
              "name": "_isOnSale",
              "type": "bool"
            },
            {
              "internalType": "bool",
              "name": "_isTFUnlockable",
              "type": "bool"
            }
          ],
          "internalType": "struct LibreNFTProps",
          "name": "",
          "type": "tuple"
        }
      ],
      "stateMutability": "view",
      "type": "function"
    },
    {
      "inputs": [
        {
          "internalType": "address",
          "name": "owner",
          "type": "address"
        },
        {
          "internalType": "address",
          "name": "operator",
          "type": "address"
        }
      ],
      "name": "isApprovedForAll",
      "outputs": [
        {
          "internalType": "bool",
          "name": "",
          "type": "bool"
        }
      ],
      "stateMutability": "view",
      "type": "function"
    },
    {
      "inputs": [
        {
          "internalType": "uint256",
          "name": "_tokenId",
          "type": "uint256"
        }
      ],
      "name": "isForRent",
      "outputs": [
        {
          "internalType": "bool",
          "name": "",
          "type": "bool"
        }
      ],
      "stateMutability": "view",
      "type": "function"
    },
    {
      "inputs": [
        {
          "internalType": "uint256",
          "name": "_tokenId",
          "type": "uint256"
        },
        {
          "internalType": "bytes32[]",
          "name": "_merkleProof",
          "type": "bytes32[]"
        }
      ],
      "name": "mint",
      "outputs": [],
      "stateMutability": "payable",
      "type": "function"
    },
    {
      "inputs": [
        {
          "internalType": "uint256",
          "name": "_tokenId",
          "type": "uint256"
        },
        {
          "internalType": "address",
          "name": "_to",
          "type": "address"
        },
        {
          "internalType": "bytes32[]",
          "name": "_merkleProof",
          "type": "bytes32[]"
        }
      ],
      "name": "mintTo",
      "outputs": [],
      "stateMutability": "payable",
      "type": "function"
    },
    {
      "inputs": [],
      "name": "name",
      "outputs": [
        {
          "internalType": "string",
          "name": "",
          "type": "string"
        }
      ],
      "stateMutability": "view",
      "type": "function"
    },
    {
      "inputs": [],
      "name": "owner",
      "outputs": [
        {
          "internalType": "address",
          "name": "",
          "type": "address"
        }
      ],
      "stateMutability": "view",
      "type": "function"
    },
    {
      "inputs": [
        {
          "internalType": "uint256",
          "name": "tokenId",
          "type": "uint256"
        }
      ],
      "name": "ownerOf",
      "outputs": [
        {
          "internalType": "address",
          "name": "",
          "type": "address"
        }
      ],
      "stateMutability": "view",
      "type": "function"
    },
    {
      "inputs": [],
      "name": "renounceOwnership",
      "outputs": [],
      "stateMutability": "nonpayable",
      "type": "function"
    },
    {
      "inputs": [
        {
          "internalType": "uint256",
          "name": "_tokenId",
          "type": "uint256"
        },
        {
          "internalType": "uint64",
          "name": "_untilTime",
          "type": "uint64"
        }
      ],
      "name": "rent",
      "outputs": [],
      "stateMutability": "payable",
      "type": "function"
    },
    {
      "inputs": [
        {
          "internalType": "uint256",
          "name": "_tokenId",
          "type": "uint256"
        }
      ],
      "name": "rentPricePerDay",
      "outputs": [
        {
          "internalType": "uint256",
          "name": "",
          "type": "uint256"
        }
      ],
      "stateMutability": "view",
      "type": "function"
    },
    {
      "inputs": [
        {
          "internalType": "address",
          "name": "_from",
          "type": "address"
        },
        {
          "internalType": "address",
          "name": "_to",
          "type": "address"
        },
        {
          "internalType": "uint256",
          "name": "_tokenId",
          "type": "uint256"
        }
      ],
      "name": "safeTransferFrom",
      "outputs": [],
      "stateMutability": "nonpayable",
      "type": "function"
    },
    {
      "inputs": [
        {
          "internalType": "address",
          "name": "_from",
          "type": "address"
        },
        {
          "internalType": "address",
          "name": "_to",
          "type": "address"
        },
        {
          "internalType": "uint256",
          "name": "_tokenId",
          "type": "uint256"
        },
        {
          "internalType": "bytes",
          "name": "data",
          "type": "bytes"
        }
      ],
      "name": "safeTransferFrom",
      "outputs": [],
      "stateMutability": "nonpayable",
      "type": "function"
    },
    {
      "inputs": [
        {
          "internalType": "address",
          "name": "operator",
          "type": "address"
        },
        {
          "internalType": "bool",
          "name": "approved",
          "type": "bool"
        }
      ],
      "name": "setApprovalForAll",
      "outputs": [],
      "stateMutability": "nonpayable",
      "type": "function"
    },
    {
      "inputs": [
        {
          "internalType": "uint256",
          "name": "_tokenId",
          "type": "uint256"
        },
        {
          "internalType": "uint256",
          "name": "_pricePerDay",
          "type": "uint256"
        },
        {
          "internalType": "uint256",
          "name": "_untilTime",
          "type": "uint256"
        }
      ],
      "name": "setForRent",
      "outputs": [],
      "stateMutability": "nonpayable",
      "type": "function"
    },
    {
      "inputs": [
        {
          "internalType": "uint256",
          "name": "_tokenId",
          "type": "uint256"
        },
        {
          "internalType": "bool",
          "name": "_onSale",
          "type": "bool"
        }
      ],
      "name": "setOnSale",
      "outputs": [],
      "stateMutability": "nonpayable",
      "type": "function"
    },
    {
      "inputs": [
        {
          "internalType": "uint256",
          "name": "_tokenId",
          "type": "uint256"
        },
        {
          "internalType": "uint256",
          "name": "_tokenPrice",
          "type": "uint256"
        }
      ],
      "name": "setPrice",
      "outputs": [],
      "stateMutability": "nonpayable",
      "type": "function"
    },
    {
      "inputs": [
        {
          "internalType": "uint256",
          "name": "_tokenId",
          "type": "uint256"
        },
        {
          "internalType": "uint256",
          "name": "_fractionPrice",
          "type": "uint256"
        }
      ],
      "name": "setPricePerFraction",
      "outputs": [],
      "stateMutability": "nonpayable",
      "type": "function"
    },
    {
      "inputs": [
        {
          "internalType": "uint256",
          "name": "_tokenId",
          "type": "uint256"
        },
        {
          "internalType": "uint256",
          "name": "_pricePerDay",
          "type": "uint256"
        }
      ],
      "name": "setRentPricePerDay",
      "outputs": [],
      "stateMutability": "nonpayable",
      "type": "function"
    },
    {
      "inputs": [
        {
          "internalType": "uint256",
          "name": "_tokenId",
          "type": "uint256"
        },
        {
          "internalType": "bool",
          "name": "_isTFUnlockable",
          "type": "bool"
        },
        {
          "internalType": "uint256",
          "name": "_timeframeFrom",
          "type": "uint256"
        },
        {
          "internalType": "uint256",
          "name": "_timeframeTo",
          "type": "uint256"
        }
      ],
      "name": "setTimeFramedUnlockable",
      "outputs": [],
      "stateMutability": "nonpayable",
      "type": "function"
    },
    {
      "inputs": [
        {
          "internalType": "uint256",
          "name": "tokenId",
          "type": "uint256"
        },
        {
          "internalType": "address",
          "name": "user",
          "type": "address"
        },
        {
          "internalType": "uint64",
          "name": "expires",
          "type": "uint64"
        }
      ],
      "name": "setUser",
      "outputs": [],
      "stateMutability": "nonpayable",
      "type": "function"
    },
    {
      "inputs": [
        {
          "internalType": "uint256",
          "name": "_tokenId",
          "type": "uint256"
        },
        {
          "internalType": "bytes32",
          "name": "_whitelist",
          "type": "bytes32"
        }
      ],
      "name": "setWhitelist",
      "outputs": [],
      "stateMutability": "nonpayable",
      "type": "function"
    },
    {
      "inputs": [
        {
          "internalType": "bytes4",
          "name": "interfaceId",
          "type": "bytes4"
        }
      ],
      "name": "supportsInterface",
      "outputs": [
        {
          "internalType": "bool",
          "name": "",
          "type": "bool"
        }
      ],
      "stateMutability": "view",
      "type": "function"
    },
    {
      "inputs": [],
      "name": "symbol",
      "outputs": [
        {
          "internalType": "string",
          "name": "",
          "type": "string"
        }
      ],
      "stateMutability": "view",
      "type": "function"
    },
    {
      "inputs": [
        {
          "internalType": "uint256",
          "name": "tokenId",
          "type": "uint256"
        }
      ],
      "name": "tokenURI",
      "outputs": [
        {
          "internalType": "string",
          "name": "",
          "type": "string"
        }
      ],
      "stateMutability": "view",
      "type": "function"
    },
    {
      "inputs": [
        {
          "internalType": "uint256",
          "name": "_tokenId",
          "type": "uint256"
        }
      ],
      "name": "totalFractionsOf",
      "outputs": [
        {
          "internalType": "uint256",
          "name": "",
          "type": "uint256"
        }
      ],
      "stateMutability": "view",
      "type": "function"
    },
    {
      "inputs": [
        {
          "internalType": "address",
          "name": "_recipient",
          "type": "address"
        },
        {
          "internalType": "uint256",
          "name": "_tokenId",
          "type": "uint256"
        },
        {
          "internalType": "uint256",
          "name": "_amount",
          "type": "uint256"
        }
      ],
      "name": "transferFractions",
      "outputs": [],
      "stateMutability": "nonpayable",
      "type": "function"
    },
    {
      "inputs": [
        {
          "internalType": "address",
          "name": "_from",
          "type": "address"
        },
        {
          "internalType": "address",
          "name": "_to",
          "type": "address"
        },
        {
          "internalType": "uint256",
          "name": "_tokenId",
          "type": "uint256"
        }
      ],
      "name": "transferFrom",
      "outputs": [],
      "stateMutability": "nonpayable",
      "type": "function"
    },
    {
      "inputs": [
        {
          "internalType": "address",
          "name": "newOwner",
          "type": "address"
        }
      ],
      "name": "transferOwnership",
      "outputs": [],
      "stateMutability": "nonpayable",
      "type": "function"
    },
    {
      "inputs": [
        {
          "internalType": "uint256",
          "name": "tokenId",
          "type": "uint256"
        }
      ],
      "name": "userExpires",
      "outputs": [
        {
          "internalType": "uint256",
          "name": "",
          "type": "uint256"
        }
      ],
      "stateMutability": "view",
      "type": "function"
    },
    {
      "inputs": [
        {
          "internalType": "uint256",
          "name": "tokenId",
          "type": "uint256"
        }
      ],
      "name": "userOf",
      "outputs": [
        {
          "internalType": "address",
          "name": "",
          "type": "address"
        }
      ],
      "stateMutability": "view",
      "type": "function"
    },
    {
      "inputs": [],
      "name": "version",
      "outputs": [
        {
          "internalType": "uint256",
          "name": "",
          "type": "uint256"
        }
      ],
      "stateMutability": "pure",
      "type": "function"
    },
    {
      "inputs": [],
      "name": "withdraw",
      "outputs": [],
      "stateMutability": "nonpayable",
      "type": "function"
    },
    {
      "inputs": [
        {
          "internalType": "address",
          "name": "_tokenAddress",
          "type": "address"
        }
      ],
      "name": "withdrawToken",
      "outputs": [],
      "stateMutability": "nonpayable",
      "type": "function"
    }
  ],
  "bytecode": "0x6080604052346200084b5762003795803803806200001d8162000850565b9283398101818103916101a083126200084b5780516001600160401b0381116200084b57826200004f91830162000876565b60208201519093906001600160401b0381116200084b57836200007491840162000876565b60408301519094906001600160401b0381116200084b57846200009991850162000876565b606084015190946001600160401b0382116200084b57620000bc91850162000876565b926101208093607f1901126200084b57604051928084016001600160401b038111858210176200056957604052620000f760808301620008e8565b84526200010760a08301620008e8565b60208501526200011a60c08301620008e8565b604085015260e0820151606085015261010082015160808501528101516001600160a01b03811681036200084b576200017c916101809160a086015261014081015160c0860152620001706101608201620008e8565b60e086015201620008e8565b6101008301528051906001600160401b038211620005695760005490600182811c9216801562000840575b6020831014620005485781601f849311620007e0575b50602090601f8311600114620007645760009262000758575b50508160011b916000199060031b1c1916176000555b83516001600160401b0381116200056957600154600181811c911680156200074d575b60208210146200054857601f8111620006e7575b506020601f8211600114620006775781929394956000926200066b575b50508160011b916000199060031b1c1916176001555b82516001600160401b0381116200056957600854600181811c9116801562000660575b60208210146200054857601f8111620005fa575b506020601f82116001146200058b57819293946000926200057f575b50508160011b916000199060031b1c1916176008555b600a8054336001600160a01b0319821681179092556001600160a01b03167f8be0079c531659141344cd1fd0a4f28419497f9722a3daafe3b4186f6b6457e0600080a3600b5460028101600b556001810160005260096020526040600020835160018060401b03811162000569578154600181811c911680156200055e575b60208210146200054857601f8111620004ff575b506020601f821160011462000483579181610100959492620003af94620004679860009262000477575b50508160011b916000199060031b1c19161790555b6001602084015115159101600052600c6020526040600020620008f6565b620003ca6040820151151560176020526040600020620008f6565b6080810151600f602052604060002055620003f28151151560106020526040600020620008f6565b6060810151601460205260406000205560018060a01b0360a082015116601360205260406000209060018060a01b031982541617905560c081015160166020526040600020556200045360e08201511515600d6020526040600020620008f6565b01511515601c6020526040600020620008f6565b604051612e6d9081620009088239f35b0151905038806200037c565b8260005260206000209560005b601f1984168110620004e65750826200046797620003af9593600193610100999896601f19811610620004cc575b505050811b01905562000391565b015160001960f88460031b161c19169055388080620004be565b8282015188556001909701966020928301920162000490565b826000526020600020601f830160051c81016020841062000540575b601f830160051c820181106200053357505062000352565b600081556001016200051b565b50806200051b565b634e487b7160e01b600052602260045260246000fd5b90607f16906200033e565b634e487b7160e01b600052604160045260246000fd5b015190503880620002a9565b600860005260206000209060005b601f1984168110620005e15750600193949583601f19811610620005c7575b505050811b01600855620002bf565b015160001960f88460031b161c19169055388080620005b8565b9091602060018192858a01518155019301910162000599565b60086000527ff3f7a9fe364faab93b216da50a3214154f22a0a2b415b23a84c8169e8b636ee3601f830160051c81016020841062000658575b601f830160051c820181106200064b5750506200028d565b6000815560010162000633565b508062000633565b90607f169062000279565b01519050388062000240565b600160005260206000209060005b601f1984168110620006ce575060019394959683601f19811610620006b4575b505050811b0160015562000256565b015160001960f88460031b161c19169055388080620006a5565b9091602060018192858b01518155019301910162000685565b60016000527fb10e2d527612073b26eecdfd717e6a320cf44b4afac2b0732d9fcbe2b7fa0cf6601f830160051c81016020841062000745575b601f830160051c820181106200073857505062000223565b6000815560010162000720565b508062000720565b90607f16906200020f565b015190503880620001d6565b600080805293506000805160206200377583398151915291905b601f1984168510620007c4576001945083601f19811610620007aa575b505050811b01600055620001ec565b015160001960f88460031b161c191690553880806200079b565b818101518355602094850194600190930192909101906200077e565b6000805290915060008051602062003775833981519152601f840160051c81016020851062000838575b90849392915b601f830160051c8201811062000828575050620001bd565b6000815585945060010162000810565b50806200080a565b91607f1691620001a7565b600080fd5b6040519190601f01601f191682016001600160401b038111838210176200056957604052565b919080601f840112156200084b5782516001600160401b0381116200056957602090620008ac601f8201601f1916830162000850565b928184528282870101116200084b5760005b818110620008d457508260009394955001015290565b8581018301518482018401528201620008be565b519081151582036200084b57565b9060ff80198354169115151617905556fe608080604052600436101561001357600080fd5b60003560e01c90816301ffc9a714611d385750806306fdde0314611c95578063081812fc14611c77578063095ea7b314611afd57806323b872dd14611aac57806326b489c51461186b5780632e971832146118275780632ed2d429146116a65780633ccfd60b1461165957806342842e0e146115e85780634d0a2c241461159e57806354fd4d50146115825780636352211e14611564578063659b26ef146114a05780636c2f88fb1461147457806370a08231146113dd578063715018a614611392578063894760691461130b5780638ada066e146112ed5780638da5cb5b146112c45780638fc88c481461128d578063910bbe4f146112615780639139989214610f5057806395d89b4114610e9f578063a22c369714610e6e578063a22cb46514610da6578063b2596acd14610c5a578063b88d4fde14610bb1578063ba41b0c61461098c578063bd52c97f146108e0578063c1844f3614610898578063c2f1f14a14610868578063c87b56dd14610831578063e030565e14610740578063e322ad2b14610716578063e49ed292146105b9578063e985e9c514610563578063f2fde38b146104b2578063f4b3523614610343578063f7d97577146102fe578063f9bc27c5146102bc578063faee5bee1461024f5763fc681a02146101f857600080fd5b3461024a57602036600319011261024a57600435600052601c602052606060ff60406000205416601a602052604060002054601b60205260406000205490604051921515835260208301526040820152f35b600080fd5b3461024a5761025d36611f6c565b90610266611f82565b61027c600b5482106102766125fc565b906125cc565b61028f610287612593565b8315156125cc565b8060005260186020526102a960ff60406000205416612d73565b6000526019602052604060002055600080f35b3461024a57604036600319011261024a576004356102d8611f82565b6102e8600b5482106102766125fc565b6000526016602052602435604060002055600080f35b3461024a5761030c36611f6c565b90610315611f82565b610320610287612593565b610330600b5482106102766125fc565b6000526014602052604060002055600080f35b3461024a5760208060031936011261024a57610431610120916040519061036982611ea5565b60008252600081830152600060408301526000606083015260006080830152600060a0830152600060c0830152600060e08301526000610100809301526004356000526010815260ff6040600020541690600c815260ff60406000205416906017815260ff604060002054166014825260406000205490600f83526040600020546013845260018060a01b03928360406000205416926016865260406000205495600d815260ff6040600020541697601c82528a60ff604060002054169a6040519d8e611ea5565b15159c8d81528381019215158352604081019415158552606081019586526080810196875260a0810197885260c08101998a5260e081019a15158b52019915158a526040519b8c52511515908b015251151560408a0152516060890152516080880152511660a08601525160c085015251151560e084015251151590820152f35b3461024a57602036600319011261024a576104cb611e05565b6104d3611f82565b6001600160a01b0390811690811561050f57600a80546001600160a01b03198116841790915516600080516020612df8833981519152600080a3005b60405162461bcd60e51b815260206004820152602660248201527f4f776e61626c653a206e6577206f776e657220697320746865207a65726f206160448201526564647265737360d01b6064820152608490fd5b3461024a57604036600319011261024a5761057c611e05565b610584611e1b565b9060018060a01b03809116600052600560205260406000209116600052602052602060ff604060002054166040519015158152f35b3461024a57606036600319011261024a576105d2611e05565b602435906044359180600052602090600f8252604060002054156106b95780600052600e82526040600020336000528252836040600020541061065a5780600052600e825260406000203360005282526040600020848154039055600052600e815260406000209160018060a01b03166000525261065660406000209182546127cf565b9055005b60405162461bcd60e51b815260048101839052603160248201527f6d73672e73656e64657220646f65736e2774206861766520656e6f756768206660448201527072616e63696f6e616c2062616c616e636560781b6064820152608490fd5b60405162461bcd60e51b815260048101839052602f60248201527f6672616374696f6e616c206f7074696f6e73206e6f7420616c6c6f776564206660448201526e1bdc881d1a1a5cc81d1bdad95b9259608a1b6064820152608490fd5b3461024a57600036600319011261024a573360005260116020526020604060002054604051908152f35b3461024a57606036600319011261024a5760043561075c611e1b565b906044356001600160401b0381169081810361024a5761077c83336124ed565b156107d257600083815260076020908152604090912080546001600160a01b0319166001600160a01b039096169586178155600080516020612dd88339815191529391926107c9916124c4565b604051908152a3005b60405162461bcd60e51b815260206004820152603160248201527f4552433732313a207472616e736665722063616c6c6572206973206e6f74206f6044820152701ddb995c881b9bdc88185c1c1c9bdd9959607a1b6064820152608490fd5b3461024a57602036600319011261024a576108646108506004356120db565b604051918291602083526020830190611de0565b0390f35b3461024a57602036600319011261024a57602061088660043561255b565b6040516001600160a01b039091168152f35b3461024a57604036600319011261024a576108b1611e05565b602435600052600e60205260406000209060018060a01b03166000526020526020604060002054604051908152f35b3461024a576108ee36611f6c565b906108f7611f82565b610907600b5482106102766125fc565b610912610287612593565b80600052600f60205260406000205415610939576000526015602052604060002055600080f35b60405162461bcd60e51b815260206004820152602560248201527f74686520746f6b656e206d7573742068617665206672616374696f6e616c20736044820152647570706c7960d81b6064820152608490fd5b604036600319011261024a576024356004356001600160401b03821161024a576109bd610a40923690600401611e66565b6109d0600b9492945484106102766125fc565b82600052602093601485526109eb6040600020541515612628565b83600052600d8552610a0460ff60406000205416612668565b8360005260168552610a3b60406000205491604051878101903360601b825260148152610a3081611ec1565b5190209336916126b0565b612937565b8015610b9c575b610a5090612706565b60008181526013835260409020546001600160a01b0392908316610ad557610ad3928260005260148252610a8b6040600020543410156127f2565b600a5416600052601181526040600020610aa63482546127cf565b90555b81600052600f815260406000205490600e8152604060002090336000525260406000205533612880565b005b8281610b0a6000956040872054166014835260408720546040519788809481936323b872dd60e01b8352303360048501612764565b03925af1938415610b9057610ad394610b2b91600091610b63575b50612786565b826000526014825260406000205490601383526040600020541660005260128252610b5c60406000209182546127cf565b9055610aa9565b610b839150843d8611610b89575b610b7b8183611ef7565b81019061274c565b86610b25565b503d610b71565b6040513d6000823e3d90fd5b50600081815260168352604090205415610a47565b3461024a57608036600319011261024a57610bca611e05565b610bd2611e1b565b6064359190604435906001600160401b03841161024a573660238501121561024a57610c0b610ad3943690602481600401359101611f35565b92610c39610c1884612021565b6001600160a01b0390610c3090821684831614612992565b831615156129ec565b82600052600c602052610c5560ff604060002054161515612a44565b612ba0565b3461024a57606036600319011261024a57602435600435610c7a81612021565b336001600160a01b0390911603610d635780600052601760205260ff6040600020541615610d2457610cad821515612628565b426044351115610cdf57600052601960205260406000205560186020526040600020600160ff19825416179055600080f35b60405162461bcd60e51b815260206004820152601f60248201527f756e74696c54696d65206d75737420626520696e2074686520667574757265006044820152606490fd5b60405162461bcd60e51b8152602060048201526017602482015276746f6b656e4964206973206e6f742072656e7461626c6560481b6044820152606490fd5b60405162461bcd60e51b815260206004820152601b60248201527a13db9b1e481bdddb995c8818d85b881cd95d08199bdc881c995b9d602a1b6044820152606490fd5b3461024a57604036600319011261024a57610dbf611e05565b610dc7611e96565b6001600160a01b0390911690338214610e2d57336000526005602052604060002082600052602052610dfd8160406000206120ad565b60405190151581527f17307eab39ab6107e8899845ad3d59bd9653f200f220920489ca2b5937696c3160203392a3005b60405162461bcd60e51b815260206004820152601960248201527822a9219b99189d1030b8383937bb32903a379031b0b63632b960391b6044820152606490fd5b3461024a57602036600319011261024a576004356000526018602052602060ff604060002054166040519015158152f35b3461024a57600036600319011261024a5760405160009060018054610ec381612047565b80845290828116908115610f285750600114610eea575b6108648361085081870382611ef7565b92508060005260209283600020916000925b828410610f155750505081019091019061085081610eda565b8054858501870152928501928101610efc565b610864955061085093506020915091849260ff191682840152151560051b8201019350610eda565b3461024a5761014036600319011261024a576004356001600160401b03811161024a573660238201121561024a57610f92903690602481600401359101611f35565b6101208060231936011261024a576040519081016001600160401b0381118282101761124b57604052610fc3611e96565b8152604435801515810361024a576020820152606435801515810361024a576040820152608435606082015260a435608082015260c4356001600160a01b038116810361024a5760a082015260e43560c082015261010435801515810361024a5760e0820152610124351515610124350361024a576101243561010082015261104a611f82565b600b549060018201600b558160005260096020526040600020835160018060401b03811161124b5761107c8254612047565b94601f8611611207575b602095508590601f83116001146111975791806101009492611184969460009261118c575b50508160011b916000199060031b1c19161790555b6110db85820151151585600052600c875260406000206120ad565b6110f3604082015115156017875260406000206120ad565b6080810151600f8652604060002055611117815115156010875260406000206120ad565b60608101516014865260406000205560018060a01b0360a0820151166013865260406000209060018060a01b031982541617905560c08101516016865260406000205561117260e08201511515600d875260406000206120ad565b01511515601c845260406000206120ad565b604051908152f35b0151905088806110ab565b9083600052866000209160005b601f19851681106111f05750926101009492600192611184979583601f198116106111d7575b505050811b0190556110c0565b015160001960f88460031b161c191690558880806111ca565b9192886001819286850151815501940192016111a4565b826000526020600020601f830160051c810160208410611244575b601f880160051c82018110611238575050611086565b60008155600101611222565b5080611222565b634e487b7160e01b600052604160045260246000fd5b3461024a57602036600319011261024a57600435600052600f6020526020604060002054604051908152f35b3461024a57602036600319011261024a576004356000526007602052602060018060401b0360406000205460a01c16604051908152f35b3461024a57600036600319011261024a57600a546040516001600160a01b039091168152602090f35b3461024a57600036600319011261024a576020600b54604051908152f35b3461024a57602036600319011261024a5760006020611328611e05565b611330611f82565b6001600160a01b0316808352601282526040808420805490859055905163a9059cbb60e01b8152336004820152602481019190915292839160449183915af18015610b905761137b57005b610ad39060203d8111610b8957610b7b8183611ef7565b3461024a57600036600319011261024a576113ab611f82565b600a80546001600160a01b031981169091556000906001600160a01b0316600080516020612df88339815191528280a3005b3461024a57602036600319011261024a576001600160a01b036113fe611e05565b16801561141d5760005260036020526020604060002054604051908152f35b60405162461bcd60e51b815260206004820152602960248201527f4552433732313a2061646472657373207a65726f206973206e6f7420612076616044820152683634b21037bbb732b960b91b6064820152608490fd5b3461024a57602036600319011261024a5760043560005260196020526020604060002054604051908152f35b3461024a57608036600319011261024a576004356114bc611e96565b60643591604435916114cc611f82565b6114dc600b5483106102766125fc565b82841115611515576114fa91600052601c60205260406000206120ad565b601a602052604060002055601b602052604060002055600080f35b60405162461bcd60e51b815260206004820152602160248201527f74696d656672616d65546f206d75737420626520696e207468652066757475726044820152606560f81b6064820152608490fd5b3461024a57602036600319011261024a576020610886600435612021565b3461024a57600036600319011261024a57602060405160018152f35b3461024a57604036600319011261024a57610ad36004356115bd611e96565b906115c6611f82565b6115d6600b5482106102766125fc565b600052600d60205260406000206120ad565b3461024a57610ad36115f936611e31565b9061162761160683612021565b6001600160a01b039061161e90821686831614612992565b821615156129ec565b81600052600c60205261164360ff604060002054161515612a44565b6040519261165084611edc565b60008452612ba0565b3461024a57600036600319011261024a57611672611f82565b3360005260116020526000808080604081205481604081205581811561169d575b3390f115610b9057005b506108fc611693565b604036600319011261024a57602480356001600160401b038116916004359183810361024a5782600052602091601883526116ea60ff604060002054161515612d73565b428511156117e557428503908582116117bc576103e891828102908104831442881417156117d057603c806018920404049085600052601985526040600020548281029281840414901517156117bc578234029234840414341517156117bc57509161176b6117b192600080516020612dd8833981519152959411156127f2565b60018060a01b03600a541660005260118352604060002061178d3482546127cf565b90556000858152600784526040902080546001600160a01b031916331781556124c4565b6040519384523393a3005b634e487b7160e01b60009081526011600452fd5b50634e487b7160e01b60009081526011600452fd5b606490836040519162461bcd60e51b83528160048401528201527f756e74696c2074696d65206d75737420626520696e20746865206675747572656044820152fd5b3461024a57602036600319011261024a57600435611843611f82565b611853600b5482106102766125fc565b6000908152601860205260409020805460ff19169055005b606036600319011261024a57600435611882611e1b565b906044356001600160401b03811161024a576118a2903690600401611e66565b6118b5600b9492945484106102766125fc565b826000526014936020918583526118d26040600020541515612628565b84600052600d83526118eb60ff60406000205416612668565b6001600160a01b039184831615611a72579061192c918660005260168552610a3b60406000205491604051878101903360601b82528b8152610a3081611ec1565b8015611a5d575b61193c90612706565b83600052601382528060406000205416156000146119b657610ad39484600052825261196f6040600020543410156127f2565b600a541660005260118152604060002061198a3482546127cf565b90555b82600052600f815260406000205490600e81526040600020903360005252604060002055612880565b600094826119ea836040892054168383526040892054604051998a809481936323b872dd60e01b8352303360048501612764565b03925af1958615610b9057610ad396611a0a91600091611a405750612786565b84600052825260406000205490601383526040600020541660005260128252611a3960406000209182546127cf565b905561198d565b611a579150853d8711610b8957610b7b8183611ef7565b88610b25565b50600084815260168352604090205415611933565b606484886040519162461bcd60e51b83526004830152602482015273151bc81859191c995cdcc81b9bdd081d985b1a5960621b6044820152fd5b3461024a57610ad3611abd36611e31565b91611aca610c1884612021565b82600052600c602052611ae660ff604060002054161515612a44565b611af8611af384336124ed565b612a8e565b612af0565b3461024a57604036600319011261024a57611b16611e05565b602435906001600160a01b038080611b2d85612021565b16921691808314611c2857803314908115611c03575b5015611b9857600083815260046020526040902080546001600160a01b03191683179055611b7083612021565b167f8c5be1e5ebec7d5bd14f71427d1e84f3dd0314c0f7b2291e5b200ac8c7c3b925600080a4005b60405162461bcd60e51b815260206004820152603d60248201527f4552433732313a20617070726f76652063616c6c6572206973206e6f7420746f60448201527f6b656e206f776e6572206f7220617070726f76656420666f7220616c6c0000006064820152608490fd5b9050600052600560205260406000203360005260205260ff6040600020541684611b43565b60405162461bcd60e51b815260206004820152602160248201527f4552433732313a20617070726f76616c20746f2063757272656e74206f776e656044820152603960f91b6064820152608490fd5b3461024a57602036600319011261024a576020610886600435612081565b3461024a57600036600319011261024a57604051600090600054611cb881612047565b808352600191808316908115610f285750600114611ce0576108648361085081870382611ef7565b600080805260209450917f290decd9548b62a8d60345a988386fc84ba6bc95484008f6362f93160ef3e5635b828410611d255750505081019091019061085081610eda565b8054858501870152928501928101611d0c565b3461024a57602036600319011261024a576004359063ffffffff60e01b821680920361024a57602091632b424ad760e21b8114908115611d7a575b5015158152f35b6380ac58cd60e01b811491508115611dac575b8115611d9b575b5083611d73565b6301ffc9a760e01b14905083611d94565b635b5e139f60e01b81149150611d8d565b60005b838110611dd05750506000910152565b8181015183820152602001611dc0565b90602091611df981518092818552858086019101611dbd565b601f01601f1916010190565b600435906001600160a01b038216820361024a57565b602435906001600160a01b038216820361024a57565b606090600319011261024a576001600160a01b0390600435828116810361024a5791602435908116810361024a579060443590565b9181601f8401121561024a578235916001600160401b03831161024a576020808501948460051b01011161024a57565b60243590811515820361024a57565b61012081019081106001600160401b0382111761124b57604052565b604081019081106001600160401b0382111761124b57604052565b602081019081106001600160401b0382111761124b57604052565b601f909101601f19168101906001600160401b0382119082101761124b57604052565b6001600160401b03811161124b57601f01601f191660200190565b929192611f4182611f1a565b91611f4f6040519384611ef7565b82948184528183011161024a578281602093846000960137010152565b604090600319011261024a576004359060243590565b600a546001600160a01b03163303611f9657565b606460405162461bcd60e51b815260206004820152602060248201527f4f776e61626c653a2063616c6c6572206973206e6f7420746865206f776e65726044820152fd5b15611fe157565b60405162461bcd60e51b8152602060048201526018602482015277115490cdcc8c4e881a5b9d985b1a59081d1bdad95b88125160421b6044820152606490fd5b6000908152600260205260409020546001600160a01b0316612044811515611fda565b90565b90600182811c92168015612077575b602083101461206157565b634e487b7160e01b600052602260045260246000fd5b91607f1691612056565b61209261208d826120be565b611fda565b6000908152600460205260409020546001600160a01b031690565b9060ff801983541691151516179055565b6000908152600260205260409020546001600160a01b0316151590565b6120e761208d826120be565b60009080825260209060068252604092838120918451828454908261210b83612047565b91828252888201976001948a86821691826000146124a6575050600114612468575b5061213a92500383611ef7565b86519184926008549661214c88612047565b918281528981019281868b1697888d8160001461244d575060011461240f575b61217892500382611ef7565b519283156124015780516123de575050505061219661208d846120be565b86519485856121a483612047565b92838352898084019691826000146123c3575050600114612385575b6121cc92500386611ef7565b84511561236e57839290819072184f03e93ff9f4daa797ed6e38ed64bf6a1f0160401b8281811015612361575b508890506904ee2d6d415b85acef8160201b80851015612353575b5050662386f26fc1000080841015612344575b506305f5e10080841015612335575b5061271080841015612326575b506064831015612316575b600a8093101561230d575b9081602186612282838d990161227a61227182611f1a565b9a519a8b611ef7565b808a52611f1a565b888c019990601f1901368b3750870101905b6122d7575b50505050906122cb612044959493926122bc975197889551809288880190611dbd565b84019151809386840190611dbd565b01038084520182611ef7565b600019019083906f181899199a1a9b1b9c1cb0b131b232b360811b8282061a83530491821561230857919082612294565b612299565b80940193612259565b939160646002910492019361224e565b60049195930492019338612243565b60089195930492019338612236565b60109195930492019338612227565b950194909204918738612214565b8a965004925038806121f9565b50505092915050519061238082611edc565b815290565b50506008855285878087208488915b8583106123aa5750506121cc93508201016121c0565b80919294505483858c0101520191018890848993612394565b60ff191687526121cc94151560051b84010191506121c09050565b9450945094506120449695506122cb91506122bc81985198899688880190611dbd565b995050505050505050505090565b505060088952818b808b20888c915b858310612434575050612178935082010161216c565b8091929450548385880101520191018c9088859361241e565b9150506121789260ff198d168752151560051b82010161216c565b915050855282878087208488915b85831061248d57505061213a93508201013861212d565b8091929450548385890101520191018890848693612476565b60ff19168b5261213a95151560051b850101925038915061212d9050565b8054600160a01b600160e01b03191660a09290921b600160a01b600160e01b0316919091179055565b906001600160a01b03808061250184612021565b16931691838314938415612534575b50831561251e575b50505090565b61252a91929350612081565b1614388080612518565b909350600052600560205260406000208260005260205260ff604060002054169238612510565b60009081526007602052604090205460a01c6001600160401b0316421161258e576040600020546001600160a01b031690565b600090565b604051906125a082611ec1565b601f82527f7072696365206d7573742062652067726561746572207468616e207a65726f006020830152565b156125d45750565b60405162461bcd60e51b8152602060048201529081906125f8906024830190611de0565b0390fd5b6040519061260982611ec1565b601082526f125b9d985b1a5908151bdad95b88125960821b6020830152565b1561262f57565b60405162461bcd60e51b81526020600482015260116024820152701c1c9a58d9481b5d5cdd081899481cd95d607a1b6044820152606490fd5b1561266f57565b60405162461bcd60e51b815260206004820152601960248201527874686520746f6b656e206d757374206265206f6e2073616c6560381b6044820152606490fd5b9092916001600160401b03841161124b578360051b60405192602080946126d982850182611ef7565b809781520191810192831161024a57905b8282106126f75750505050565b813581529083019083016126ea565b1561270d57565b60405162461bcd60e51b81526020600482015260176024820152761859191c995cdcc81b9bdd081dda1a5d195b1a5cdd1959604a1b6044820152606490fd5b9081602091031261024a5751801515810361024a5790565b6001600160a01b03918216815291166020820152604081019190915260600190565b1561278d57565b60405162461bcd60e51b815260206004820152601a6024820152791a5b9cdd59999a58da595b9d08115490cc8c081c185e5b595b9d60321b6044820152606490fd5b919082018092116127dc57565b634e487b7160e01b600052601160045260246000fd5b156127f957565b60405162461bcd60e51b81526020600482015260146024820152731a5b9cdd59999a58da595b9d081c185e5b595b9d60621b6044820152606490fd5b1561283c57565b60405162461bcd60e51b815260206004820152601c60248201527b115490cdcc8c4e881d1bdad95b88185b1c9958591e481b5a5b9d195960221b6044820152606490fd5b6001600160a01b031680156128f3576128a161289b836120be565b15612835565b6128ad61289b836120be565b6000818152600360209081526040808320805460010190558483526002909152812080546001600160a01b03191683179055600080516020612e188339815191528180a4565b606460405162461bcd60e51b815260206004820152602060248201527f4552433732313a206d696e7420746f20746865207a65726f20616464726573736044820152fd5b90926000925b8251841015612989576020808560051b8501015191600083821060001461297c57506000525260406000205b9260001981146127dc576001019261293d565b9160409383525220612969565b91509291501490565b1561299957565b60405162461bcd60e51b815260206004820152602560248201527f4552433732313a207472616e736665722066726f6d20696e636f72726563742060448201526437bbb732b960d91b6064820152608490fd5b156129f357565b60405162461bcd60e51b8152602060048201526024808201527f4552433732313a207472616e7366657220746f20746865207a65726f206164646044820152637265737360e01b6064820152608490fd5b15612a4b57565b60405162461bcd60e51b815260206004820152601b60248201527a746f6b656e4964206973206e6f74207472616e7366657261626c6560281b6044820152606490fd5b15612a9557565b60405162461bcd60e51b815260206004820152602d60248201527f4552433732313a2063616c6c6572206973206e6f7420746f6b656e206f776e6560448201526c1c881bdc88185c1c1c9bdd9959609a1b6064820152608490fd5b612b3a612b1d91612b0085612021565b6001600160a01b0394918516938492869290919083168414612992565b1693612b2a8515156129ec565b612b3386612021565b1614612992565b600080516020612e18833981519152600084815260046020526040812060018060a01b03199081815416905583825260036020526040822060001981540190558482526040822060018154019055858252600260205284604083209182541617905580a4565b90612bc4939291612bb4611af384336124ed565b612bbf838383612af0565b612c19565b15612bcb57565b60405162461bcd60e51b81526020600482015260326024820152600080516020612db883398151915260448201527131b2b4bb32b91034b6b83632b6b2b73a32b960711b6064820152608490fd5b9293600093909291803b15612d6857948491612c739660405180948193630a85bd0160e11b9788845233600485015260018060a01b0380921660248501526044840152608060648401528260209b8c976084830190611de0565b0393165af1849181612d24575b50612d13575050503d600014612d0b573d612c9a81611f1a565b90612ca86040519283611ef7565b81528091833d92013e5b80519182612d085760405162461bcd60e51b81526020600482015260326024820152600080516020612db883398151915260448201527131b2b4bb32b91034b6b83632b6b2b73a32b960711b6064820152608490fd5b01fd5b506060612cb2565b6001600160e01b0319161492509050565b9091508581813d8311612d61575b612d3c8183611ef7565b81010312612d5d57516001600160e01b031981168103612d5d579038612c80565b8480fd5b503d612d32565b505050915050600190565b15612d7a57565b60405162461bcd60e51b81526020600482015260156024820152741d1bdad95b881a5cc81b9bdd08199bdc881c995b9d605a1b6044820152606490fdfe4552433732313a207472616e7366657220746f206e6f6e2045524337323152654e06b4e7000e659094299b3533b47b6aa8ad048e95e872d23d1f4ee55af89cfe8be0079c531659141344cd1fd0a4f28419497f9722a3daafe3b4186f6b6457e0ddf252ad1be2c89b69c2b068fc378daa952ba7f163c4a11628f55a4df523b3efa2646970667358221220f73ba55df0064f18944d122fcfc433960993ef745ee51844cd559aaf5e58540d64736f6c63430008110033290decd9548b62a8d60345a988386fc84ba6bc95484008f6362f93160ef3e563",
  "linkReferences": {},
  "deployedLinkReferences": {}
}