{
  "_format": "hh-sol-artifact-1",
  "contractName": "LibreNFT721",
  "sourceName": "contracts/LibreNFT721.sol",
  "abi": [
    {
      "inputs": [
        {
          "internalType": "string",
          "name": "_name",
          "type": "string"
        },
        {
          "internalType": "string",
          "name": "_symbol",
          "type": "string"
        },
        {
          "internalType": "string",
          "name": "_collectionUri",
          "type": "string"
        },
        {
          "internalType": "string",
          "name": "_tokenUri",
          "type": "string"
        },
        {
          "components": [
            {
              "internalType": "bool",
              "name": "_unlockable",
              "type": "bool"
            },
            {
              "internalType": "bool",
              "name": "_transferable",
              "type": "bool"
            },
            {
              "internalType": "uint256",
              "name": "_tokenPrice",
              "type": "uint256"
            },
            {
              "internalType": "uint256",
              "name": "_rentableFrom",
              "type": "uint256"
            },
            {
              "internalType": "uint256",
              "name": "_rentableTo",
              "type": "uint256"
            },
            {
              "internalType": "uint256",
              "name": "_fractions",
              "type": "uint256"
            },
            {
              "internalType": "uint256",
              "name": "_timeframeFrom",
              "type": "uint256"
            },
            {
              "internalType": "uint256",
              "name": "_timeframeTo",
              "type": "uint256"
            },
            {
              "internalType": "enum LibreNFT721.PaymentTokens[]",
              "name": "_paymentTokens",
              "type": "uint8[]"
            },
            {
              "internalType": "bytes32",
              "name": "_whitelist",
              "type": "bytes32"
            }
          ],
          "internalType": "struct LibreNFT721.LibreNFTProps",
          "name": "_props",
          "type": "tuple"
        }
      ],
      "stateMutability": "nonpayable",
      "type": "constructor"
    },
    {
      "anonymous": false,
      "inputs": [
        {
          "indexed": true,
          "internalType": "address",
          "name": "owner",
          "type": "address"
        },
        {
          "indexed": true,
          "internalType": "address",
          "name": "approved",
          "type": "address"
        },
        {
          "indexed": true,
          "internalType": "uint256",
          "name": "tokenId",
          "type": "uint256"
        }
      ],
      "name": "Approval",
      "type": "event"
    },
    {
      "anonymous": false,
      "inputs": [
        {
          "indexed": true,
          "internalType": "address",
          "name": "owner",
          "type": "address"
        },
        {
          "indexed": true,
          "internalType": "address",
          "name": "operator",
          "type": "address"
        },
        {
          "indexed": false,
          "internalType": "bool",
          "name": "approved",
          "type": "bool"
        }
      ],
      "name": "ApprovalForAll",
      "type": "event"
    },
    {
      "anonymous": false,
      "inputs": [
        {
          "indexed": true,
          "internalType": "address",
          "name": "previousOwner",
          "type": "address"
        },
        {
          "indexed": true,
          "internalType": "address",
          "name": "newOwner",
          "type": "address"
        }
      ],
      "name": "OwnershipTransferred",
      "type": "event"
    },
    {
      "anonymous": false,
      "inputs": [
        {
          "indexed": true,
          "internalType": "address",
          "name": "from",
          "type": "address"
        },
        {
          "indexed": true,
          "internalType": "address",
          "name": "to",
          "type": "address"
        },
        {
          "indexed": true,
          "internalType": "uint256",
          "name": "tokenId",
          "type": "uint256"
        }
      ],
      "name": "Transfer",
      "type": "event"
    },
    {
      "anonymous": false,
      "inputs": [
        {
          "indexed": true,
          "internalType": "uint256",
          "name": "tokenId",
          "type": "uint256"
        },
        {
          "indexed": true,
          "internalType": "address",
          "name": "user",
          "type": "address"
        },
        {
          "indexed": false,
          "internalType": "uint64",
          "name": "expires",
          "type": "uint64"
        }
      ],
      "name": "UpdateUser",
      "type": "event"
    },
    {
      "inputs": [
        {
          "internalType": "string",
          "name": "_uri",
          "type": "string"
        },
        {
          "components": [
            {
              "internalType": "bool",
              "name": "_unlockable",
              "type": "bool"
            },
            {
              "internalType": "bool",
              "name": "_transferable",
              "type": "bool"
            },
            {
              "internalType": "uint256",
              "name": "_tokenPrice",
              "type": "uint256"
            },
            {
              "internalType": "uint256",
              "name": "_rentableFrom",
              "type": "uint256"
            },
            {
              "internalType": "uint256",
              "name": "_rentableTo",
              "type": "uint256"
            },
            {
              "internalType": "uint256",
              "name": "_fractions",
              "type": "uint256"
            },
            {
              "internalType": "uint256",
              "name": "_timeframeFrom",
              "type": "uint256"
            },
            {
              "internalType": "uint256",
              "name": "_timeframeTo",
              "type": "uint256"
            },
            {
              "internalType": "enum LibreNFT721.PaymentTokens[]",
              "name": "_paymentTokens",
              "type": "uint8[]"
            },
            {
              "internalType": "bytes32",
              "name": "_whitelist",
              "type": "bytes32"
            }
          ],
          "internalType": "struct LibreNFT721.LibreNFTProps",
          "name": "_props",
          "type": "tuple"
        }
      ],
      "name": "addInventory",
      "outputs": [
        {
          "internalType": "uint256",
          "name": "",
          "type": "uint256"
        }
      ],
      "stateMutability": "nonpayable",
      "type": "function"
    },
    {
      "inputs": [
        {
          "internalType": "address",
          "name": "to",
          "type": "address"
        },
        {
          "internalType": "uint256",
          "name": "tokenId",
          "type": "uint256"
        }
      ],
      "name": "approve",
      "outputs": [],
      "stateMutability": "nonpayable",
      "type": "function"
    },
    {
      "inputs": [],
      "name": "availableToWithdraw",
      "outputs": [
        {
          "internalType": "uint256",
          "name": "",
          "type": "uint256"
        }
      ],
      "stateMutability": "view",
      "type": "function"
    },
    {
      "inputs": [
        {
          "internalType": "address",
          "name": "owner",
          "type": "address"
        }
      ],
      "name": "balanceOf",
      "outputs": [
        {
          "internalType": "uint256",
          "name": "",
          "type": "uint256"
        }
      ],
      "stateMutability": "view",
      "type": "function"
    },
    {
      "inputs": [
        {
          "internalType": "address",
          "name": "_user",
          "type": "address"
        },
        {
          "internalType": "uint256",
          "name": "_tokenId",
          "type": "uint256"
        }
      ],
      "name": "fractionsOf",
      "outputs": [
        {
          "internalType": "uint256",
          "name": "",
          "type": "uint256"
        }
      ],
      "stateMutability": "view",
      "type": "function"
    },
    {
      "inputs": [
        {
          "internalType": "uint256",
          "name": "tokenId",
          "type": "uint256"
        }
      ],
      "name": "getApproved",
      "outputs": [
        {
          "internalType": "address",
          "name": "",
          "type": "address"
        }
      ],
      "stateMutability": "view",
      "type": "function"
    },
    {
      "inputs": [],
      "name": "getCounter",
      "outputs": [
        {
          "internalType": "uint256",
          "name": "",
          "type": "uint256"
        }
      ],
      "stateMutability": "view",
      "type": "function"
    },
    {
      "inputs": [
        {
          "internalType": "uint256",
          "name": "_tokenId",
          "type": "uint256"
        }
      ],
      "name": "getTokenProps",
      "outputs": [
        {
          "components": [
            {
              "internalType": "bool",
              "name": "_unlockable",
              "type": "bool"
            },
            {
              "internalType": "bool",
              "name": "_transferable",
              "type": "bool"
            },
            {
              "internalType": "uint256",
              "name": "_tokenPrice",
              "type": "uint256"
            },
            {
              "internalType": "uint256",
              "name": "_rentableFrom",
              "type": "uint256"
            },
            {
              "internalType": "uint256",
              "name": "_rentableTo",
              "type": "uint256"
            },
            {
              "internalType": "uint256",
              "name": "_fractions",
              "type": "uint256"
            },
            {
              "internalType": "uint256",
              "name": "_timeframeFrom",
              "type": "uint256"
            },
            {
              "internalType": "uint256",
              "name": "_timeframeTo",
              "type": "uint256"
            },
            {
              "internalType": "enum LibreNFT721.PaymentTokens[]",
              "name": "_paymentTokens",
              "type": "uint8[]"
            },
            {
              "internalType": "bytes32",
              "name": "_whitelist",
              "type": "bytes32"
            }
          ],
          "internalType": "struct LibreNFT721.LibreNFTProps",
          "name": "",
          "type": "tuple"
        }
      ],
      "stateMutability": "view",
      "type": "function"
    },
    {
      "inputs": [
        {
          "internalType": "address",
          "name": "owner",
          "type": "address"
        },
        {
          "internalType": "address",
          "name": "operator",
          "type": "address"
        }
      ],
      "name": "isApprovedForAll",
      "outputs": [
        {
          "internalType": "bool",
          "name": "",
          "type": "bool"
        }
      ],
      "stateMutability": "view",
      "type": "function"
    },
    {
      "inputs": [
        {
          "internalType": "uint256",
          "name": "_tokenId",
          "type": "uint256"
        }
      ],
      "name": "isValidateByTimeframe",
      "outputs": [
        {
          "internalType": "bool",
          "name": "",
          "type": "bool"
        }
      ],
      "stateMutability": "view",
      "type": "function"
    },
    {
      "inputs": [
        {
          "internalType": "uint256",
          "name": "_tokenId",
          "type": "uint256"
        },
        {
          "internalType": "bytes32[]",
          "name": "_merkleProof",
          "type": "bytes32[]"
        }
      ],
      "name": "mint",
      "outputs": [],
      "stateMutability": "payable",
      "type": "function"
    },
    {
      "inputs": [],
      "name": "name",
      "outputs": [
        {
          "internalType": "string",
          "name": "",
          "type": "string"
        }
      ],
      "stateMutability": "view",
      "type": "function"
    },
    {
      "inputs": [],
      "name": "owner",
      "outputs": [
        {
          "internalType": "address",
          "name": "",
          "type": "address"
        }
      ],
      "stateMutability": "view",
      "type": "function"
    },
    {
      "inputs": [
        {
          "internalType": "uint256",
          "name": "tokenId",
          "type": "uint256"
        }
      ],
      "name": "ownerOf",
      "outputs": [
        {
          "internalType": "address",
          "name": "",
          "type": "address"
        }
      ],
      "stateMutability": "view",
      "type": "function"
    },
    {
      "inputs": [],
      "name": "renounceOwnership",
      "outputs": [],
      "stateMutability": "nonpayable",
      "type": "function"
    },
    {
      "inputs": [
        {
          "internalType": "address",
          "name": "_from",
          "type": "address"
        },
        {
          "internalType": "address",
          "name": "_to",
          "type": "address"
        },
        {
          "internalType": "uint256",
          "name": "_tokenId",
          "type": "uint256"
        }
      ],
      "name": "safeTransferFrom",
      "outputs": [],
      "stateMutability": "nonpayable",
      "type": "function"
    },
    {
      "inputs": [
        {
          "internalType": "address",
          "name": "_from",
          "type": "address"
        },
        {
          "internalType": "address",
          "name": "_to",
          "type": "address"
        },
        {
          "internalType": "uint256",
          "name": "_tokenId",
          "type": "uint256"
        },
        {
          "internalType": "bytes",
          "name": "data",
          "type": "bytes"
        }
      ],
      "name": "safeTransferFrom",
      "outputs": [],
      "stateMutability": "nonpayable",
      "type": "function"
    },
    {
      "inputs": [
        {
          "internalType": "address",
          "name": "operator",
          "type": "address"
        },
        {
          "internalType": "bool",
          "name": "approved",
          "type": "bool"
        }
      ],
      "name": "setApprovalForAll",
      "outputs": [],
      "stateMutability": "nonpayable",
      "type": "function"
    },
    {
      "inputs": [
        {
          "internalType": "uint256",
          "name": "_tokenId",
          "type": "uint256"
        },
        {
          "internalType": "address",
          "name": "_user",
          "type": "address"
        },
        {
          "internalType": "uint64",
          "name": "_expires",
          "type": "uint64"
        }
      ],
      "name": "setUser",
      "outputs": [],
      "stateMutability": "nonpayable",
      "type": "function"
    },
    {
      "inputs": [
        {
          "internalType": "bytes4",
          "name": "interfaceId",
          "type": "bytes4"
        }
      ],
      "name": "supportsInterface",
      "outputs": [
        {
          "internalType": "bool",
          "name": "",
          "type": "bool"
        }
      ],
      "stateMutability": "view",
      "type": "function"
    },
    {
      "inputs": [],
      "name": "symbol",
      "outputs": [
        {
          "internalType": "string",
          "name": "",
          "type": "string"
        }
      ],
      "stateMutability": "view",
      "type": "function"
    },
    {
      "inputs": [
        {
          "internalType": "uint256",
          "name": "tokenId",
          "type": "uint256"
        }
      ],
      "name": "tokenURI",
      "outputs": [
        {
          "internalType": "string",
          "name": "",
          "type": "string"
        }
      ],
      "stateMutability": "view",
      "type": "function"
    },
    {
      "inputs": [
        {
          "internalType": "uint256",
          "name": "_tokenId",
          "type": "uint256"
        }
      ],
      "name": "totalFractionsOf",
      "outputs": [
        {
          "internalType": "uint256",
          "name": "",
          "type": "uint256"
        }
      ],
      "stateMutability": "view",
      "type": "function"
    },
    {
      "inputs": [
        {
          "internalType": "address",
          "name": "_recipient",
          "type": "address"
        },
        {
          "internalType": "uint256",
          "name": "_tokenId",
          "type": "uint256"
        },
        {
          "internalType": "uint256",
          "name": "_amount",
          "type": "uint256"
        }
      ],
      "name": "transferFractions",
      "outputs": [],
      "stateMutability": "nonpayable",
      "type": "function"
    },
    {
      "inputs": [
        {
          "internalType": "address",
          "name": "_from",
          "type": "address"
        },
        {
          "internalType": "address",
          "name": "_to",
          "type": "address"
        },
        {
          "internalType": "uint256",
          "name": "_tokenId",
          "type": "uint256"
        }
      ],
      "name": "transferFrom",
      "outputs": [],
      "stateMutability": "nonpayable",
      "type": "function"
    },
    {
      "inputs": [
        {
          "internalType": "address",
          "name": "newOwner",
          "type": "address"
        }
      ],
      "name": "transferOwnership",
      "outputs": [],
      "stateMutability": "nonpayable",
      "type": "function"
    },
    {
      "inputs": [
        {
          "internalType": "uint256",
          "name": "tokenId",
          "type": "uint256"
        }
      ],
      "name": "userExpires",
      "outputs": [
        {
          "internalType": "uint256",
          "name": "",
          "type": "uint256"
        }
      ],
      "stateMutability": "view",
      "type": "function"
    },
    {
      "inputs": [
        {
          "internalType": "uint256",
          "name": "tokenId",
          "type": "uint256"
        }
      ],
      "name": "userOf",
      "outputs": [
        {
          "internalType": "address",
          "name": "",
          "type": "address"
        }
      ],
      "stateMutability": "view",
      "type": "function"
    },
    {
      "inputs": [],
      "name": "version",
      "outputs": [
        {
          "internalType": "uint256",
          "name": "",
          "type": "uint256"
        }
      ],
      "stateMutability": "pure",
      "type": "function"
    },
    {
      "inputs": [],
      "name": "withdraw",
      "outputs": [],
      "stateMutability": "nonpayable",
      "type": "function"
    }
  ],
  "bytecode": "0x60806040523480156200001157600080fd5b506040516200612b3803806200612b8339818101604052810190620000379190620009d0565b848484828281600090816200004d919062000d34565b5080600190816200005f919062000d34565b505050806008908162000073919062000d34565b50505050620000976200008b620000cc60201b60201c565b620000d460201b60201c565b620000ae600b6200019a60201b62001e011760201c565b620000c08282620001b060201b60201c565b50505050505062000ecd565b600033905090565b6000600a60009054906101000a900473ffffffffffffffffffffffffffffffffffffffff16905081600a60006101000a81548173ffffffffffffffffffffffffffffffffffffffff021916908373ffffffffffffffffffffffffffffffffffffffff1602179055508173ffffffffffffffffffffffffffffffffffffffff168173ffffffffffffffffffffffffffffffffffffffff167f8be0079c531659141344cd1fd0a4f28419497f9722a3daafe3b4186f6b6457e060405160405180910390a35050565b6001816000016000828254019250508190555050565b6000620001c26200038060201b60201c565b6000620001db600b6200041160201b62001e171760201c565b9050620001f4600b6200019a60201b62001e011760201c565b6200020681856200041f60201b60201c565b8260200151600c600083815260200190815260200160002060006101000a81548160ff0219169083151502179055506040518060400160405280846060015181526020018460800151815250600d600083815260200190815260200160002060008201518160000155602082015181600101559050508260a00151600f60008381526020019081526020016000208190555082600001516010600083815260200190815260200160002060006101000a81548160ff02191690831515021790555060405180604001604052808460c0015181526020018460e00151815250601160008381526020019081526020016000206000820151816000015560208201518160010155905050826040015160126000838152602001908152602001600020819055508261010001516014600083815260200190815260200160002090805190602001906200035892919062000470565b5082610120015160156000838152602001908152602001600020819055508091505092915050565b62000390620000cc60201b60201c565b73ffffffffffffffffffffffffffffffffffffffff16620003b66200044660201b60201c565b73ffffffffffffffffffffffffffffffffffffffff16146200040f576040517f08c379a0000000000000000000000000000000000000000000000000000000008152600401620004069062000e7c565b60405180910390fd5b565b600081600001549050919050565b8060096000848152602001908152602001600020908162000441919062000d34565b505050565b6000600a60009054906101000a900473ffffffffffffffffffffffffffffffffffffffff16905090565b82805482825590600052602060002090601f016020900481019282156200051d5791602002820160005b83821115620004ec57835183826101000a81548160ff02191690836003811115620004ca57620004c962000e9e565b5b021790555092602001926001016020816000010492830192600103026200049a565b80156200051b5782816101000a81549060ff0219169055600101602081600001049283019260010302620004ec565b505b5090506200052c919062000530565b5090565b5b808211156200054b57600081600090555060010162000531565b5090565b6000604051905090565b600080fd5b600080fd5b600080fd5b600080fd5b6000601f19601f8301169050919050565b7f4e487b7100000000000000000000000000000000000000000000000000000000600052604160045260246000fd5b620005b8826200056d565b810181811067ffffffffffffffff82111715620005da57620005d96200057e565b5b80604052505050565b6000620005ef6200054f565b9050620005fd8282620005ad565b919050565b600067ffffffffffffffff82111562000620576200061f6200057e565b5b6200062b826200056d565b9050602081019050919050565b60005b83811015620006585780820151818401526020810190506200063b565b60008484015250505050565b60006200067b620006758462000602565b620005e3565b9050828152602081018484840111156200069a576200069962000568565b5b620006a784828562000638565b509392505050565b600082601f830112620006c757620006c662000563565b5b8151620006d984826020860162000664565b91505092915050565b600080fd5b600080fd5b60008115159050919050565b6200070381620006ec565b81146200070f57600080fd5b50565b6000815190506200072381620006f8565b92915050565b6000819050919050565b6200073e8162000729565b81146200074a57600080fd5b50565b6000815190506200075e8162000733565b92915050565b600067ffffffffffffffff8211156200078257620007816200057e565b5b602082029050602081019050919050565b600080fd5b60048110620007a657600080fd5b50565b600081519050620007ba8162000798565b92915050565b6000620007d7620007d18462000764565b620005e3565b90508083825260208201905060208402830185811115620007fd57620007fc62000793565b5b835b818110156200082a5780620008158882620007a9565b845260208401935050602081019050620007ff565b5050509392505050565b600082601f8301126200084c576200084b62000563565b5b81516200085e848260208601620007c0565b91505092915050565b6000819050919050565b6200087c8162000867565b81146200088857600080fd5b50565b6000815190506200089c8162000871565b92915050565b60006101408284031215620008bc57620008bb620006e2565b5b620008c9610140620005e3565b90506000620008db8482850162000712565b6000830152506020620008f18482850162000712565b602083015250604062000907848285016200074d565b60408301525060606200091d848285016200074d565b606083015250608062000933848285016200074d565b60808301525060a062000949848285016200074d565b60a08301525060c06200095f848285016200074d565b60c08301525060e062000975848285016200074d565b60e08301525061010082015167ffffffffffffffff8111156200099d576200099c620006e7565b5b620009ab8482850162000834565b61010083015250610120620009c3848285016200088b565b6101208301525092915050565b600080600080600060a08688031215620009ef57620009ee62000559565b5b600086015167ffffffffffffffff81111562000a105762000a0f6200055e565b5b62000a1e88828901620006af565b955050602086015167ffffffffffffffff81111562000a425762000a416200055e565b5b62000a5088828901620006af565b945050604086015167ffffffffffffffff81111562000a745762000a736200055e565b5b62000a8288828901620006af565b935050606086015167ffffffffffffffff81111562000aa65762000aa56200055e565b5b62000ab488828901620006af565b925050608086015167ffffffffffffffff81111562000ad85762000ad76200055e565b5b62000ae688828901620008a2565b9150509295509295909350565b600081519050919050565b7f4e487b7100000000000000000000000000000000000000000000000000000000600052602260045260246000fd5b6000600282049050600182168062000b4657607f821691505b60208210810362000b5c5762000b5b62000afe565b5b50919050565b60008190508160005260206000209050919050565b60006020601f8301049050919050565b600082821b905092915050565b60006008830262000bc67fffffffffffffffffffffffffffffffffffffffffffffffffffffffffffffffff8262000b87565b62000bd2868362000b87565b95508019841693508086168417925050509392505050565b6000819050919050565b600062000c1562000c0f62000c098462000729565b62000bea565b62000729565b9050919050565b6000819050919050565b62000c318362000bf4565b62000c4962000c408262000c1c565b84845462000b94565b825550505050565b600090565b62000c6062000c51565b62000c6d81848462000c26565b505050565b5b8181101562000c955762000c8960008262000c56565b60018101905062000c73565b5050565b601f82111562000ce45762000cae8162000b62565b62000cb98462000b77565b8101602085101562000cc9578190505b62000ce162000cd88562000b77565b83018262000c72565b50505b505050565b600082821c905092915050565b600062000d096000198460080262000ce9565b1980831691505092915050565b600062000d24838362000cf6565b9150826002028217905092915050565b62000d3f8262000af3565b67ffffffffffffffff81111562000d5b5762000d5a6200057e565b5b62000d67825462000b2d565b62000d7482828562000c99565b600060209050601f83116001811462000dac576000841562000d97578287015190505b62000da3858262000d16565b86555062000e13565b601f19841662000dbc8662000b62565b60005b8281101562000de65784890151825560018201915060208501945060208101905062000dbf565b8683101562000e06578489015162000e02601f89168262000cf6565b8355505b6001600288020188555050505b505050505050565b600082825260208201905092915050565b7f4f776e61626c653a2063616c6c6572206973206e6f7420746865206f776e6572600082015250565b600062000e6460208362000e1b565b915062000e718262000e2c565b602082019050919050565b6000602082019050818103600083015262000e978162000e55565b9050919050565b7f4e487b7100000000000000000000000000000000000000000000000000000000600052602160045260246000fd5b61524e8062000edd6000396000f3fe6080604052600436106101cd5760003560e01c806395d89b41116100f7578063c87b56dd11610095578063e985e9c511610064578063e985e9c51461069f578063f2fde38b146106dc578063f4b3523614610705578063f9ba021c14610742576101cd565b8063c87b56dd146105e5578063e030565e14610622578063e322ad2b1461064b578063e49ed29214610676576101cd565b8063b88d4fde116100d1578063b88d4fde14610526578063ba41b0c61461054f578063c1844f361461056b578063c2f1f14a146105a8576101cd565b806395d89b4114610495578063a22cb465146104c0578063b564fbfe146104e9576101cd565b806354fd4d501161016f5780638ada066e1161013e5780638ada066e146103c55780638da5cb5b146103f05780638fc88c481461041b578063910bbe4f14610458576101cd565b806354fd4d50146103095780636352211e1461033457806370a0823114610371578063715018a6146103ae576101cd565b8063095ea7b3116101ab578063095ea7b31461027757806323b872dd146102a05780633ccfd60b146102c957806342842e0e146102e0576101cd565b806301ffc9a7146101d257806306fdde031461020f578063081812fc1461023a575b600080fd5b3480156101de57600080fd5b506101f960048036038101906101f491906133f5565b61077f565b604051610206919061343d565b60405180910390f35b34801561021b57600080fd5b506102246107f9565b60405161023191906134e8565b60405180910390f35b34801561024657600080fd5b50610261600480360381019061025c9190613540565b61088b565b60405161026e91906135ae565b60405180910390f35b34801561028357600080fd5b5061029e600480360381019061029991906135f5565b6108d1565b005b3480156102ac57600080fd5b506102c760048036038101906102c29190613635565b6109e8565b005b3480156102d557600080fd5b506102de610b44565b005b3480156102ec57600080fd5b5061030760048036038101906103029190613635565b610c25565b005b34801561031557600080fd5b5061031e610d91565b60405161032b9190613697565b60405180910390f35b34801561034057600080fd5b5061035b60048036038101906103569190613540565b610d9a565b60405161036891906135ae565b60405180910390f35b34801561037d57600080fd5b50610398600480360381019061039391906136b2565b610e20565b6040516103a59190613697565b60405180910390f35b3480156103ba57600080fd5b506103c3610ed7565b005b3480156103d157600080fd5b506103da610eeb565b6040516103e79190613697565b60405180910390f35b3480156103fc57600080fd5b50610405610efc565b60405161041291906135ae565b60405180910390f35b34801561042757600080fd5b50610442600480360381019061043d9190613540565b610f26565b60405161044f9190613697565b60405180910390f35b34801561046457600080fd5b5061047f600480360381019061047a9190613540565b610f64565b60405161048c9190613697565b60405180910390f35b3480156104a157600080fd5b506104aa610f81565b6040516104b791906134e8565b60405180910390f35b3480156104cc57600080fd5b506104e760048036038101906104e2919061370b565b611013565b005b3480156104f557600080fd5b50610510600480360381019061050b9190613abf565b611029565b60405161051d9190613697565b60405180910390f35b34801561053257600080fd5b5061054d60048036038101906105489190613bd8565b6111cd565b005b61056960048036038101906105649190613cb6565b61132b565b005b34801561057757600080fd5b50610592600480360381019061058d91906135f5565b6115e4565b60405161059f9190613697565b60405180910390f35b3480156105b457600080fd5b506105cf60048036038101906105ca9190613540565b61163f565b6040516105dc91906135ae565b60405180910390f35b3480156105f157600080fd5b5061060c60048036038101906106079190613540565b6116c4565b60405161061991906134e8565b60405180910390f35b34801561062e57600080fd5b5061064960048036038101906106449190613d56565b6117d6565b005b34801561065757600080fd5b506106606118a2565b60405161066d9190613697565b60405180910390f35b34801561068257600080fd5b5061069d60048036038101906106989190613da9565b6118e9565b005b3480156106ab57600080fd5b506106c660048036038101906106c19190613dfc565b611a9c565b6040516106d3919061343d565b60405180910390f35b3480156106e857600080fd5b5061070360048036038101906106fe91906136b2565b611b30565b005b34801561071157600080fd5b5061072c60048036038101906107279190613540565b611bb3565b6040516107399190614069565b60405180910390f35b34801561074e57600080fd5b5061076960048036038101906107649190613540565b611d73565b604051610776919061343d565b60405180910390f35b60007fad092b5c000000000000000000000000000000000000000000000000000000007bffffffffffffffffffffffffffffffffffffffffffffffffffffffff1916827bffffffffffffffffffffffffffffffffffffffffffffffffffffffff191614806107f257506107f182611e25565b5b9050919050565b606060008054610808906140ba565b80601f0160208091040260200160405190810160405280929190818152602001828054610834906140ba565b80156108815780601f1061085657610100808354040283529160200191610881565b820191906000526020600020905b81548152906001019060200180831161086457829003601f168201915b5050505050905090565b600061089682611f07565b6004600083815260200190815260200160002060009054906101000a900473ffffffffffffffffffffffffffffffffffffffff169050919050565b60006108dc82610d9a565b90508073ffffffffffffffffffffffffffffffffffffffff168373ffffffffffffffffffffffffffffffffffffffff160361094c576040517f08c379a00000000000000000000000000000000000000000000000000000000081526004016109439061415d565b60405180910390fd5b8073ffffffffffffffffffffffffffffffffffffffff1661096b611f52565b73ffffffffffffffffffffffffffffffffffffffff16148061099a575061099981610994611f52565b611a9c565b5b6109d9576040517f08c379a00000000000000000000000000000000000000000000000000000000081526004016109d0906141ef565b60405180910390fd5b6109e38383611f5a565b505050565b8273ffffffffffffffffffffffffffffffffffffffff16610a0882610d9a565b73ffffffffffffffffffffffffffffffffffffffff1614610a5e576040517f08c379a0000000000000000000000000000000000000000000000000000000008152600401610a5590614281565b60405180910390fd5b600073ffffffffffffffffffffffffffffffffffffffff168273ffffffffffffffffffffffffffffffffffffffff1603610acd576040517f08c379a0000000000000000000000000000000000000000000000000000000008152600401610ac490614313565b60405180910390fd5b60001515600c600083815260200190815260200160002060009054906101000a900460ff16151503610b34576040517f08c379a0000000000000000000000000000000000000000000000000000000008152600401610b2b9061437f565b60405180910390fd5b610b3f838383612013565b505050565b610b4c612073565b60003390506000601360008373ffffffffffffffffffffffffffffffffffffffff1673ffffffffffffffffffffffffffffffffffffffff1681526020019081526020016000205490506000601360008473ffffffffffffffffffffffffffffffffffffffff1673ffffffffffffffffffffffffffffffffffffffff168152602001908152602001600020819055508173ffffffffffffffffffffffffffffffffffffffff166108fc829081150290604051600060405180830381858888f19350505050158015610c20573d6000803e3d6000fd5b505050565b8273ffffffffffffffffffffffffffffffffffffffff16610c4582610d9a565b73ffffffffffffffffffffffffffffffffffffffff1614610c9b576040517f08c379a0000000000000000000000000000000000000000000000000000000008152600401610c9290614281565b60405180910390fd5b600073ffffffffffffffffffffffffffffffffffffffff168273ffffffffffffffffffffffffffffffffffffffff1603610d0a576040517f08c379a0000000000000000000000000000000000000000000000000000000008152600401610d0190614313565b60405180910390fd5b60001515600c600083815260200190815260200160002060009054906101000a900460ff16151503610d71576040517f08c379a0000000000000000000000000000000000000000000000000000000008152600401610d689061437f565b60405180910390fd5b610d8c838383604051806020016040528060008152506120f1565b505050565b60006001905090565b600080610da683612153565b9050600073ffffffffffffffffffffffffffffffffffffffff168173ffffffffffffffffffffffffffffffffffffffff1603610e17576040517f08c379a0000000000000000000000000000000000000000000000000000000008152600401610e0e906143eb565b60405180910390fd5b80915050919050565b60008073ffffffffffffffffffffffffffffffffffffffff168273ffffffffffffffffffffffffffffffffffffffff1603610e90576040517f08c379a0000000000000000000000000000000000000000000000000000000008152600401610e879061447d565b60405180910390fd5b600360008373ffffffffffffffffffffffffffffffffffffffff1673ffffffffffffffffffffffffffffffffffffffff168152602001908152602001600020549050919050565b610edf612073565b610ee96000612190565b565b6000610ef7600b611e17565b905090565b6000600a60009054906101000a900473ffffffffffffffffffffffffffffffffffffffff16905090565b60006007600083815260200190815260200160002060000160149054906101000a900467ffffffffffffffff1667ffffffffffffffff169050919050565b6000600f6000838152602001908152602001600020549050919050565b606060018054610f90906140ba565b80601f0160208091040260200160405190810160405280929190818152602001828054610fbc906140ba565b80156110095780601f10610fde57610100808354040283529160200191611009565b820191906000526020600020905b815481529060010190602001808311610fec57829003601f168201915b5050505050905090565b61102561101e611f52565b8383612256565b5050565b6000611033612073565b600061103f600b611e17565b905061104b600b611e01565b61105581856123c2565b8260200151600c600083815260200190815260200160002060006101000a81548160ff0219169083151502179055506040518060400160405280846060015181526020018460800151815250600d600083815260200190815260200160002060008201518160000155602082015181600101559050508260a00151600f60008381526020019081526020016000208190555082600001516010600083815260200190815260200160002060006101000a81548160ff02191690831515021790555060405180604001604052808460c0015181526020018460e00151815250601160008381526020019081526020016000206000820151816000015560208201518160010155905050826040015160126000838152602001908152602001600020819055508261010001516014600083815260200190815260200160002090805190602001906111a592919061325c565b5082610120015160156000838152602001908152602001600020819055508091505092915050565b8373ffffffffffffffffffffffffffffffffffffffff166111ed83610d9a565b73ffffffffffffffffffffffffffffffffffffffff1614611243576040517f08c379a000000000000000000000000000000000000000000000000000000000815260040161123a90614281565b60405180910390fd5b600073ffffffffffffffffffffffffffffffffffffffff168373ffffffffffffffffffffffffffffffffffffffff16036112b2576040517f08c379a00000000000000000000000000000000000000000000000000000000081526004016112a990614313565b60405180910390fd5b60001515600c600084815260200190815260200160002060009054906101000a900460ff16151503611319576040517f08c379a00000000000000000000000000000000000000000000000000000000081526004016113109061437f565b60405180910390fd5b611325848484846120f1565b50505050565b611335600b611e17565b8310611376576040517f08c379a000000000000000000000000000000000000000000000000000000000815260040161136d906144e9565b60405180910390fd5b60006012600085815260200190815260200160002054116113cc576040517f08c379a00000000000000000000000000000000000000000000000000000000081526004016113c390614555565b60405180910390fd5b611451828280806020026020016040519081016040528093929190818152602001838360200280828437600081840152601f19601f8201169050808301925050505050505060156000868152602001908152602001600020543360405160200161143691906145bd565b604051602081830303815290604052805190602001206123e7565b8061147157506000801b6015600085815260200190815260200160002054145b6114b0576040517f08c379a00000000000000000000000000000000000000000000000000000000081526004016114a790614624565b60405180910390fd5b60003411156115df57601260008481526020019081526020016000205434101561150f576040517f08c379a000000000000000000000000000000000000000000000000000000000815260040161150690614690565b60405180910390fd5b600f600084815260200190815260200160002054600e600085815260200190815260200160002060003373ffffffffffffffffffffffffffffffffffffffff1673ffffffffffffffffffffffffffffffffffffffff168152602001908152602001600020819055503460136000611584610efc565b73ffffffffffffffffffffffffffffffffffffffff1673ffffffffffffffffffffffffffffffffffffffff16815260200190815260200160002060008282546115cd91906146df565b925050819055506115de33846123fe565b5b505050565b6000600e600083815260200190815260200160002060008473ffffffffffffffffffffffffffffffffffffffff1673ffffffffffffffffffffffffffffffffffffffff16815260200190815260200160002054905092915050565b6000426007600084815260200190815260200160002060000160149054906101000a900467ffffffffffffffff1667ffffffffffffffff16106116ba576007600083815260200190815260200160002060000160009054906101000a900473ffffffffffffffffffffffffffffffffffffffff1690506116bf565b600090505b919050565b60606116cf82611f07565b60006006600084815260200190815260200160002080546116ef906140ba565b80601f016020809104026020016040519081016040528092919081815260200182805461171b906140ba565b80156117685780601f1061173d57610100808354040283529160200191611768565b820191906000526020600020905b81548152906001019060200180831161174b57829003601f168201915b50505050509050600061177961261b565b9050600081510361178e5781925050506117d1565b6000825111156117c35780826040516020016117ab92919061474f565b604051602081830303815290604052925050506117d1565b6117cc846126ad565b925050505b919050565b42600d600085815260200190815260200160002060000154101561182f576040517f08c379a0000000000000000000000000000000000000000000000000000000008152600401611826906147e5565b60405180910390fd5b8067ffffffffffffffff16600d6000858152602001908152602001600020600101541115611892576040517f08c379a000000000000000000000000000000000000000000000000000000000815260040161188990614877565b60405180910390fd5b61189d838383612715565b505050565b6000601360003373ffffffffffffffffffffffffffffffffffffffff1673ffffffffffffffffffffffffffffffffffffffff16815260200190815260200160002054905090565b6000600f6000848152602001908152602001600020541161193f576040517f08c379a000000000000000000000000000000000000000000000000000000000815260040161193690614909565b60405180910390fd5b80600e600084815260200190815260200160002060003373ffffffffffffffffffffffffffffffffffffffff1673ffffffffffffffffffffffffffffffffffffffff1681526020019081526020016000205410156119d2576040517f08c379a00000000000000000000000000000000000000000000000000000000081526004016119c99061499b565b60405180910390fd5b80600e600084815260200190815260200160002060003373ffffffffffffffffffffffffffffffffffffffff1673ffffffffffffffffffffffffffffffffffffffff1681526020019081526020016000206000828254039250508190555080600e600084815260200190815260200160002060008573ffffffffffffffffffffffffffffffffffffffff1673ffffffffffffffffffffffffffffffffffffffff1681526020019081526020016000206000828254611a9091906146df565b92505081905550505050565b6000600560008473ffffffffffffffffffffffffffffffffffffffff1673ffffffffffffffffffffffffffffffffffffffff16815260200190815260200160002060008373ffffffffffffffffffffffffffffffffffffffff1673ffffffffffffffffffffffffffffffffffffffff16815260200190815260200160002060009054906101000a900460ff16905092915050565b611b38612073565b600073ffffffffffffffffffffffffffffffffffffffff168173ffffffffffffffffffffffffffffffffffffffff1603611ba7576040517f08c379a0000000000000000000000000000000000000000000000000000000008152600401611b9e90614a2d565b60405180910390fd5b611bb081612190565b50565b611bbb613312565b6040518061014001604052806010600085815260200190815260200160002060009054906101000a900460ff1615158152602001600c600085815260200190815260200160002060009054906101000a900460ff161515815260200160126000858152602001908152602001600020548152602001600d6000858152602001908152602001600020600001548152602001600d6000858152602001908152602001600020600101548152602001600f6000858152602001908152602001600020548152602001601160008581526020019081526020016000206000015481526020016011600085815260200190815260200160002060010154815260200160146000858152602001908152602001600020805480602002602001604051908101604052809291908181526020018280548015611d4b57602002820191906000526020600020906000905b82829054906101000a900460ff166003811115611d2557611d24613e86565b5b81526020019060010190602082600001049283019260010382029150808411611d055790505b5050505050815260200160156000858152602001908152602001600020548152509050919050565b6000806011600084815260200190815260200160002060000154148015611db0575060006011600084815260200190815260200160002060010154145b15611dbe5760009050611dfc565b60116000838152602001908152602001600020600001544210158015611df95750601160008381526020019081526020016000206001015442105b90505b919050565b6001816000016000828254019250508190555050565b600081600001549050919050565b60007f80ac58cd000000000000000000000000000000000000000000000000000000007bffffffffffffffffffffffffffffffffffffffffffffffffffffffff1916827bffffffffffffffffffffffffffffffffffffffffffffffffffffffff19161480611ef057507f5b5e139f000000000000000000000000000000000000000000000000000000007bffffffffffffffffffffffffffffffffffffffffffffffffffffffff1916827bffffffffffffffffffffffffffffffffffffffffffffffffffffffff1916145b80611f005750611eff82612838565b5b9050919050565b611f10816128a2565b611f4f576040517f08c379a0000000000000000000000000000000000000000000000000000000008152600401611f46906143eb565b60405180910390fd5b50565b600033905090565b816004600083815260200190815260200160002060006101000a81548173ffffffffffffffffffffffffffffffffffffffff021916908373ffffffffffffffffffffffffffffffffffffffff160217905550808273ffffffffffffffffffffffffffffffffffffffff16611fcd83610d9a565b73ffffffffffffffffffffffffffffffffffffffff167f8c5be1e5ebec7d5bd14f71427d1e84f3dd0314c0f7b2291e5b200ac8c7c3b92560405160405180910390a45050565b61202461201e611f52565b826128e3565b612063576040517f08c379a000000000000000000000000000000000000000000000000000000000815260040161205a90614abf565b60405180910390fd5b61206e838383612978565b505050565b61207b611f52565b73ffffffffffffffffffffffffffffffffffffffff16612099610efc565b73ffffffffffffffffffffffffffffffffffffffff16146120ef576040517f08c379a00000000000000000000000000000000000000000000000000000000081526004016120e690614b2b565b60405180910390fd5b565b6121026120fc611f52565b836128e3565b612141576040517f08c379a000000000000000000000000000000000000000000000000000000000815260040161213890614abf565b60405180910390fd5b61214d84848484612c71565b50505050565b60006002600083815260200190815260200160002060009054906101000a900473ffffffffffffffffffffffffffffffffffffffff169050919050565b6000600a60009054906101000a900473ffffffffffffffffffffffffffffffffffffffff16905081600a60006101000a81548173ffffffffffffffffffffffffffffffffffffffff021916908373ffffffffffffffffffffffffffffffffffffffff1602179055508173ffffffffffffffffffffffffffffffffffffffff168173ffffffffffffffffffffffffffffffffffffffff167f8be0079c531659141344cd1fd0a4f28419497f9722a3daafe3b4186f6b6457e060405160405180910390a35050565b8173ffffffffffffffffffffffffffffffffffffffff168373ffffffffffffffffffffffffffffffffffffffff16036122c4576040517f08c379a00000000000000000000000000000000000000000000000000000000081526004016122bb90614b97565b60405180910390fd5b80600560008573ffffffffffffffffffffffffffffffffffffffff1673ffffffffffffffffffffffffffffffffffffffff16815260200190815260200160002060008473ffffffffffffffffffffffffffffffffffffffff1673ffffffffffffffffffffffffffffffffffffffff16815260200190815260200160002060006101000a81548160ff0219169083151502179055508173ffffffffffffffffffffffffffffffffffffffff168373ffffffffffffffffffffffffffffffffffffffff167f17307eab39ab6107e8899845ad3d59bd9653f200f220920489ca2b5937696c31836040516123b5919061343d565b60405180910390a3505050565b806009600084815260200190815260200160002090816123e29190614d63565b505050565b6000826123f48584612ccd565b1490509392505050565b600073ffffffffffffffffffffffffffffffffffffffff168273ffffffffffffffffffffffffffffffffffffffff160361246d576040517f08c379a000000000000000000000000000000000000000000000000000000000815260040161246490614e81565b60405180910390fd5b612476816128a2565b156124b6576040517f08c379a00000000000000000000000000000000000000000000000000000000081526004016124ad90614eed565b60405180910390fd5b6124c4600083836001612d23565b6124cd816128a2565b1561250d576040517f08c379a000000000000000000000000000000000000000000000000000000000815260040161250490614eed565b60405180910390fd5b6001600360008473ffffffffffffffffffffffffffffffffffffffff1673ffffffffffffffffffffffffffffffffffffffff16815260200190815260200160002060008282540192505081905550816002600083815260200190815260200160002060006101000a81548173ffffffffffffffffffffffffffffffffffffffff021916908373ffffffffffffffffffffffffffffffffffffffff160217905550808273ffffffffffffffffffffffffffffffffffffffff16600073ffffffffffffffffffffffffffffffffffffffff167fddf252ad1be2c89b69c2b068fc378daa952ba7f163c4a11628f55a4df523b3ef60405160405180910390a4612617600083836001612e49565b5050565b60606008805461262a906140ba565b80601f0160208091040260200160405190810160405280929190818152602001828054612656906140ba565b80156126a35780601f10612678576101008083540402835291602001916126a3565b820191906000526020600020905b81548152906001019060200180831161268657829003601f168201915b5050505050905090565b60606126b882611f07565b60006126c261261b565b905060008151116126e2576040518060200160405280600081525061270d565b806126ec84612e4f565b6040516020016126fd92919061474f565b6040516020818303038152906040525b915050919050565b61271f33846128e3565b61275e576040517f08c379a000000000000000000000000000000000000000000000000000000000815260040161275590614f7f565b60405180910390fd5b6000600760008581526020019081526020016000209050828160000160006101000a81548173ffffffffffffffffffffffffffffffffffffffff021916908373ffffffffffffffffffffffffffffffffffffffff160217905550818160000160146101000a81548167ffffffffffffffff021916908367ffffffffffffffff1602179055508273ffffffffffffffffffffffffffffffffffffffff16847f4e06b4e7000e659094299b3533b47b6aa8ad048e95e872d23d1f4ee55af89cfe8460405161282a9190614fae565b60405180910390a350505050565b60007f01ffc9a7000000000000000000000000000000000000000000000000000000007bffffffffffffffffffffffffffffffffffffffffffffffffffffffff1916827bffffffffffffffffffffffffffffffffffffffffffffffffffffffff1916149050919050565b60008073ffffffffffffffffffffffffffffffffffffffff166128c483612153565b73ffffffffffffffffffffffffffffffffffffffff1614159050919050565b6000806128ef83610d9a565b90508073ffffffffffffffffffffffffffffffffffffffff168473ffffffffffffffffffffffffffffffffffffffff16148061293157506129308185611a9c565b5b8061296f57508373ffffffffffffffffffffffffffffffffffffffff166129578461088b565b73ffffffffffffffffffffffffffffffffffffffff16145b91505092915050565b8273ffffffffffffffffffffffffffffffffffffffff1661299882610d9a565b73ffffffffffffffffffffffffffffffffffffffff16146129ee576040517f08c379a00000000000000000000000000000000000000000000000000000000081526004016129e590614281565b60405180910390fd5b600073ffffffffffffffffffffffffffffffffffffffff168273ffffffffffffffffffffffffffffffffffffffff1603612a5d576040517f08c379a0000000000000000000000000000000000000000000000000000000008152600401612a5490614313565b60405180910390fd5b612a6a8383836001612d23565b8273ffffffffffffffffffffffffffffffffffffffff16612a8a82610d9a565b73ffffffffffffffffffffffffffffffffffffffff1614612ae0576040517f08c379a0000000000000000000000000000000000000000000000000000000008152600401612ad790614281565b60405180910390fd5b6004600082815260200190815260200160002060006101000a81549073ffffffffffffffffffffffffffffffffffffffff02191690556001600360008573ffffffffffffffffffffffffffffffffffffffff1673ffffffffffffffffffffffffffffffffffffffff168152602001908152602001600020600082825403925050819055506001600360008473ffffffffffffffffffffffffffffffffffffffff1673ffffffffffffffffffffffffffffffffffffffff16815260200190815260200160002060008282540192505081905550816002600083815260200190815260200160002060006101000a81548173ffffffffffffffffffffffffffffffffffffffff021916908373ffffffffffffffffffffffffffffffffffffffff160217905550808273ffffffffffffffffffffffffffffffffffffffff168473ffffffffffffffffffffffffffffffffffffffff167fddf252ad1be2c89b69c2b068fc378daa952ba7f163c4a11628f55a4df523b3ef60405160405180910390a4612c6c8383836001612e49565b505050565b612c7c848484612978565b612c8884848484612f1d565b612cc7576040517f08c379a0000000000000000000000000000000000000000000000000000000008152600401612cbe9061503b565b60405180910390fd5b50505050565b60008082905060005b8451811015612d1857612d0382868381518110612cf657612cf561505b565b5b60200260200101516130a4565b91508080612d109061508a565b915050612cd6565b508091505092915050565b6001811115612e4357600073ffffffffffffffffffffffffffffffffffffffff168473ffffffffffffffffffffffffffffffffffffffff1614612db75780600360008673ffffffffffffffffffffffffffffffffffffffff1673ffffffffffffffffffffffffffffffffffffffff1681526020019081526020016000206000828254612daf91906150d2565b925050819055505b600073ffffffffffffffffffffffffffffffffffffffff168373ffffffffffffffffffffffffffffffffffffffff1614612e425780600360008573ffffffffffffffffffffffffffffffffffffffff1673ffffffffffffffffffffffffffffffffffffffff1681526020019081526020016000206000828254612e3a91906146df565b925050819055505b5b50505050565b50505050565b606060006001612e5e846130cf565b01905060008167ffffffffffffffff811115612e7d57612e7c613755565b5b6040519080825280601f01601f191660200182016040528015612eaf5781602001600182028036833780820191505090505b509050600082602001820190505b600115612f12578080600190039150507f3031323334353637383961626364656600000000000000000000000000000000600a86061a8153600a8581612f0657612f05615106565b5b04945060008503612ebd575b819350505050919050565b6000612f3e8473ffffffffffffffffffffffffffffffffffffffff16613222565b15613097578373ffffffffffffffffffffffffffffffffffffffff1663150b7a02612f67611f52565b8786866040518563ffffffff1660e01b8152600401612f89949392919061518a565b6020604051808303816000875af1925050508015612fc557506040513d601f19601f82011682018060405250810190612fc291906151eb565b60015b613047573d8060008114612ff5576040519150601f19603f3d011682016040523d82523d6000602084013e612ffa565b606091505b50600081510361303f576040517f08c379a00000000000000000000000000000000000000000000000000000000081526004016130369061503b565b60405180910390fd5b805181602001fd5b63150b7a0260e01b7bffffffffffffffffffffffffffffffffffffffffffffffffffffffff1916817bffffffffffffffffffffffffffffffffffffffffffffffffffffffff19161491505061309c565b600190505b949350505050565b60008183106130bc576130b78284613245565b6130c7565b6130c68383613245565b5b905092915050565b600080600090507a184f03e93ff9f4daa797ed6e38ed64bf6a1f010000000000000000831061312d577a184f03e93ff9f4daa797ed6e38ed64bf6a1f010000000000000000838161312357613122615106565b5b0492506040810190505b6d04ee2d6d415b85acef8100000000831061316a576d04ee2d6d415b85acef810000000083816131605761315f615106565b5b0492506020810190505b662386f26fc10000831061319957662386f26fc10000838161318f5761318e615106565b5b0492506010810190505b6305f5e10083106131c2576305f5e10083816131b8576131b7615106565b5b0492506008810190505b61271083106131e75761271083816131dd576131dc615106565b5b0492506004810190505b6064831061320a5760648381613200576131ff615106565b5b0492506002810190505b600a8310613219576001810190505b80915050919050565b6000808273ffffffffffffffffffffffffffffffffffffffff163b119050919050565b600082600052816020526040600020905092915050565b82805482825590600052602060002090601f016020900481019282156133015791602002820160005b838211156132d257835183826101000a81548160ff021916908360038111156132b1576132b0613e86565b5b02179055509260200192600101602081600001049283019260010302613285565b80156132ff5782816101000a81549060ff02191690556001016020816000010492830192600103026132d2565b505b50905061330e919061336c565b5090565b60405180610140016040528060001515815260200160001515815260200160008152602001600081526020016000815260200160008152602001600081526020016000815260200160608152602001600080191681525090565b5b8082111561338557600081600090555060010161336d565b5090565b6000604051905090565b600080fd5b600080fd5b60007fffffffff0000000000000000000000000000000000000000000000000000000082169050919050565b6133d28161339d565b81146133dd57600080fd5b50565b6000813590506133ef816133c9565b92915050565b60006020828403121561340b5761340a613393565b5b6000613419848285016133e0565b91505092915050565b60008115159050919050565b61343781613422565b82525050565b6000602082019050613452600083018461342e565b92915050565b600081519050919050565b600082825260208201905092915050565b60005b83811015613492578082015181840152602081019050613477565b60008484015250505050565b6000601f19601f8301169050919050565b60006134ba82613458565b6134c48185613463565b93506134d4818560208601613474565b6134dd8161349e565b840191505092915050565b6000602082019050818103600083015261350281846134af565b905092915050565b6000819050919050565b61351d8161350a565b811461352857600080fd5b50565b60008135905061353a81613514565b92915050565b60006020828403121561355657613555613393565b5b60006135648482850161352b565b91505092915050565b600073ffffffffffffffffffffffffffffffffffffffff82169050919050565b60006135988261356d565b9050919050565b6135a88161358d565b82525050565b60006020820190506135c3600083018461359f565b92915050565b6135d28161358d565b81146135dd57600080fd5b50565b6000813590506135ef816135c9565b92915050565b6000806040838503121561360c5761360b613393565b5b600061361a858286016135e0565b925050602061362b8582860161352b565b9150509250929050565b60008060006060848603121561364e5761364d613393565b5b600061365c868287016135e0565b935050602061366d868287016135e0565b925050604061367e8682870161352b565b9150509250925092565b6136918161350a565b82525050565b60006020820190506136ac6000830184613688565b92915050565b6000602082840312156136c8576136c7613393565b5b60006136d6848285016135e0565b91505092915050565b6136e881613422565b81146136f357600080fd5b50565b600081359050613705816136df565b92915050565b6000806040838503121561372257613721613393565b5b6000613730858286016135e0565b9250506020613741858286016136f6565b9150509250929050565b600080fd5b600080fd5b7f4e487b7100000000000000000000000000000000000000000000000000000000600052604160045260246000fd5b61378d8261349e565b810181811067ffffffffffffffff821117156137ac576137ab613755565b5b80604052505050565b60006137bf613389565b90506137cb8282613784565b919050565b600067ffffffffffffffff8211156137eb576137ea613755565b5b6137f48261349e565b9050602081019050919050565b82818337600083830152505050565b600061382361381e846137d0565b6137b5565b90508281526020810184848401111561383f5761383e613750565b5b61384a848285613801565b509392505050565b600082601f8301126138675761386661374b565b5b8135613877848260208601613810565b91505092915050565b600080fd5b600080fd5b600067ffffffffffffffff8211156138a5576138a4613755565b5b602082029050602081019050919050565b600080fd5b600481106138c857600080fd5b50565b6000813590506138da816138bb565b92915050565b60006138f36138ee8461388a565b6137b5565b90508083825260208201905060208402830185811115613916576139156138b6565b5b835b8181101561393f578061392b88826138cb565b845260208401935050602081019050613918565b5050509392505050565b600082601f83011261395e5761395d61374b565b5b813561396e8482602086016138e0565b91505092915050565b6000819050919050565b61398a81613977565b811461399557600080fd5b50565b6000813590506139a781613981565b92915050565b600061014082840312156139c4576139c3613880565b5b6139cf6101406137b5565b905060006139df848285016136f6565b60008301525060206139f3848285016136f6565b6020830152506040613a078482850161352b565b6040830152506060613a1b8482850161352b565b6060830152506080613a2f8482850161352b565b60808301525060a0613a438482850161352b565b60a08301525060c0613a578482850161352b565b60c08301525060e0613a6b8482850161352b565b60e08301525061010082013567ffffffffffffffff811115613a9057613a8f613885565b5b613a9c84828501613949565b61010083015250610120613ab284828501613998565b6101208301525092915050565b60008060408385031215613ad657613ad5613393565b5b600083013567ffffffffffffffff811115613af457613af3613398565b5b613b0085828601613852565b925050602083013567ffffffffffffffff811115613b2157613b20613398565b5b613b2d858286016139ad565b9150509250929050565b600067ffffffffffffffff821115613b5257613b51613755565b5b613b5b8261349e565b9050602081019050919050565b6000613b7b613b7684613b37565b6137b5565b905082815260208101848484011115613b9757613b96613750565b5b613ba2848285613801565b509392505050565b600082601f830112613bbf57613bbe61374b565b5b8135613bcf848260208601613b68565b91505092915050565b60008060008060808587031215613bf257613bf1613393565b5b6000613c00878288016135e0565b9450506020613c11878288016135e0565b9350506040613c228782880161352b565b925050606085013567ffffffffffffffff811115613c4357613c42613398565b5b613c4f87828801613baa565b91505092959194509250565b600080fd5b60008083601f840112613c7657613c7561374b565b5b8235905067ffffffffffffffff811115613c9357613c92613c5b565b5b602083019150836020820283011115613caf57613cae6138b6565b5b9250929050565b600080600060408486031215613ccf57613cce613393565b5b6000613cdd8682870161352b565b935050602084013567ffffffffffffffff811115613cfe57613cfd613398565b5b613d0a86828701613c60565b92509250509250925092565b600067ffffffffffffffff82169050919050565b613d3381613d16565b8114613d3e57600080fd5b50565b600081359050613d5081613d2a565b92915050565b600080600060608486031215613d6f57613d6e613393565b5b6000613d7d8682870161352b565b9350506020613d8e868287016135e0565b9250506040613d9f86828701613d41565b9150509250925092565b600080600060608486031215613dc257613dc1613393565b5b6000613dd0868287016135e0565b9350506020613de18682870161352b565b9250506040613df28682870161352b565b9150509250925092565b60008060408385031215613e1357613e12613393565b5b6000613e21858286016135e0565b9250506020613e32858286016135e0565b9150509250929050565b613e4581613422565b82525050565b613e548161350a565b82525050565b600081519050919050565b600082825260208201905092915050565b6000819050602082019050919050565b7f4e487b7100000000000000000000000000000000000000000000000000000000600052602160045260246000fd5b60048110613ec657613ec5613e86565b5b50565b6000819050613ed782613eb5565b919050565b6000613ee782613ec9565b9050919050565b613ef781613edc565b82525050565b6000613f098383613eee565b60208301905092915050565b6000602082019050919050565b6000613f2d82613e5a565b613f378185613e65565b9350613f4283613e76565b8060005b83811015613f73578151613f5a8882613efd565b9750613f6583613f15565b925050600181019050613f46565b5085935050505092915050565b613f8981613977565b82525050565b600061014083016000830151613fa86000860182613e3c565b506020830151613fbb6020860182613e3c565b506040830151613fce6040860182613e4b565b506060830151613fe16060860182613e4b565b506080830151613ff46080860182613e4b565b5060a083015161400760a0860182613e4b565b5060c083015161401a60c0860182613e4b565b5060e083015161402d60e0860182613e4b565b506101008301518482036101008601526140478282613f22565b91505061012083015161405e610120860182613f80565b508091505092915050565b600060208201905081810360008301526140838184613f8f565b905092915050565b7f4e487b7100000000000000000000000000000000000000000000000000000000600052602260045260246000fd5b600060028204905060018216806140d257607f821691505b6020821081036140e5576140e461408b565b5b50919050565b7f4552433732313a20617070726f76616c20746f2063757272656e74206f776e6560008201527f7200000000000000000000000000000000000000000000000000000000000000602082015250565b6000614147602183613463565b9150614152826140eb565b604082019050919050565b600060208201905081810360008301526141768161413a565b9050919050565b7f4552433732313a20617070726f76652063616c6c6572206973206e6f7420746f60008201527f6b656e206f776e6572206f7220617070726f76656420666f7220616c6c000000602082015250565b60006141d9603d83613463565b91506141e48261417d565b604082019050919050565b60006020820190508181036000830152614208816141cc565b9050919050565b7f4552433732313a207472616e736665722066726f6d20696e636f72726563742060008201527f6f776e6572000000000000000000000000000000000000000000000000000000602082015250565b600061426b602583613463565b91506142768261420f565b604082019050919050565b6000602082019050818103600083015261429a8161425e565b9050919050565b7f4552433732313a207472616e7366657220746f20746865207a65726f2061646460008201527f7265737300000000000000000000000000000000000000000000000000000000602082015250565b60006142fd602483613463565b9150614308826142a1565b604082019050919050565b6000602082019050818103600083015261432c816142f0565b9050919050565b7f746f6b656e4964206973206e6f74207472616e7366657261626c650000000000600082015250565b6000614369601b83613463565b915061437482614333565b602082019050919050565b600060208201905081810360008301526143988161435c565b9050919050565b7f4552433732313a20696e76616c696420746f6b656e2049440000000000000000600082015250565b60006143d5601883613463565b91506143e08261439f565b602082019050919050565b60006020820190508181036000830152614404816143c8565b9050919050565b7f4552433732313a2061646472657373207a65726f206973206e6f74206120766160008201527f6c6964206f776e65720000000000000000000000000000000000000000000000602082015250565b6000614467602983613463565b91506144728261440b565b604082019050919050565b600060208201905081810360008301526144968161445a565b9050919050565b7f696e76616c696420746f6b656e49640000000000000000000000000000000000600082015250565b60006144d3600f83613463565b91506144de8261449d565b602082019050919050565b60006020820190508181036000830152614502816144c6565b9050919050565b7f7072696365206d75737420626520736574000000000000000000000000000000600082015250565b600061453f601183613463565b915061454a82614509565b602082019050919050565b6000602082019050818103600083015261456e81614532565b9050919050565b60008160601b9050919050565b600061458d82614575565b9050919050565b600061459f82614582565b9050919050565b6145b76145b28261358d565b614594565b82525050565b60006145c982846145a6565b60148201915081905092915050565b7f61646472657373206e6f742077686974656c6973746564000000000000000000600082015250565b600061460e601783613463565b9150614619826145d8565b602082019050919050565b6000602082019050818103600083015261463d81614601565b9050919050565b7f696e73756666696369656e742062616c616e6365000000000000000000000000600082015250565b600061467a601483613463565b915061468582614644565b602082019050919050565b600060208201905081810360008301526146a98161466d565b9050919050565b7f4e487b7100000000000000000000000000000000000000000000000000000000600052601160045260246000fd5b60006146ea8261350a565b91506146f58361350a565b925082820190508082111561470d5761470c6146b0565b5b92915050565b600081905092915050565b600061472982613458565b6147338185614713565b9350614743818560208601613474565b80840191505092915050565b600061475b828561471e565b9150614767828461471e565b91508190509392505050565b7f72656e7461626c652074696d696e67206973207374696c6c20696e76616c696460008201527f20666f72207468697320746f6b656e2069640000000000000000000000000000602082015250565b60006147cf603283613463565b91506147da82614773565b604082019050919050565b600060208201905081810360008301526147fe816147c2565b9050919050565b7f72656e7461626c652074696d696e6720686173206578706972656420666f722060008201527f7468697320746f6b656e20696400000000000000000000000000000000000000602082015250565b6000614861602d83613463565b915061486c82614805565b604082019050919050565b6000602082019050818103600083015261489081614854565b9050919050565b7f6672616374696f6e616c206f7074696f6e73206e6f7420616c6c6f776564206660008201527f6f72207468697320746f6b656e49640000000000000000000000000000000000602082015250565b60006148f3602f83613463565b91506148fe82614897565b604082019050919050565b60006020820190508181036000830152614922816148e6565b9050919050565b7f6d73672e73656e64657220646f65736e2774206861766520656e6f756768206660008201527f72616e63696f6e616c2062616c616e6365000000000000000000000000000000602082015250565b6000614985603183613463565b915061499082614929565b604082019050919050565b600060208201905081810360008301526149b481614978565b9050919050565b7f4f776e61626c653a206e6577206f776e657220697320746865207a65726f206160008201527f6464726573730000000000000000000000000000000000000000000000000000602082015250565b6000614a17602683613463565b9150614a22826149bb565b604082019050919050565b60006020820190508181036000830152614a4681614a0a565b9050919050565b7f4552433732313a2063616c6c6572206973206e6f7420746f6b656e206f776e6560008201527f72206f7220617070726f76656400000000000000000000000000000000000000602082015250565b6000614aa9602d83613463565b9150614ab482614a4d565b604082019050919050565b60006020820190508181036000830152614ad881614a9c565b9050919050565b7f4f776e61626c653a2063616c6c6572206973206e6f7420746865206f776e6572600082015250565b6000614b15602083613463565b9150614b2082614adf565b602082019050919050565b60006020820190508181036000830152614b4481614b08565b9050919050565b7f4552433732313a20617070726f766520746f2063616c6c657200000000000000600082015250565b6000614b81601983613463565b9150614b8c82614b4b565b602082019050919050565b60006020820190508181036000830152614bb081614b74565b9050919050565b60008190508160005260206000209050919050565b60006020601f8301049050919050565b600082821b905092915050565b600060088302614c197fffffffffffffffffffffffffffffffffffffffffffffffffffffffffffffffff82614bdc565b614c238683614bdc565b95508019841693508086168417925050509392505050565b6000819050919050565b6000614c60614c5b614c568461350a565b614c3b565b61350a565b9050919050565b6000819050919050565b614c7a83614c45565b614c8e614c8682614c67565b848454614be9565b825550505050565b600090565b614ca3614c96565b614cae818484614c71565b505050565b5b81811015614cd257614cc7600082614c9b565b600181019050614cb4565b5050565b601f821115614d1757614ce881614bb7565b614cf184614bcc565b81016020851015614d00578190505b614d14614d0c85614bcc565b830182614cb3565b50505b505050565b600082821c905092915050565b6000614d3a60001984600802614d1c565b1980831691505092915050565b6000614d538383614d29565b9150826002028217905092915050565b614d6c82613458565b67ffffffffffffffff811115614d8557614d84613755565b5b614d8f82546140ba565b614d9a828285614cd6565b600060209050601f831160018114614dcd5760008415614dbb578287015190505b614dc58582614d47565b865550614e2d565b601f198416614ddb86614bb7565b60005b82811015614e0357848901518255600182019150602085019450602081019050614dde565b86831015614e205784890151614e1c601f891682614d29565b8355505b6001600288020188555050505b505050505050565b7f4552433732313a206d696e7420746f20746865207a65726f2061646472657373600082015250565b6000614e6b602083613463565b9150614e7682614e35565b602082019050919050565b60006020820190508181036000830152614e9a81614e5e565b9050919050565b7f4552433732313a20746f6b656e20616c7265616479206d696e74656400000000600082015250565b6000614ed7601c83613463565b9150614ee282614ea1565b602082019050919050565b60006020820190508181036000830152614f0681614eca565b9050919050565b7f4552433732313a207472616e736665722063616c6c6572206973206e6f74206f60008201527f776e6572206e6f7220617070726f766564000000000000000000000000000000602082015250565b6000614f69603183613463565b9150614f7482614f0d565b604082019050919050565b60006020820190508181036000830152614f9881614f5c565b9050919050565b614fa881613d16565b82525050565b6000602082019050614fc36000830184614f9f565b92915050565b7f4552433732313a207472616e7366657220746f206e6f6e20455243373231526560008201527f63656976657220696d706c656d656e7465720000000000000000000000000000602082015250565b6000615025603283613463565b915061503082614fc9565b604082019050919050565b6000602082019050818103600083015261505481615018565b9050919050565b7f4e487b7100000000000000000000000000000000000000000000000000000000600052603260045260246000fd5b60006150958261350a565b91507fffffffffffffffffffffffffffffffffffffffffffffffffffffffffffffffff82036150c7576150c66146b0565b5b600182019050919050565b60006150dd8261350a565b91506150e88361350a565b9250828203905081811115615100576150ff6146b0565b5b92915050565b7f4e487b7100000000000000000000000000000000000000000000000000000000600052601260045260246000fd5b600081519050919050565b600082825260208201905092915050565b600061515c82615135565b6151668185615140565b9350615176818560208601613474565b61517f8161349e565b840191505092915050565b600060808201905061519f600083018761359f565b6151ac602083018661359f565b6151b96040830185613688565b81810360608301526151cb8184615151565b905095945050505050565b6000815190506151e5816133c9565b92915050565b60006020828403121561520157615200613393565b5b600061520f848285016151d6565b9150509291505056fea264697066735822122010e8fdff092755d11422689828de180a4caed7611f09134a0b865e8ba8d3a01064736f6c63430008110033",
  "linkReferences": {},
  "deployedLinkReferences": {}
}