{
  "_format": "hh-sol-artifact-1",
  "contractName": "LibreNFT721",
  "sourceName": "contracts/LibreNFT721.sol",
  "abi": [
    {
      "inputs": [
        {
          "internalType": "string",
          "name": "_name",
          "type": "string"
        },
        {
          "internalType": "string",
          "name": "_symbol",
          "type": "string"
        },
        {
          "internalType": "string",
          "name": "_collectionUri",
          "type": "string"
        },
        {
          "internalType": "string",
          "name": "_tokenUri",
          "type": "string"
        },
        {
          "components": [
            {
              "internalType": "bool",
              "name": "_unlockable",
              "type": "bool"
            },
            {
              "internalType": "bool",
              "name": "_transferable",
              "type": "bool"
            },
            {
              "internalType": "uint256",
              "name": "_tokenPrice",
              "type": "uint256"
            },
            {
              "internalType": "uint256",
              "name": "_rentableFrom",
              "type": "uint256"
            },
            {
              "internalType": "uint256",
              "name": "_rentableTo",
              "type": "uint256"
            },
            {
              "internalType": "uint256",
              "name": "_fractions",
              "type": "uint256"
            },
            {
              "internalType": "uint256",
              "name": "_timeframeFrom",
              "type": "uint256"
            },
            {
              "internalType": "uint256",
              "name": "_timeframeTo",
              "type": "uint256"
            },
            {
              "internalType": "address",
              "name": "_paymentToken",
              "type": "address"
            },
            {
              "internalType": "bytes32",
              "name": "_whitelist",
              "type": "bytes32"
            }
          ],
          "internalType": "struct LibreNFT721.LibreNFTProps",
          "name": "_props",
          "type": "tuple"
        }
      ],
      "stateMutability": "nonpayable",
      "type": "constructor"
    },
    {
      "anonymous": false,
      "inputs": [
        {
          "indexed": true,
          "internalType": "address",
          "name": "owner",
          "type": "address"
        },
        {
          "indexed": true,
          "internalType": "address",
          "name": "approved",
          "type": "address"
        },
        {
          "indexed": true,
          "internalType": "uint256",
          "name": "tokenId",
          "type": "uint256"
        }
      ],
      "name": "Approval",
      "type": "event"
    },
    {
      "anonymous": false,
      "inputs": [
        {
          "indexed": true,
          "internalType": "address",
          "name": "owner",
          "type": "address"
        },
        {
          "indexed": true,
          "internalType": "address",
          "name": "operator",
          "type": "address"
        },
        {
          "indexed": false,
          "internalType": "bool",
          "name": "approved",
          "type": "bool"
        }
      ],
      "name": "ApprovalForAll",
      "type": "event"
    },
    {
      "anonymous": false,
      "inputs": [
        {
          "indexed": true,
          "internalType": "address",
          "name": "previousOwner",
          "type": "address"
        },
        {
          "indexed": true,
          "internalType": "address",
          "name": "newOwner",
          "type": "address"
        }
      ],
      "name": "OwnershipTransferred",
      "type": "event"
    },
    {
      "anonymous": false,
      "inputs": [
        {
          "indexed": true,
          "internalType": "address",
          "name": "from",
          "type": "address"
        },
        {
          "indexed": true,
          "internalType": "address",
          "name": "to",
          "type": "address"
        },
        {
          "indexed": true,
          "internalType": "uint256",
          "name": "tokenId",
          "type": "uint256"
        }
      ],
      "name": "Transfer",
      "type": "event"
    },
    {
      "anonymous": false,
      "inputs": [
        {
          "indexed": true,
          "internalType": "uint256",
          "name": "tokenId",
          "type": "uint256"
        },
        {
          "indexed": true,
          "internalType": "address",
          "name": "user",
          "type": "address"
        },
        {
          "indexed": false,
          "internalType": "uint64",
          "name": "expires",
          "type": "uint64"
        }
      ],
      "name": "UpdateUser",
      "type": "event"
    },
    {
      "inputs": [
        {
          "internalType": "string",
          "name": "_uri",
          "type": "string"
        },
        {
          "components": [
            {
              "internalType": "bool",
              "name": "_unlockable",
              "type": "bool"
            },
            {
              "internalType": "bool",
              "name": "_transferable",
              "type": "bool"
            },
            {
              "internalType": "uint256",
              "name": "_tokenPrice",
              "type": "uint256"
            },
            {
              "internalType": "uint256",
              "name": "_rentableFrom",
              "type": "uint256"
            },
            {
              "internalType": "uint256",
              "name": "_rentableTo",
              "type": "uint256"
            },
            {
              "internalType": "uint256",
              "name": "_fractions",
              "type": "uint256"
            },
            {
              "internalType": "uint256",
              "name": "_timeframeFrom",
              "type": "uint256"
            },
            {
              "internalType": "uint256",
              "name": "_timeframeTo",
              "type": "uint256"
            },
            {
              "internalType": "address",
              "name": "_paymentToken",
              "type": "address"
            },
            {
              "internalType": "bytes32",
              "name": "_whitelist",
              "type": "bytes32"
            }
          ],
          "internalType": "struct LibreNFT721.LibreNFTProps",
          "name": "_props",
          "type": "tuple"
        }
      ],
      "name": "addInventory",
      "outputs": [
        {
          "internalType": "uint256",
          "name": "",
          "type": "uint256"
        }
      ],
      "stateMutability": "nonpayable",
      "type": "function"
    },
    {
      "inputs": [
        {
          "internalType": "address",
          "name": "to",
          "type": "address"
        },
        {
          "internalType": "uint256",
          "name": "tokenId",
          "type": "uint256"
        }
      ],
      "name": "approve",
      "outputs": [],
      "stateMutability": "nonpayable",
      "type": "function"
    },
    {
      "inputs": [],
      "name": "availableToWithdraw",
      "outputs": [
        {
          "internalType": "uint256",
          "name": "",
          "type": "uint256"
        }
      ],
      "stateMutability": "view",
      "type": "function"
    },
    {
      "inputs": [
        {
          "internalType": "address",
          "name": "owner",
          "type": "address"
        }
      ],
      "name": "balanceOf",
      "outputs": [
        {
          "internalType": "uint256",
          "name": "",
          "type": "uint256"
        }
      ],
      "stateMutability": "view",
      "type": "function"
    },
    {
      "inputs": [
        {
          "internalType": "address",
          "name": "_user",
          "type": "address"
        },
        {
          "internalType": "uint256",
          "name": "_tokenId",
          "type": "uint256"
        }
      ],
      "name": "fractionsOf",
      "outputs": [
        {
          "internalType": "uint256",
          "name": "",
          "type": "uint256"
        }
      ],
      "stateMutability": "view",
      "type": "function"
    },
    {
      "inputs": [
        {
          "internalType": "uint256",
          "name": "tokenId",
          "type": "uint256"
        }
      ],
      "name": "getApproved",
      "outputs": [
        {
          "internalType": "address",
          "name": "",
          "type": "address"
        }
      ],
      "stateMutability": "view",
      "type": "function"
    },
    {
      "inputs": [],
      "name": "getCounter",
      "outputs": [
        {
          "internalType": "uint256",
          "name": "",
          "type": "uint256"
        }
      ],
      "stateMutability": "view",
      "type": "function"
    },
    {
      "inputs": [
        {
          "internalType": "uint256",
          "name": "_tokenId",
          "type": "uint256"
        }
      ],
      "name": "getTokenProps",
      "outputs": [
        {
          "components": [
            {
              "internalType": "bool",
              "name": "_unlockable",
              "type": "bool"
            },
            {
              "internalType": "bool",
              "name": "_transferable",
              "type": "bool"
            },
            {
              "internalType": "uint256",
              "name": "_tokenPrice",
              "type": "uint256"
            },
            {
              "internalType": "uint256",
              "name": "_rentableFrom",
              "type": "uint256"
            },
            {
              "internalType": "uint256",
              "name": "_rentableTo",
              "type": "uint256"
            },
            {
              "internalType": "uint256",
              "name": "_fractions",
              "type": "uint256"
            },
            {
              "internalType": "uint256",
              "name": "_timeframeFrom",
              "type": "uint256"
            },
            {
              "internalType": "uint256",
              "name": "_timeframeTo",
              "type": "uint256"
            },
            {
              "internalType": "address",
              "name": "_paymentToken",
              "type": "address"
            },
            {
              "internalType": "bytes32",
              "name": "_whitelist",
              "type": "bytes32"
            }
          ],
          "internalType": "struct LibreNFT721.LibreNFTProps",
          "name": "",
          "type": "tuple"
        }
      ],
      "stateMutability": "view",
      "type": "function"
    },
    {
      "inputs": [
        {
          "internalType": "address",
          "name": "owner",
          "type": "address"
        },
        {
          "internalType": "address",
          "name": "operator",
          "type": "address"
        }
      ],
      "name": "isApprovedForAll",
      "outputs": [
        {
          "internalType": "bool",
          "name": "",
          "type": "bool"
        }
      ],
      "stateMutability": "view",
      "type": "function"
    },
    {
      "inputs": [
        {
          "internalType": "uint256",
          "name": "_tokenId",
          "type": "uint256"
        }
      ],
      "name": "isValidateByTimeframe",
      "outputs": [
        {
          "internalType": "bool",
          "name": "",
          "type": "bool"
        }
      ],
      "stateMutability": "view",
      "type": "function"
    },
    {
      "inputs": [
        {
          "internalType": "uint256",
          "name": "_tokenId",
          "type": "uint256"
        },
        {
          "internalType": "bytes32[]",
          "name": "_merkleProof",
          "type": "bytes32[]"
        }
      ],
      "name": "mint",
      "outputs": [],
      "stateMutability": "payable",
      "type": "function"
    },
    {
      "inputs": [],
      "name": "name",
      "outputs": [
        {
          "internalType": "string",
          "name": "",
          "type": "string"
        }
      ],
      "stateMutability": "view",
      "type": "function"
    },
    {
      "inputs": [],
      "name": "owner",
      "outputs": [
        {
          "internalType": "address",
          "name": "",
          "type": "address"
        }
      ],
      "stateMutability": "view",
      "type": "function"
    },
    {
      "inputs": [
        {
          "internalType": "uint256",
          "name": "tokenId",
          "type": "uint256"
        }
      ],
      "name": "ownerOf",
      "outputs": [
        {
          "internalType": "address",
          "name": "",
          "type": "address"
        }
      ],
      "stateMutability": "view",
      "type": "function"
    },
    {
      "inputs": [],
      "name": "renounceOwnership",
      "outputs": [],
      "stateMutability": "nonpayable",
      "type": "function"
    },
    {
      "inputs": [
        {
          "internalType": "address",
          "name": "_from",
          "type": "address"
        },
        {
          "internalType": "address",
          "name": "_to",
          "type": "address"
        },
        {
          "internalType": "uint256",
          "name": "_tokenId",
          "type": "uint256"
        }
      ],
      "name": "safeTransferFrom",
      "outputs": [],
      "stateMutability": "nonpayable",
      "type": "function"
    },
    {
      "inputs": [
        {
          "internalType": "address",
          "name": "_from",
          "type": "address"
        },
        {
          "internalType": "address",
          "name": "_to",
          "type": "address"
        },
        {
          "internalType": "uint256",
          "name": "_tokenId",
          "type": "uint256"
        },
        {
          "internalType": "bytes",
          "name": "data",
          "type": "bytes"
        }
      ],
      "name": "safeTransferFrom",
      "outputs": [],
      "stateMutability": "nonpayable",
      "type": "function"
    },
    {
      "inputs": [
        {
          "internalType": "address",
          "name": "operator",
          "type": "address"
        },
        {
          "internalType": "bool",
          "name": "approved",
          "type": "bool"
        }
      ],
      "name": "setApprovalForAll",
      "outputs": [],
      "stateMutability": "nonpayable",
      "type": "function"
    },
    {
      "inputs": [
        {
          "internalType": "uint256",
          "name": "_tokenId",
          "type": "uint256"
        },
        {
          "internalType": "address",
          "name": "_user",
          "type": "address"
        },
        {
          "internalType": "uint64",
          "name": "_expires",
          "type": "uint64"
        }
      ],
      "name": "setUser",
      "outputs": [],
      "stateMutability": "nonpayable",
      "type": "function"
    },
    {
      "inputs": [
        {
          "internalType": "bytes4",
          "name": "interfaceId",
          "type": "bytes4"
        }
      ],
      "name": "supportsInterface",
      "outputs": [
        {
          "internalType": "bool",
          "name": "",
          "type": "bool"
        }
      ],
      "stateMutability": "view",
      "type": "function"
    },
    {
      "inputs": [],
      "name": "symbol",
      "outputs": [
        {
          "internalType": "string",
          "name": "",
          "type": "string"
        }
      ],
      "stateMutability": "view",
      "type": "function"
    },
    {
      "inputs": [
        {
          "internalType": "uint256",
          "name": "tokenId",
          "type": "uint256"
        }
      ],
      "name": "tokenURI",
      "outputs": [
        {
          "internalType": "string",
          "name": "",
          "type": "string"
        }
      ],
      "stateMutability": "view",
      "type": "function"
    },
    {
      "inputs": [
        {
          "internalType": "uint256",
          "name": "_tokenId",
          "type": "uint256"
        }
      ],
      "name": "totalFractionsOf",
      "outputs": [
        {
          "internalType": "uint256",
          "name": "",
          "type": "uint256"
        }
      ],
      "stateMutability": "view",
      "type": "function"
    },
    {
      "inputs": [
        {
          "internalType": "address",
          "name": "_recipient",
          "type": "address"
        },
        {
          "internalType": "uint256",
          "name": "_tokenId",
          "type": "uint256"
        },
        {
          "internalType": "uint256",
          "name": "_amount",
          "type": "uint256"
        }
      ],
      "name": "transferFractions",
      "outputs": [],
      "stateMutability": "nonpayable",
      "type": "function"
    },
    {
      "inputs": [
        {
          "internalType": "address",
          "name": "_from",
          "type": "address"
        },
        {
          "internalType": "address",
          "name": "_to",
          "type": "address"
        },
        {
          "internalType": "uint256",
          "name": "_tokenId",
          "type": "uint256"
        }
      ],
      "name": "transferFrom",
      "outputs": [],
      "stateMutability": "nonpayable",
      "type": "function"
    },
    {
      "inputs": [
        {
          "internalType": "address",
          "name": "newOwner",
          "type": "address"
        }
      ],
      "name": "transferOwnership",
      "outputs": [],
      "stateMutability": "nonpayable",
      "type": "function"
    },
    {
      "inputs": [
        {
          "internalType": "uint256",
          "name": "tokenId",
          "type": "uint256"
        }
      ],
      "name": "userExpires",
      "outputs": [
        {
          "internalType": "uint256",
          "name": "",
          "type": "uint256"
        }
      ],
      "stateMutability": "view",
      "type": "function"
    },
    {
      "inputs": [
        {
          "internalType": "uint256",
          "name": "tokenId",
          "type": "uint256"
        }
      ],
      "name": "userOf",
      "outputs": [
        {
          "internalType": "address",
          "name": "",
          "type": "address"
        }
      ],
      "stateMutability": "view",
      "type": "function"
    },
    {
      "inputs": [],
      "name": "version",
      "outputs": [
        {
          "internalType": "uint256",
          "name": "",
          "type": "uint256"
        }
      ],
      "stateMutability": "pure",
      "type": "function"
    },
    {
      "inputs": [],
      "name": "withdraw",
      "outputs": [],
      "stateMutability": "nonpayable",
      "type": "function"
    },
    {
      "inputs": [
        {
          "internalType": "address",
          "name": "_tokenAddress",
          "type": "address"
        }
      ],
      "name": "withdrawToken",
      "outputs": [],
      "stateMutability": "nonpayable",
      "type": "function"
    }
  ],
  "bytecode": "0x60806040523480156200001157600080fd5b50604051620060eb380380620060eb833981810160405281019062000037919062000857565b848484828281600090816200004d919062000b9d565b5080600190816200005f919062000b9d565b505050806008908162000073919062000b9d565b50505050620000976200008b620000cc60201b60201c565b620000d460201b60201c565b620000ae600b6200019a60201b620021301760201c565b620000c08282620001b060201b60201c565b50505050505062000d07565b600033905090565b6000600a60009054906101000a900473ffffffffffffffffffffffffffffffffffffffff16905081600a60006101000a81548173ffffffffffffffffffffffffffffffffffffffff021916908373ffffffffffffffffffffffffffffffffffffffff1602179055508173ffffffffffffffffffffffffffffffffffffffff168173ffffffffffffffffffffffffffffffffffffffff167f8be0079c531659141344cd1fd0a4f28419497f9722a3daafe3b4186f6b6457e060405160405180910390a35050565b6001816000016000828254019250508190555050565b6000620001c2620003a860201b60201c565b6000620001db600b6200043960201b620021461760201c565b9050620001f4600b6200019a60201b620021301760201c565b6200020681856200044760201b60201c565b8260200151600c600083815260200190815260200160002060006101000a81548160ff0219169083151502179055506040518060400160405280846060015181526020018460800151815250600d600083815260200190815260200160002060008201518160000155602082015181600101559050508260a00151600f60008381526020019081526020016000208190555082600001516010600083815260200190815260200160002060006101000a81548160ff02191690831515021790555060405180604001604052808460c0015181526020018460e00151815250601160008381526020019081526020016000206000820151816000015560208201518160010155905050826040015160156000838152602001908152602001600020819055508261010001516014600083815260200190815260200160002060006101000a81548173ffffffffffffffffffffffffffffffffffffffff021916908373ffffffffffffffffffffffffffffffffffffffff16021790555082610120015160166000838152602001908152602001600020819055508091505092915050565b620003b8620000cc60201b60201c565b73ffffffffffffffffffffffffffffffffffffffff16620003de6200046e60201b60201c565b73ffffffffffffffffffffffffffffffffffffffff161462000437576040517f08c379a00000000000000000000000000000000000000000000000000000000081526004016200042e9062000ce5565b60405180910390fd5b565b600081600001549050919050565b8060096000848152602001908152602001600020908162000469919062000b9d565b505050565b6000600a60009054906101000a900473ffffffffffffffffffffffffffffffffffffffff16905090565b6000604051905090565b600080fd5b600080fd5b600080fd5b600080fd5b6000601f19601f8301169050919050565b7f4e487b7100000000000000000000000000000000000000000000000000000000600052604160045260246000fd5b6200050182620004b6565b810181811067ffffffffffffffff82111715620005235762000522620004c7565b5b80604052505050565b60006200053862000498565b9050620005468282620004f6565b919050565b600067ffffffffffffffff821115620005695762000568620004c7565b5b6200057482620004b6565b9050602081019050919050565b60005b83811015620005a157808201518184015260208101905062000584565b60008484015250505050565b6000620005c4620005be846200054b565b6200052c565b905082815260208101848484011115620005e357620005e2620004b1565b5b620005f084828562000581565b509392505050565b600082601f83011262000610576200060f620004ac565b5b815162000622848260208601620005ad565b91505092915050565b600080fd5b60008115159050919050565b620006478162000630565b81146200065357600080fd5b50565b60008151905062000667816200063c565b92915050565b6000819050919050565b62000682816200066d565b81146200068e57600080fd5b50565b600081519050620006a28162000677565b92915050565b600073ffffffffffffffffffffffffffffffffffffffff82169050919050565b6000620006d582620006a8565b9050919050565b620006e781620006c8565b8114620006f357600080fd5b50565b6000815190506200070781620006dc565b92915050565b6000819050919050565b62000722816200070d565b81146200072e57600080fd5b50565b600081519050620007428162000717565b92915050565b600061014082840312156200076257620007616200062b565b5b6200076f6101406200052c565b90506000620007818482850162000656565b6000830152506020620007978482850162000656565b6020830152506040620007ad8482850162000691565b6040830152506060620007c38482850162000691565b6060830152506080620007d98482850162000691565b60808301525060a0620007ef8482850162000691565b60a08301525060c0620008058482850162000691565b60c08301525060e06200081b8482850162000691565b60e0830152506101006200083284828501620006f6565b610100830152506101206200084a8482850162000731565b6101208301525092915050565b60008060008060006101c08688031215620008775762000876620004a2565b5b600086015167ffffffffffffffff811115620008985762000897620004a7565b5b620008a688828901620005f8565b955050602086015167ffffffffffffffff811115620008ca57620008c9620004a7565b5b620008d888828901620005f8565b945050604086015167ffffffffffffffff811115620008fc57620008fb620004a7565b5b6200090a88828901620005f8565b935050606086015167ffffffffffffffff8111156200092e576200092d620004a7565b5b6200093c88828901620005f8565b92505060806200094f8882890162000748565b9150509295509295909350565b600081519050919050565b7f4e487b7100000000000000000000000000000000000000000000000000000000600052602260045260246000fd5b60006002820490506001821680620009af57607f821691505b602082108103620009c557620009c462000967565b5b50919050565b60008190508160005260206000209050919050565b60006020601f8301049050919050565b600082821b905092915050565b60006008830262000a2f7fffffffffffffffffffffffffffffffffffffffffffffffffffffffffffffffff82620009f0565b62000a3b8683620009f0565b95508019841693508086168417925050509392505050565b6000819050919050565b600062000a7e62000a7862000a72846200066d565b62000a53565b6200066d565b9050919050565b6000819050919050565b62000a9a8362000a5d565b62000ab262000aa98262000a85565b848454620009fd565b825550505050565b600090565b62000ac962000aba565b62000ad681848462000a8f565b505050565b5b8181101562000afe5762000af260008262000abf565b60018101905062000adc565b5050565b601f82111562000b4d5762000b1781620009cb565b62000b2284620009e0565b8101602085101562000b32578190505b62000b4a62000b4185620009e0565b83018262000adb565b50505b505050565b600082821c905092915050565b600062000b726000198460080262000b52565b1980831691505092915050565b600062000b8d838362000b5f565b9150826002028217905092915050565b62000ba8826200095c565b67ffffffffffffffff81111562000bc45762000bc3620004c7565b5b62000bd0825462000996565b62000bdd82828562000b02565b600060209050601f83116001811462000c15576000841562000c00578287015190505b62000c0c858262000b7f565b86555062000c7c565b601f19841662000c2586620009cb565b60005b8281101562000c4f5784890151825560018201915060208501945060208101905062000c28565b8683101562000c6f578489015162000c6b601f89168262000b5f565b8355505b6001600288020188555050505b505050505050565b600082825260208201905092915050565b7f4f776e61626c653a2063616c6c6572206973206e6f7420746865206f776e6572600082015250565b600062000ccd60208362000c84565b915062000cda8262000c95565b602082019050919050565b6000602082019050818103600083015262000d008162000cbe565b9050919050565b6153d48062000d176000396000f3fe6080604052600436106101d85760003560e01c8063910bbe4f11610102578063c87b56dd11610095578063e985e9c511610064578063e985e9c5146106d3578063f2fde38b14610710578063f4b3523614610739578063f9ba021c14610776576101d8565b8063c87b56dd14610619578063e030565e14610656578063e322ad2b1461067f578063e49ed292146106aa576101d8565b8063b88d4fde116100d1578063b88d4fde1461055a578063ba41b0c614610583578063c1844f361461059f578063c2f1f14a146105dc576101d8565b8063910bbe4f1461048c57806395d89b41146104c9578063a22cb465146104f4578063aa24e8df1461051d576101d8565b806354fd4d501161017a578063894760691161014957806389476069146103d05780638ada066e146103f95780638da5cb5b146104245780638fc88c481461044f576101d8565b806354fd4d50146103145780636352211e1461033f57806370a082311461037c578063715018a6146103b9576101d8565b8063095ea7b3116101b6578063095ea7b31461028257806323b872dd146102ab5780633ccfd60b146102d457806342842e0e146102eb576101d8565b806301ffc9a7146101dd57806306fdde031461021a578063081812fc14610245575b600080fd5b3480156101e957600080fd5b5061020460048036038101906101ff9190613667565b6107b3565b60405161021191906136af565b60405180910390f35b34801561022657600080fd5b5061022f61082d565b60405161023c919061375a565b60405180910390f35b34801561025157600080fd5b5061026c600480360381019061026791906137b2565b6108bf565b6040516102799190613820565b60405180910390f35b34801561028e57600080fd5b506102a960048036038101906102a49190613867565b610905565b005b3480156102b757600080fd5b506102d260048036038101906102cd91906138a7565b610a1c565b005b3480156102e057600080fd5b506102e9610b78565b005b3480156102f757600080fd5b50610312600480360381019061030d91906138a7565b610c59565b005b34801561032057600080fd5b50610329610dc5565b6040516103369190613909565b60405180910390f35b34801561034b57600080fd5b50610366600480360381019061036191906137b2565b610dce565b6040516103739190613820565b60405180910390f35b34801561038857600080fd5b506103a3600480360381019061039e9190613924565b610e54565b6040516103b09190613909565b60405180910390f35b3480156103c557600080fd5b506103ce610f0b565b005b3480156103dc57600080fd5b506103f760048036038101906103f29190613924565b610f1f565b005b34801561040557600080fd5b5061040e611039565b60405161041b9190613909565b60405180910390f35b34801561043057600080fd5b5061043961104a565b6040516104469190613820565b60405180910390f35b34801561045b57600080fd5b50610476600480360381019061047191906137b2565b611074565b6040516104839190613909565b60405180910390f35b34801561049857600080fd5b506104b360048036038101906104ae91906137b2565b6110b2565b6040516104c09190613909565b60405180910390f35b3480156104d557600080fd5b506104de6110cf565b6040516104eb919061375a565b60405180910390f35b34801561050057600080fd5b5061051b6004803603810190610516919061397d565b611161565b005b34801561052957600080fd5b50610544600480360381019061053f9190613c23565b611177565b6040516105519190613909565b60405180910390f35b34801561056657600080fd5b50610581600480360381019061057c9190613d21565b611345565b005b61059d60048036038101906105989190613e04565b6114a3565b005b3480156105ab57600080fd5b506105c660048036038101906105c19190613867565b611960565b6040516105d39190613909565b60405180910390f35b3480156105e857600080fd5b5061060360048036038101906105fe91906137b2565b6119bb565b6040516106109190613820565b60405180910390f35b34801561062557600080fd5b50610640600480360381019061063b91906137b2565b611a40565b60405161064d919061375a565b60405180910390f35b34801561066257600080fd5b5061067d60048036038101906106789190613ea4565b611b52565b005b34801561068b57600080fd5b50610694611c1e565b6040516106a19190613909565b60405180910390f35b3480156106b657600080fd5b506106d160048036038101906106cc9190613ef7565b611c65565b005b3480156106df57600080fd5b506106fa60048036038101906106f59190613f4a565b611e18565b60405161070791906136af565b60405180910390f35b34801561071c57600080fd5b5061073760048036038101906107329190613924565b611eac565b005b34801561074557600080fd5b50610760600480360381019061075b91906137b2565b611f2f565b60405161076d9190614092565b60405180910390f35b34801561078257600080fd5b5061079d600480360381019061079891906137b2565b6120a2565b6040516107aa91906136af565b60405180910390f35b60007fad092b5c000000000000000000000000000000000000000000000000000000007bffffffffffffffffffffffffffffffffffffffffffffffffffffffff1916827bffffffffffffffffffffffffffffffffffffffffffffffffffffffff19161480610826575061082582612154565b5b9050919050565b60606000805461083c906140dd565b80601f0160208091040260200160405190810160405280929190818152602001828054610868906140dd565b80156108b55780601f1061088a576101008083540402835291602001916108b5565b820191906000526020600020905b81548152906001019060200180831161089857829003601f168201915b5050505050905090565b60006108ca82612236565b6004600083815260200190815260200160002060009054906101000a900473ffffffffffffffffffffffffffffffffffffffff169050919050565b600061091082610dce565b90508073ffffffffffffffffffffffffffffffffffffffff168373ffffffffffffffffffffffffffffffffffffffff1603610980576040517f08c379a000000000000000000000000000000000000000000000000000000000815260040161097790614180565b60405180910390fd5b8073ffffffffffffffffffffffffffffffffffffffff1661099f612281565b73ffffffffffffffffffffffffffffffffffffffff1614806109ce57506109cd816109c8612281565b611e18565b5b610a0d576040517f08c379a0000000000000000000000000000000000000000000000000000000008152600401610a0490614212565b60405180910390fd5b610a178383612289565b505050565b8273ffffffffffffffffffffffffffffffffffffffff16610a3c82610dce565b73ffffffffffffffffffffffffffffffffffffffff1614610a92576040517f08c379a0000000000000000000000000000000000000000000000000000000008152600401610a89906142a4565b60405180910390fd5b600073ffffffffffffffffffffffffffffffffffffffff168273ffffffffffffffffffffffffffffffffffffffff1603610b01576040517f08c379a0000000000000000000000000000000000000000000000000000000008152600401610af890614336565b60405180910390fd5b60001515600c600083815260200190815260200160002060009054906101000a900460ff16151503610b68576040517f08c379a0000000000000000000000000000000000000000000000000000000008152600401610b5f906143a2565b60405180910390fd5b610b73838383612342565b505050565b610b806123a2565b60003390506000601260008373ffffffffffffffffffffffffffffffffffffffff1673ffffffffffffffffffffffffffffffffffffffff1681526020019081526020016000205490506000601260008473ffffffffffffffffffffffffffffffffffffffff1673ffffffffffffffffffffffffffffffffffffffff168152602001908152602001600020819055508173ffffffffffffffffffffffffffffffffffffffff166108fc829081150290604051600060405180830381858888f19350505050158015610c54573d6000803e3d6000fd5b505050565b8273ffffffffffffffffffffffffffffffffffffffff16610c7982610dce565b73ffffffffffffffffffffffffffffffffffffffff1614610ccf576040517f08c379a0000000000000000000000000000000000000000000000000000000008152600401610cc6906142a4565b60405180910390fd5b600073ffffffffffffffffffffffffffffffffffffffff168273ffffffffffffffffffffffffffffffffffffffff1603610d3e576040517f08c379a0000000000000000000000000000000000000000000000000000000008152600401610d3590614336565b60405180910390fd5b60001515600c600083815260200190815260200160002060009054906101000a900460ff16151503610da5576040517f08c379a0000000000000000000000000000000000000000000000000000000008152600401610d9c906143a2565b60405180910390fd5b610dc083838360405180602001604052806000815250612420565b505050565b60006001905090565b600080610dda83612482565b9050600073ffffffffffffffffffffffffffffffffffffffff168173ffffffffffffffffffffffffffffffffffffffff1603610e4b576040517f08c379a0000000000000000000000000000000000000000000000000000000008152600401610e429061440e565b60405180910390fd5b80915050919050565b60008073ffffffffffffffffffffffffffffffffffffffff168273ffffffffffffffffffffffffffffffffffffffff1603610ec4576040517f08c379a0000000000000000000000000000000000000000000000000000000008152600401610ebb906144a0565b60405180910390fd5b600360008373ffffffffffffffffffffffffffffffffffffffff1673ffffffffffffffffffffffffffffffffffffffff168152602001908152602001600020549050919050565b610f136123a2565b610f1d60006124bf565b565b610f276123a2565b60003390506000601360008473ffffffffffffffffffffffffffffffffffffffff1673ffffffffffffffffffffffffffffffffffffffff1681526020019081526020016000205490506000601360008573ffffffffffffffffffffffffffffffffffffffff1673ffffffffffffffffffffffffffffffffffffffff168152602001908152602001600020819055508273ffffffffffffffffffffffffffffffffffffffff1663a9059cbb83836040518363ffffffff1660e01b8152600401610ff092919061451f565b6020604051808303816000875af115801561100f573d6000803e3d6000fd5b505050506040513d601f19601f82011682018060405250810190611033919061455d565b50505050565b6000611045600b612146565b905090565b6000600a60009054906101000a900473ffffffffffffffffffffffffffffffffffffffff16905090565b60006007600083815260200190815260200160002060000160149054906101000a900467ffffffffffffffff1667ffffffffffffffff169050919050565b6000600f6000838152602001908152602001600020549050919050565b6060600180546110de906140dd565b80601f016020809104026020016040519081016040528092919081815260200182805461110a906140dd565b80156111575780601f1061112c57610100808354040283529160200191611157565b820191906000526020600020905b81548152906001019060200180831161113a57829003601f168201915b5050505050905090565b61117361116c612281565b8383612585565b5050565b60006111816123a2565b600061118d600b612146565b9050611199600b612130565b6111a381856126f1565b8260200151600c600083815260200190815260200160002060006101000a81548160ff0219169083151502179055506040518060400160405280846060015181526020018460800151815250600d600083815260200190815260200160002060008201518160000155602082015181600101559050508260a00151600f60008381526020019081526020016000208190555082600001516010600083815260200190815260200160002060006101000a81548160ff02191690831515021790555060405180604001604052808460c0015181526020018460e00151815250601160008381526020019081526020016000206000820151816000015560208201518160010155905050826040015160156000838152602001908152602001600020819055508261010001516014600083815260200190815260200160002060006101000a81548173ffffffffffffffffffffffffffffffffffffffff021916908373ffffffffffffffffffffffffffffffffffffffff16021790555082610120015160166000838152602001908152602001600020819055508091505092915050565b8373ffffffffffffffffffffffffffffffffffffffff1661136583610dce565b73ffffffffffffffffffffffffffffffffffffffff16146113bb576040517f08c379a00000000000000000000000000000000000000000000000000000000081526004016113b2906142a4565b60405180910390fd5b600073ffffffffffffffffffffffffffffffffffffffff168373ffffffffffffffffffffffffffffffffffffffff160361142a576040517f08c379a000000000000000000000000000000000000000000000000000000000815260040161142190614336565b60405180910390fd5b60001515600c600084815260200190815260200160002060009054906101000a900460ff16151503611491576040517f08c379a0000000000000000000000000000000000000000000000000000000008152600401611488906143a2565b60405180910390fd5b61149d84848484612420565b50505050565b6114ad600b612146565b83106114ee576040517f08c379a00000000000000000000000000000000000000000000000000000000081526004016114e5906145d6565b60405180910390fd5b6000601560008581526020019081526020016000205411611544576040517f08c379a000000000000000000000000000000000000000000000000000000000815260040161153b90614642565b60405180910390fd5b6115c9828280806020026020016040519081016040528093929190818152602001838360200280828437600081840152601f19601f820116905080830192505050505050506016600086815260200190815260200160002054336040516020016115ae91906146aa565b60405160208183030381529060405280519060200120612716565b806115e957506000801b6016600085815260200190815260200160002054145b611628576040517f08c379a000000000000000000000000000000000000000000000000000000000815260040161161f90614711565b60405180910390fd5b600073ffffffffffffffffffffffffffffffffffffffff166014600085815260200190815260200160002060009054906101000a900473ffffffffffffffffffffffffffffffffffffffff1673ffffffffffffffffffffffffffffffffffffffff16036117475760156000848152602001908152602001600020543410156116e5576040517f08c379a00000000000000000000000000000000000000000000000000000000081526004016116dc9061477d565b60405180910390fd5b34601260006116f261104a565b73ffffffffffffffffffffffffffffffffffffffff1673ffffffffffffffffffffffffffffffffffffffff168152602001908152602001600020600082825461173b91906147cc565b925050819055506118e9565b6014600084815260200190815260200160002060009054906101000a900473ffffffffffffffffffffffffffffffffffffffff1673ffffffffffffffffffffffffffffffffffffffff166323b872dd333060156000888152602001908152602001600020546040518463ffffffff1660e01b81526004016117ca93929190614800565b6020604051808303816000875af11580156117e9573d6000803e3d6000fd5b505050506040513d601f19601f8201168201806040525081019061180d919061455d565b61184c576040517f08c379a000000000000000000000000000000000000000000000000000000000815260040161184390614883565b60405180910390fd5b6015600084815260200190815260200160002054601360006014600087815260200190815260200160002060009054906101000a900473ffffffffffffffffffffffffffffffffffffffff1673ffffffffffffffffffffffffffffffffffffffff1673ffffffffffffffffffffffffffffffffffffffff16815260200190815260200160002060008282546118e191906147cc565b925050819055505b600f600084815260200190815260200160002054600e600085815260200190815260200160002060003373ffffffffffffffffffffffffffffffffffffffff1673ffffffffffffffffffffffffffffffffffffffff1681526020019081526020016000208190555061195b338461272d565b505050565b6000600e600083815260200190815260200160002060008473ffffffffffffffffffffffffffffffffffffffff1673ffffffffffffffffffffffffffffffffffffffff16815260200190815260200160002054905092915050565b6000426007600084815260200190815260200160002060000160149054906101000a900467ffffffffffffffff1667ffffffffffffffff1610611a36576007600083815260200190815260200160002060000160009054906101000a900473ffffffffffffffffffffffffffffffffffffffff169050611a3b565b600090505b919050565b6060611a4b82612236565b6000600660008481526020019081526020016000208054611a6b906140dd565b80601f0160208091040260200160405190810160405280929190818152602001828054611a97906140dd565b8015611ae45780601f10611ab957610100808354040283529160200191611ae4565b820191906000526020600020905b815481529060010190602001808311611ac757829003601f168201915b505050505090506000611af561294a565b90506000815103611b0a578192505050611b4d565b600082511115611b3f578082604051602001611b279291906148df565b60405160208183030381529060405292505050611b4d565b611b48846129dc565b925050505b919050565b42600d6000858152602001908152602001600020600001541015611bab576040517f08c379a0000000000000000000000000000000000000000000000000000000008152600401611ba290614975565b60405180910390fd5b8067ffffffffffffffff16600d6000858152602001908152602001600020600101541115611c0e576040517f08c379a0000000000000000000000000000000000000000000000000000000008152600401611c0590614a07565b60405180910390fd5b611c19838383612a44565b505050565b6000601260003373ffffffffffffffffffffffffffffffffffffffff1673ffffffffffffffffffffffffffffffffffffffff16815260200190815260200160002054905090565b6000600f60008481526020019081526020016000205411611cbb576040517f08c379a0000000000000000000000000000000000000000000000000000000008152600401611cb290614a99565b60405180910390fd5b80600e600084815260200190815260200160002060003373ffffffffffffffffffffffffffffffffffffffff1673ffffffffffffffffffffffffffffffffffffffff168152602001908152602001600020541015611d4e576040517f08c379a0000000000000000000000000000000000000000000000000000000008152600401611d4590614b2b565b60405180910390fd5b80600e600084815260200190815260200160002060003373ffffffffffffffffffffffffffffffffffffffff1673ffffffffffffffffffffffffffffffffffffffff1681526020019081526020016000206000828254039250508190555080600e600084815260200190815260200160002060008573ffffffffffffffffffffffffffffffffffffffff1673ffffffffffffffffffffffffffffffffffffffff1681526020019081526020016000206000828254611e0c91906147cc565b92505081905550505050565b6000600560008473ffffffffffffffffffffffffffffffffffffffff1673ffffffffffffffffffffffffffffffffffffffff16815260200190815260200160002060008373ffffffffffffffffffffffffffffffffffffffff1673ffffffffffffffffffffffffffffffffffffffff16815260200190815260200160002060009054906101000a900460ff16905092915050565b611eb46123a2565b600073ffffffffffffffffffffffffffffffffffffffff168173ffffffffffffffffffffffffffffffffffffffff1603611f23576040517f08c379a0000000000000000000000000000000000000000000000000000000008152600401611f1a90614bbd565b60405180910390fd5b611f2c816124bf565b50565b611f3761358b565b6040518061014001604052806010600085815260200190815260200160002060009054906101000a900460ff1615158152602001600c600085815260200190815260200160002060009054906101000a900460ff161515815260200160156000858152602001908152602001600020548152602001600d6000858152602001908152602001600020600001548152602001600d6000858152602001908152602001600020600101548152602001600f600085815260200190815260200160002054815260200160116000858152602001908152602001600020600001548152602001601160008581526020019081526020016000206001015481526020016014600085815260200190815260200160002060009054906101000a900473ffffffffffffffffffffffffffffffffffffffff1673ffffffffffffffffffffffffffffffffffffffff16815260200160166000858152602001908152602001600020548152509050919050565b60008060116000848152602001908152602001600020600001541480156120df575060006011600084815260200190815260200160002060010154145b156120ed576000905061212b565b601160008381526020019081526020016000206000015442101580156121285750601160008381526020019081526020016000206001015442105b90505b919050565b6001816000016000828254019250508190555050565b600081600001549050919050565b60007f80ac58cd000000000000000000000000000000000000000000000000000000007bffffffffffffffffffffffffffffffffffffffffffffffffffffffff1916827bffffffffffffffffffffffffffffffffffffffffffffffffffffffff1916148061221f57507f5b5e139f000000000000000000000000000000000000000000000000000000007bffffffffffffffffffffffffffffffffffffffffffffffffffffffff1916827bffffffffffffffffffffffffffffffffffffffffffffffffffffffff1916145b8061222f575061222e82612b67565b5b9050919050565b61223f81612bd1565b61227e576040517f08c379a00000000000000000000000000000000000000000000000000000000081526004016122759061440e565b60405180910390fd5b50565b600033905090565b816004600083815260200190815260200160002060006101000a81548173ffffffffffffffffffffffffffffffffffffffff021916908373ffffffffffffffffffffffffffffffffffffffff160217905550808273ffffffffffffffffffffffffffffffffffffffff166122fc83610dce565b73ffffffffffffffffffffffffffffffffffffffff167f8c5be1e5ebec7d5bd14f71427d1e84f3dd0314c0f7b2291e5b200ac8c7c3b92560405160405180910390a45050565b61235361234d612281565b82612c12565b612392576040517f08c379a000000000000000000000000000000000000000000000000000000000815260040161238990614c4f565b60405180910390fd5b61239d838383612ca7565b505050565b6123aa612281565b73ffffffffffffffffffffffffffffffffffffffff166123c861104a565b73ffffffffffffffffffffffffffffffffffffffff161461241e576040517f08c379a000000000000000000000000000000000000000000000000000000000815260040161241590614cbb565b60405180910390fd5b565b61243161242b612281565b83612c12565b612470576040517f08c379a000000000000000000000000000000000000000000000000000000000815260040161246790614c4f565b60405180910390fd5b61247c84848484612fa0565b50505050565b60006002600083815260200190815260200160002060009054906101000a900473ffffffffffffffffffffffffffffffffffffffff169050919050565b6000600a60009054906101000a900473ffffffffffffffffffffffffffffffffffffffff16905081600a60006101000a81548173ffffffffffffffffffffffffffffffffffffffff021916908373ffffffffffffffffffffffffffffffffffffffff1602179055508173ffffffffffffffffffffffffffffffffffffffff168173ffffffffffffffffffffffffffffffffffffffff167f8be0079c531659141344cd1fd0a4f28419497f9722a3daafe3b4186f6b6457e060405160405180910390a35050565b8173ffffffffffffffffffffffffffffffffffffffff168373ffffffffffffffffffffffffffffffffffffffff16036125f3576040517f08c379a00000000000000000000000000000000000000000000000000000000081526004016125ea90614d27565b60405180910390fd5b80600560008573ffffffffffffffffffffffffffffffffffffffff1673ffffffffffffffffffffffffffffffffffffffff16815260200190815260200160002060008473ffffffffffffffffffffffffffffffffffffffff1673ffffffffffffffffffffffffffffffffffffffff16815260200190815260200160002060006101000a81548160ff0219169083151502179055508173ffffffffffffffffffffffffffffffffffffffff168373ffffffffffffffffffffffffffffffffffffffff167f17307eab39ab6107e8899845ad3d59bd9653f200f220920489ca2b5937696c31836040516126e491906136af565b60405180910390a3505050565b806009600084815260200190815260200160002090816127119190614ee9565b505050565b6000826127238584612ffc565b1490509392505050565b600073ffffffffffffffffffffffffffffffffffffffff168273ffffffffffffffffffffffffffffffffffffffff160361279c576040517f08c379a000000000000000000000000000000000000000000000000000000000815260040161279390615007565b60405180910390fd5b6127a581612bd1565b156127e5576040517f08c379a00000000000000000000000000000000000000000000000000000000081526004016127dc90615073565b60405180910390fd5b6127f3600083836001613052565b6127fc81612bd1565b1561283c576040517f08c379a000000000000000000000000000000000000000000000000000000000815260040161283390615073565b60405180910390fd5b6001600360008473ffffffffffffffffffffffffffffffffffffffff1673ffffffffffffffffffffffffffffffffffffffff16815260200190815260200160002060008282540192505081905550816002600083815260200190815260200160002060006101000a81548173ffffffffffffffffffffffffffffffffffffffff021916908373ffffffffffffffffffffffffffffffffffffffff160217905550808273ffffffffffffffffffffffffffffffffffffffff16600073ffffffffffffffffffffffffffffffffffffffff167fddf252ad1be2c89b69c2b068fc378daa952ba7f163c4a11628f55a4df523b3ef60405160405180910390a4612946600083836001613178565b5050565b606060088054612959906140dd565b80601f0160208091040260200160405190810160405280929190818152602001828054612985906140dd565b80156129d25780601f106129a7576101008083540402835291602001916129d2565b820191906000526020600020905b8154815290600101906020018083116129b557829003601f168201915b5050505050905090565b60606129e782612236565b60006129f161294a565b90506000815111612a115760405180602001604052806000815250612a3c565b80612a1b8461317e565b604051602001612a2c9291906148df565b6040516020818303038152906040525b915050919050565b612a4e3384612c12565b612a8d576040517f08c379a0000000000000000000000000000000000000000000000000000000008152600401612a8490615105565b60405180910390fd5b6000600760008581526020019081526020016000209050828160000160006101000a81548173ffffffffffffffffffffffffffffffffffffffff021916908373ffffffffffffffffffffffffffffffffffffffff160217905550818160000160146101000a81548167ffffffffffffffff021916908367ffffffffffffffff1602179055508273ffffffffffffffffffffffffffffffffffffffff16847f4e06b4e7000e659094299b3533b47b6aa8ad048e95e872d23d1f4ee55af89cfe84604051612b599190615134565b60405180910390a350505050565b60007f01ffc9a7000000000000000000000000000000000000000000000000000000007bffffffffffffffffffffffffffffffffffffffffffffffffffffffff1916827bffffffffffffffffffffffffffffffffffffffffffffffffffffffff1916149050919050565b60008073ffffffffffffffffffffffffffffffffffffffff16612bf383612482565b73ffffffffffffffffffffffffffffffffffffffff1614159050919050565b600080612c1e83610dce565b90508073ffffffffffffffffffffffffffffffffffffffff168473ffffffffffffffffffffffffffffffffffffffff161480612c605750612c5f8185611e18565b5b80612c9e57508373ffffffffffffffffffffffffffffffffffffffff16612c86846108bf565b73ffffffffffffffffffffffffffffffffffffffff16145b91505092915050565b8273ffffffffffffffffffffffffffffffffffffffff16612cc782610dce565b73ffffffffffffffffffffffffffffffffffffffff1614612d1d576040517f08c379a0000000000000000000000000000000000000000000000000000000008152600401612d14906142a4565b60405180910390fd5b600073ffffffffffffffffffffffffffffffffffffffff168273ffffffffffffffffffffffffffffffffffffffff1603612d8c576040517f08c379a0000000000000000000000000000000000000000000000000000000008152600401612d8390614336565b60405180910390fd5b612d998383836001613052565b8273ffffffffffffffffffffffffffffffffffffffff16612db982610dce565b73ffffffffffffffffffffffffffffffffffffffff1614612e0f576040517f08c379a0000000000000000000000000000000000000000000000000000000008152600401612e06906142a4565b60405180910390fd5b6004600082815260200190815260200160002060006101000a81549073ffffffffffffffffffffffffffffffffffffffff02191690556001600360008573ffffffffffffffffffffffffffffffffffffffff1673ffffffffffffffffffffffffffffffffffffffff168152602001908152602001600020600082825403925050819055506001600360008473ffffffffffffffffffffffffffffffffffffffff1673ffffffffffffffffffffffffffffffffffffffff16815260200190815260200160002060008282540192505081905550816002600083815260200190815260200160002060006101000a81548173ffffffffffffffffffffffffffffffffffffffff021916908373ffffffffffffffffffffffffffffffffffffffff160217905550808273ffffffffffffffffffffffffffffffffffffffff168473ffffffffffffffffffffffffffffffffffffffff167fddf252ad1be2c89b69c2b068fc378daa952ba7f163c4a11628f55a4df523b3ef60405160405180910390a4612f9b8383836001613178565b505050565b612fab848484612ca7565b612fb78484848461324c565b612ff6576040517f08c379a0000000000000000000000000000000000000000000000000000000008152600401612fed906151c1565b60405180910390fd5b50505050565b60008082905060005b84518110156130475761303282868381518110613025576130246151e1565b5b60200260200101516133d3565b9150808061303f90615210565b915050613005565b508091505092915050565b600181111561317257600073ffffffffffffffffffffffffffffffffffffffff168473ffffffffffffffffffffffffffffffffffffffff16146130e65780600360008673ffffffffffffffffffffffffffffffffffffffff1673ffffffffffffffffffffffffffffffffffffffff16815260200190815260200160002060008282546130de9190615258565b925050819055505b600073ffffffffffffffffffffffffffffffffffffffff168373ffffffffffffffffffffffffffffffffffffffff16146131715780600360008573ffffffffffffffffffffffffffffffffffffffff1673ffffffffffffffffffffffffffffffffffffffff168152602001908152602001600020600082825461316991906147cc565b925050819055505b5b50505050565b50505050565b60606000600161318d846133fe565b01905060008167ffffffffffffffff8111156131ac576131ab6139c7565b5b6040519080825280601f01601f1916602001820160405280156131de5781602001600182028036833780820191505090505b509050600082602001820190505b600115613241578080600190039150507f3031323334353637383961626364656600000000000000000000000000000000600a86061a8153600a85816132355761323461528c565b5b049450600085036131ec575b819350505050919050565b600061326d8473ffffffffffffffffffffffffffffffffffffffff16613551565b156133c6578373ffffffffffffffffffffffffffffffffffffffff1663150b7a02613296612281565b8786866040518563ffffffff1660e01b81526004016132b89493929190615310565b6020604051808303816000875af19250505080156132f457506040513d601f19601f820116820180604052508101906132f19190615371565b60015b613376573d8060008114613324576040519150601f19603f3d011682016040523d82523d6000602084013e613329565b606091505b50600081510361336e576040517f08c379a0000000000000000000000000000000000000000000000000000000008152600401613365906151c1565b60405180910390fd5b805181602001fd5b63150b7a0260e01b7bffffffffffffffffffffffffffffffffffffffffffffffffffffffff1916817bffffffffffffffffffffffffffffffffffffffffffffffffffffffff1916149150506133cb565b600190505b949350505050565b60008183106133eb576133e68284613574565b6133f6565b6133f58383613574565b5b905092915050565b600080600090507a184f03e93ff9f4daa797ed6e38ed64bf6a1f010000000000000000831061345c577a184f03e93ff9f4daa797ed6e38ed64bf6a1f01000000000000000083816134525761345161528c565b5b0492506040810190505b6d04ee2d6d415b85acef81000000008310613499576d04ee2d6d415b85acef8100000000838161348f5761348e61528c565b5b0492506020810190505b662386f26fc1000083106134c857662386f26fc1000083816134be576134bd61528c565b5b0492506010810190505b6305f5e10083106134f1576305f5e10083816134e7576134e661528c565b5b0492506008810190505b612710831061351657612710838161350c5761350b61528c565b5b0492506004810190505b60648310613539576064838161352f5761352e61528c565b5b0492506002810190505b600a8310613548576001810190505b80915050919050565b6000808273ffffffffffffffffffffffffffffffffffffffff163b119050919050565b600082600052816020526040600020905092915050565b604051806101400160405280600015158152602001600015158152602001600081526020016000815260200160008152602001600081526020016000815260200160008152602001600073ffffffffffffffffffffffffffffffffffffffff168152602001600080191681525090565b6000604051905090565b600080fd5b600080fd5b60007fffffffff0000000000000000000000000000000000000000000000000000000082169050919050565b6136448161360f565b811461364f57600080fd5b50565b6000813590506136618161363b565b92915050565b60006020828403121561367d5761367c613605565b5b600061368b84828501613652565b91505092915050565b60008115159050919050565b6136a981613694565b82525050565b60006020820190506136c460008301846136a0565b92915050565b600081519050919050565b600082825260208201905092915050565b60005b838110156137045780820151818401526020810190506136e9565b60008484015250505050565b6000601f19601f8301169050919050565b600061372c826136ca565b61373681856136d5565b93506137468185602086016136e6565b61374f81613710565b840191505092915050565b600060208201905081810360008301526137748184613721565b905092915050565b6000819050919050565b61378f8161377c565b811461379a57600080fd5b50565b6000813590506137ac81613786565b92915050565b6000602082840312156137c8576137c7613605565b5b60006137d68482850161379d565b91505092915050565b600073ffffffffffffffffffffffffffffffffffffffff82169050919050565b600061380a826137df565b9050919050565b61381a816137ff565b82525050565b60006020820190506138356000830184613811565b92915050565b613844816137ff565b811461384f57600080fd5b50565b6000813590506138618161383b565b92915050565b6000806040838503121561387e5761387d613605565b5b600061388c85828601613852565b925050602061389d8582860161379d565b9150509250929050565b6000806000606084860312156138c0576138bf613605565b5b60006138ce86828701613852565b93505060206138df86828701613852565b92505060406138f08682870161379d565b9150509250925092565b6139038161377c565b82525050565b600060208201905061391e60008301846138fa565b92915050565b60006020828403121561393a57613939613605565b5b600061394884828501613852565b91505092915050565b61395a81613694565b811461396557600080fd5b50565b60008135905061397781613951565b92915050565b6000806040838503121561399457613993613605565b5b60006139a285828601613852565b92505060206139b385828601613968565b9150509250929050565b600080fd5b600080fd5b7f4e487b7100000000000000000000000000000000000000000000000000000000600052604160045260246000fd5b6139ff82613710565b810181811067ffffffffffffffff82111715613a1e57613a1d6139c7565b5b80604052505050565b6000613a316135fb565b9050613a3d82826139f6565b919050565b600067ffffffffffffffff821115613a5d57613a5c6139c7565b5b613a6682613710565b9050602081019050919050565b82818337600083830152505050565b6000613a95613a9084613a42565b613a27565b905082815260208101848484011115613ab157613ab06139c2565b5b613abc848285613a73565b509392505050565b600082601f830112613ad957613ad86139bd565b5b8135613ae9848260208601613a82565b91505092915050565b600080fd5b6000819050919050565b613b0a81613af7565b8114613b1557600080fd5b50565b600081359050613b2781613b01565b92915050565b60006101408284031215613b4457613b43613af2565b5b613b4f610140613a27565b90506000613b5f84828501613968565b6000830152506020613b7384828501613968565b6020830152506040613b878482850161379d565b6040830152506060613b9b8482850161379d565b6060830152506080613baf8482850161379d565b60808301525060a0613bc38482850161379d565b60a08301525060c0613bd78482850161379d565b60c08301525060e0613beb8482850161379d565b60e083015250610100613c0084828501613852565b61010083015250610120613c1684828501613b18565b6101208301525092915050565b6000806101608385031215613c3b57613c3a613605565b5b600083013567ffffffffffffffff811115613c5957613c5861360a565b5b613c6585828601613ac4565b9250506020613c7685828601613b2d565b9150509250929050565b600067ffffffffffffffff821115613c9b57613c9a6139c7565b5b613ca482613710565b9050602081019050919050565b6000613cc4613cbf84613c80565b613a27565b905082815260208101848484011115613ce057613cdf6139c2565b5b613ceb848285613a73565b509392505050565b600082601f830112613d0857613d076139bd565b5b8135613d18848260208601613cb1565b91505092915050565b60008060008060808587031215613d3b57613d3a613605565b5b6000613d4987828801613852565b9450506020613d5a87828801613852565b9350506040613d6b8782880161379d565b925050606085013567ffffffffffffffff811115613d8c57613d8b61360a565b5b613d9887828801613cf3565b91505092959194509250565b600080fd5b600080fd5b60008083601f840112613dc457613dc36139bd565b5b8235905067ffffffffffffffff811115613de157613de0613da4565b5b602083019150836020820283011115613dfd57613dfc613da9565b5b9250929050565b600080600060408486031215613e1d57613e1c613605565b5b6000613e2b8682870161379d565b935050602084013567ffffffffffffffff811115613e4c57613e4b61360a565b5b613e5886828701613dae565b92509250509250925092565b600067ffffffffffffffff82169050919050565b613e8181613e64565b8114613e8c57600080fd5b50565b600081359050613e9e81613e78565b92915050565b600080600060608486031215613ebd57613ebc613605565b5b6000613ecb8682870161379d565b9350506020613edc86828701613852565b9250506040613eed86828701613e8f565b9150509250925092565b600080600060608486031215613f1057613f0f613605565b5b6000613f1e86828701613852565b9350506020613f2f8682870161379d565b9250506040613f408682870161379d565b9150509250925092565b60008060408385031215613f6157613f60613605565b5b6000613f6f85828601613852565b9250506020613f8085828601613852565b9150509250929050565b613f9381613694565b82525050565b613fa28161377c565b82525050565b613fb1816137ff565b82525050565b613fc081613af7565b82525050565b61014082016000820151613fdd6000850182613f8a565b506020820151613ff06020850182613f8a565b5060408201516140036040850182613f99565b5060608201516140166060850182613f99565b5060808201516140296080850182613f99565b5060a082015161403c60a0850182613f99565b5060c082015161404f60c0850182613f99565b5060e082015161406260e0850182613f99565b50610100820151614077610100850182613fa8565b5061012082015161408c610120850182613fb7565b50505050565b6000610140820190506140a86000830184613fc6565b92915050565b7f4e487b7100000000000000000000000000000000000000000000000000000000600052602260045260246000fd5b600060028204905060018216806140f557607f821691505b602082108103614108576141076140ae565b5b50919050565b7f4552433732313a20617070726f76616c20746f2063757272656e74206f776e6560008201527f7200000000000000000000000000000000000000000000000000000000000000602082015250565b600061416a6021836136d5565b91506141758261410e565b604082019050919050565b600060208201905081810360008301526141998161415d565b9050919050565b7f4552433732313a20617070726f76652063616c6c6572206973206e6f7420746f60008201527f6b656e206f776e6572206f7220617070726f76656420666f7220616c6c000000602082015250565b60006141fc603d836136d5565b9150614207826141a0565b604082019050919050565b6000602082019050818103600083015261422b816141ef565b9050919050565b7f4552433732313a207472616e736665722066726f6d20696e636f72726563742060008201527f6f776e6572000000000000000000000000000000000000000000000000000000602082015250565b600061428e6025836136d5565b915061429982614232565b604082019050919050565b600060208201905081810360008301526142bd81614281565b9050919050565b7f4552433732313a207472616e7366657220746f20746865207a65726f2061646460008201527f7265737300000000000000000000000000000000000000000000000000000000602082015250565b60006143206024836136d5565b915061432b826142c4565b604082019050919050565b6000602082019050818103600083015261434f81614313565b9050919050565b7f746f6b656e4964206973206e6f74207472616e7366657261626c650000000000600082015250565b600061438c601b836136d5565b915061439782614356565b602082019050919050565b600060208201905081810360008301526143bb8161437f565b9050919050565b7f4552433732313a20696e76616c696420746f6b656e2049440000000000000000600082015250565b60006143f86018836136d5565b9150614403826143c2565b602082019050919050565b60006020820190508181036000830152614427816143eb565b9050919050565b7f4552433732313a2061646472657373207a65726f206973206e6f74206120766160008201527f6c6964206f776e65720000000000000000000000000000000000000000000000602082015250565b600061448a6029836136d5565b91506144958261442e565b604082019050919050565b600060208201905081810360008301526144b98161447d565b9050919050565b6000819050919050565b60006144e56144e06144db846137df565b6144c0565b6137df565b9050919050565b60006144f7826144ca565b9050919050565b6000614509826144ec565b9050919050565b614519816144fe565b82525050565b60006040820190506145346000830185614510565b61454160208301846138fa565b9392505050565b60008151905061455781613951565b92915050565b60006020828403121561457357614572613605565b5b600061458184828501614548565b91505092915050565b7f696e76616c696420746f6b656e49640000000000000000000000000000000000600082015250565b60006145c0600f836136d5565b91506145cb8261458a565b602082019050919050565b600060208201905081810360008301526145ef816145b3565b9050919050565b7f7072696365206d75737420626520736574000000000000000000000000000000600082015250565b600061462c6011836136d5565b9150614637826145f6565b602082019050919050565b6000602082019050818103600083015261465b8161461f565b9050919050565b60008160601b9050919050565b600061467a82614662565b9050919050565b600061468c8261466f565b9050919050565b6146a461469f826137ff565b614681565b82525050565b60006146b68284614693565b60148201915081905092915050565b7f61646472657373206e6f742077686974656c6973746564000000000000000000600082015250565b60006146fb6017836136d5565b9150614706826146c5565b602082019050919050565b6000602082019050818103600083015261472a816146ee565b9050919050565b7f696e73756666696369656e74207061796d656e74000000000000000000000000600082015250565b60006147676014836136d5565b915061477282614731565b602082019050919050565b600060208201905081810360008301526147968161475a565b9050919050565b7f4e487b7100000000000000000000000000000000000000000000000000000000600052601160045260246000fd5b60006147d78261377c565b91506147e28361377c565b92508282019050808211156147fa576147f961479d565b5b92915050565b60006060820190506148156000830186613811565b6148226020830185613811565b61482f60408301846138fa565b949350505050565b7f696e73756666696369656e74204552433230207061796d656e74000000000000600082015250565b600061486d601a836136d5565b915061487882614837565b602082019050919050565b6000602082019050818103600083015261489c81614860565b9050919050565b600081905092915050565b60006148b9826136ca565b6148c381856148a3565b93506148d38185602086016136e6565b80840191505092915050565b60006148eb82856148ae565b91506148f782846148ae565b91508190509392505050565b7f72656e7461626c652074696d696e67206973207374696c6c20696e76616c696460008201527f20666f72207468697320746f6b656e2069640000000000000000000000000000602082015250565b600061495f6032836136d5565b915061496a82614903565b604082019050919050565b6000602082019050818103600083015261498e81614952565b9050919050565b7f72656e7461626c652074696d696e6720686173206578706972656420666f722060008201527f7468697320746f6b656e20696400000000000000000000000000000000000000602082015250565b60006149f1602d836136d5565b91506149fc82614995565b604082019050919050565b60006020820190508181036000830152614a20816149e4565b9050919050565b7f6672616374696f6e616c206f7074696f6e73206e6f7420616c6c6f776564206660008201527f6f72207468697320746f6b656e49640000000000000000000000000000000000602082015250565b6000614a83602f836136d5565b9150614a8e82614a27565b604082019050919050565b60006020820190508181036000830152614ab281614a76565b9050919050565b7f6d73672e73656e64657220646f65736e2774206861766520656e6f756768206660008201527f72616e63696f6e616c2062616c616e6365000000000000000000000000000000602082015250565b6000614b156031836136d5565b9150614b2082614ab9565b604082019050919050565b60006020820190508181036000830152614b4481614b08565b9050919050565b7f4f776e61626c653a206e6577206f776e657220697320746865207a65726f206160008201527f6464726573730000000000000000000000000000000000000000000000000000602082015250565b6000614ba76026836136d5565b9150614bb282614b4b565b604082019050919050565b60006020820190508181036000830152614bd681614b9a565b9050919050565b7f4552433732313a2063616c6c6572206973206e6f7420746f6b656e206f776e6560008201527f72206f7220617070726f76656400000000000000000000000000000000000000602082015250565b6000614c39602d836136d5565b9150614c4482614bdd565b604082019050919050565b60006020820190508181036000830152614c6881614c2c565b9050919050565b7f4f776e61626c653a2063616c6c6572206973206e6f7420746865206f776e6572600082015250565b6000614ca56020836136d5565b9150614cb082614c6f565b602082019050919050565b60006020820190508181036000830152614cd481614c98565b9050919050565b7f4552433732313a20617070726f766520746f2063616c6c657200000000000000600082015250565b6000614d116019836136d5565b9150614d1c82614cdb565b602082019050919050565b60006020820190508181036000830152614d4081614d04565b9050919050565b60008190508160005260206000209050919050565b60006020601f8301049050919050565b600082821b905092915050565b600060088302614da97fffffffffffffffffffffffffffffffffffffffffffffffffffffffffffffffff82614d6c565b614db38683614d6c565b95508019841693508086168417925050509392505050565b6000614de6614de1614ddc8461377c565b6144c0565b61377c565b9050919050565b6000819050919050565b614e0083614dcb565b614e14614e0c82614ded565b848454614d79565b825550505050565b600090565b614e29614e1c565b614e34818484614df7565b505050565b5b81811015614e5857614e4d600082614e21565b600181019050614e3a565b5050565b601f821115614e9d57614e6e81614d47565b614e7784614d5c565b81016020851015614e86578190505b614e9a614e9285614d5c565b830182614e39565b50505b505050565b600082821c905092915050565b6000614ec060001984600802614ea2565b1980831691505092915050565b6000614ed98383614eaf565b9150826002028217905092915050565b614ef2826136ca565b67ffffffffffffffff811115614f0b57614f0a6139c7565b5b614f1582546140dd565b614f20828285614e5c565b600060209050601f831160018114614f535760008415614f41578287015190505b614f4b8582614ecd565b865550614fb3565b601f198416614f6186614d47565b60005b82811015614f8957848901518255600182019150602085019450602081019050614f64565b86831015614fa65784890151614fa2601f891682614eaf565b8355505b6001600288020188555050505b505050505050565b7f4552433732313a206d696e7420746f20746865207a65726f2061646472657373600082015250565b6000614ff16020836136d5565b9150614ffc82614fbb565b602082019050919050565b6000602082019050818103600083015261502081614fe4565b9050919050565b7f4552433732313a20746f6b656e20616c7265616479206d696e74656400000000600082015250565b600061505d601c836136d5565b915061506882615027565b602082019050919050565b6000602082019050818103600083015261508c81615050565b9050919050565b7f4552433732313a207472616e736665722063616c6c6572206973206e6f74206f60008201527f776e6572206e6f7220617070726f766564000000000000000000000000000000602082015250565b60006150ef6031836136d5565b91506150fa82615093565b604082019050919050565b6000602082019050818103600083015261511e816150e2565b9050919050565b61512e81613e64565b82525050565b60006020820190506151496000830184615125565b92915050565b7f4552433732313a207472616e7366657220746f206e6f6e20455243373231526560008201527f63656976657220696d706c656d656e7465720000000000000000000000000000602082015250565b60006151ab6032836136d5565b91506151b68261514f565b604082019050919050565b600060208201905081810360008301526151da8161519e565b9050919050565b7f4e487b7100000000000000000000000000000000000000000000000000000000600052603260045260246000fd5b600061521b8261377c565b91507fffffffffffffffffffffffffffffffffffffffffffffffffffffffffffffffff820361524d5761524c61479d565b5b600182019050919050565b60006152638261377c565b915061526e8361377c565b92508282039050818111156152865761528561479d565b5b92915050565b7f4e487b7100000000000000000000000000000000000000000000000000000000600052601260045260246000fd5b600081519050919050565b600082825260208201905092915050565b60006152e2826152bb565b6152ec81856152c6565b93506152fc8185602086016136e6565b61530581613710565b840191505092915050565b60006080820190506153256000830187613811565b6153326020830186613811565b61533f60408301856138fa565b818103606083015261535181846152d7565b905095945050505050565b60008151905061536b8161363b565b92915050565b60006020828403121561538757615386613605565b5b60006153958482850161535c565b9150509291505056fea26469706673582212205afae8dc6fd6dcc94553ce0a6cdff7d5a14e01b9cb960e88d1dedb6f31f0224a64736f6c63430008110033",
  "linkReferences": {},
  "deployedLinkReferences": {}
}