{
  "_format": "hh-sol-artifact-1",
  "contractName": "LibreNFT721",
  "sourceName": "contracts/LibreNFT721.sol",
  "abi": [
    {
      "inputs": [
        {
          "internalType": "string",
          "name": "_name",
          "type": "string"
        },
        {
          "internalType": "string",
          "name": "_symbol",
          "type": "string"
        },
        {
          "internalType": "string",
          "name": "_collectionUri",
          "type": "string"
        },
        {
          "internalType": "string",
          "name": "_tokenUri",
          "type": "string"
        },
        {
          "components": [
            {
              "internalType": "bool",
              "name": "_unlockable",
              "type": "bool"
            },
            {
              "internalType": "bool",
              "name": "_transferable",
              "type": "bool"
            },
            {
              "internalType": "bool",
              "name": "_rentable",
              "type": "bool"
            },
            {
              "internalType": "uint256",
              "name": "_tokenPrice",
              "type": "uint256"
            },
            {
              "internalType": "uint256",
              "name": "_fractions",
              "type": "uint256"
            },
            {
              "internalType": "address",
              "name": "_paymentToken",
              "type": "address"
            },
            {
              "internalType": "bytes32",
              "name": "_whitelist",
              "type": "bytes32"
            },
            {
              "internalType": "bool",
              "name": "_isOnSale",
              "type": "bool"
            },
            {
              "internalType": "bool",
              "name": "_isTFUnlockable",
              "type": "bool"
            }
          ],
          "internalType": "struct LibreNFTProps",
          "name": "_props",
          "type": "tuple"
        }
      ],
      "stateMutability": "nonpayable",
      "type": "constructor"
    },
    {
      "anonymous": false,
      "inputs": [
        {
          "indexed": true,
          "internalType": "address",
          "name": "owner",
          "type": "address"
        },
        {
          "indexed": true,
          "internalType": "address",
          "name": "approved",
          "type": "address"
        },
        {
          "indexed": true,
          "internalType": "uint256",
          "name": "tokenId",
          "type": "uint256"
        }
      ],
      "name": "Approval",
      "type": "event"
    },
    {
      "anonymous": false,
      "inputs": [
        {
          "indexed": true,
          "internalType": "address",
          "name": "owner",
          "type": "address"
        },
        {
          "indexed": true,
          "internalType": "address",
          "name": "operator",
          "type": "address"
        },
        {
          "indexed": false,
          "internalType": "bool",
          "name": "approved",
          "type": "bool"
        }
      ],
      "name": "ApprovalForAll",
      "type": "event"
    },
    {
      "anonymous": false,
      "inputs": [
        {
          "indexed": true,
          "internalType": "address",
          "name": "previousOwner",
          "type": "address"
        },
        {
          "indexed": true,
          "internalType": "address",
          "name": "newOwner",
          "type": "address"
        }
      ],
      "name": "OwnershipTransferred",
      "type": "event"
    },
    {
      "anonymous": false,
      "inputs": [
        {
          "indexed": true,
          "internalType": "address",
          "name": "from",
          "type": "address"
        },
        {
          "indexed": true,
          "internalType": "address",
          "name": "to",
          "type": "address"
        },
        {
          "indexed": true,
          "internalType": "uint256",
          "name": "tokenId",
          "type": "uint256"
        }
      ],
      "name": "Transfer",
      "type": "event"
    },
    {
      "anonymous": false,
      "inputs": [
        {
          "indexed": true,
          "internalType": "uint256",
          "name": "tokenId",
          "type": "uint256"
        },
        {
          "indexed": true,
          "internalType": "address",
          "name": "user",
          "type": "address"
        },
        {
          "indexed": false,
          "internalType": "uint64",
          "name": "expires",
          "type": "uint64"
        }
      ],
      "name": "UpdateUser",
      "type": "event"
    },
    {
      "inputs": [
        {
          "internalType": "string",
          "name": "_uri",
          "type": "string"
        },
        {
          "components": [
            {
              "internalType": "bool",
              "name": "_unlockable",
              "type": "bool"
            },
            {
              "internalType": "bool",
              "name": "_transferable",
              "type": "bool"
            },
            {
              "internalType": "bool",
              "name": "_rentable",
              "type": "bool"
            },
            {
              "internalType": "uint256",
              "name": "_tokenPrice",
              "type": "uint256"
            },
            {
              "internalType": "uint256",
              "name": "_fractions",
              "type": "uint256"
            },
            {
              "internalType": "address",
              "name": "_paymentToken",
              "type": "address"
            },
            {
              "internalType": "bytes32",
              "name": "_whitelist",
              "type": "bytes32"
            },
            {
              "internalType": "bool",
              "name": "_isOnSale",
              "type": "bool"
            },
            {
              "internalType": "bool",
              "name": "_isTFUnlockable",
              "type": "bool"
            }
          ],
          "internalType": "struct LibreNFTProps",
          "name": "_props",
          "type": "tuple"
        }
      ],
      "name": "addInventory",
      "outputs": [
        {
          "internalType": "uint256",
          "name": "",
          "type": "uint256"
        }
      ],
      "stateMutability": "nonpayable",
      "type": "function"
    },
    {
      "inputs": [
        {
          "internalType": "address",
          "name": "to",
          "type": "address"
        },
        {
          "internalType": "uint256",
          "name": "tokenId",
          "type": "uint256"
        }
      ],
      "name": "approve",
      "outputs": [],
      "stateMutability": "nonpayable",
      "type": "function"
    },
    {
      "inputs": [],
      "name": "availableToWithdraw",
      "outputs": [
        {
          "internalType": "uint256",
          "name": "",
          "type": "uint256"
        }
      ],
      "stateMutability": "view",
      "type": "function"
    },
    {
      "inputs": [
        {
          "internalType": "address",
          "name": "owner",
          "type": "address"
        }
      ],
      "name": "balanceOf",
      "outputs": [
        {
          "internalType": "uint256",
          "name": "",
          "type": "uint256"
        }
      ],
      "stateMutability": "view",
      "type": "function"
    },
    {
      "inputs": [
        {
          "internalType": "uint256",
          "name": "_tokenId",
          "type": "uint256"
        }
      ],
      "name": "cancelRents",
      "outputs": [],
      "stateMutability": "nonpayable",
      "type": "function"
    },
    {
      "inputs": [
        {
          "internalType": "address",
          "name": "_user",
          "type": "address"
        },
        {
          "internalType": "uint256",
          "name": "_tokenId",
          "type": "uint256"
        }
      ],
      "name": "fractionsOf",
      "outputs": [
        {
          "internalType": "uint256",
          "name": "",
          "type": "uint256"
        }
      ],
      "stateMutability": "view",
      "type": "function"
    },
    {
      "inputs": [
        {
          "internalType": "uint256",
          "name": "tokenId",
          "type": "uint256"
        }
      ],
      "name": "getApproved",
      "outputs": [
        {
          "internalType": "address",
          "name": "",
          "type": "address"
        }
      ],
      "stateMutability": "view",
      "type": "function"
    },
    {
      "inputs": [],
      "name": "getCounter",
      "outputs": [
        {
          "internalType": "uint256",
          "name": "",
          "type": "uint256"
        }
      ],
      "stateMutability": "view",
      "type": "function"
    },
    {
      "inputs": [
        {
          "internalType": "uint256",
          "name": "_tokenId",
          "type": "uint256"
        }
      ],
      "name": "getTimeFramedUnlockable",
      "outputs": [
        {
          "internalType": "bool",
          "name": "_isTFUnlockable",
          "type": "bool"
        },
        {
          "internalType": "uint256",
          "name": "timeframeFrom",
          "type": "uint256"
        },
        {
          "internalType": "uint256",
          "name": "timeframeTo",
          "type": "uint256"
        }
      ],
      "stateMutability": "view",
      "type": "function"
    },
    {
      "inputs": [
        {
          "internalType": "uint256",
          "name": "_tokenId",
          "type": "uint256"
        }
      ],
      "name": "getTokenProps",
      "outputs": [
        {
          "components": [
            {
              "internalType": "bool",
              "name": "_unlockable",
              "type": "bool"
            },
            {
              "internalType": "bool",
              "name": "_transferable",
              "type": "bool"
            },
            {
              "internalType": "bool",
              "name": "_rentable",
              "type": "bool"
            },
            {
              "internalType": "uint256",
              "name": "_tokenPrice",
              "type": "uint256"
            },
            {
              "internalType": "uint256",
              "name": "_fractions",
              "type": "uint256"
            },
            {
              "internalType": "address",
              "name": "_paymentToken",
              "type": "address"
            },
            {
              "internalType": "bytes32",
              "name": "_whitelist",
              "type": "bytes32"
            },
            {
              "internalType": "bool",
              "name": "_isOnSale",
              "type": "bool"
            },
            {
              "internalType": "bool",
              "name": "_isTFUnlockable",
              "type": "bool"
            }
          ],
          "internalType": "struct LibreNFTProps",
          "name": "",
          "type": "tuple"
        }
      ],
      "stateMutability": "view",
      "type": "function"
    },
    {
      "inputs": [
        {
          "internalType": "address",
          "name": "owner",
          "type": "address"
        },
        {
          "internalType": "address",
          "name": "operator",
          "type": "address"
        }
      ],
      "name": "isApprovedForAll",
      "outputs": [
        {
          "internalType": "bool",
          "name": "",
          "type": "bool"
        }
      ],
      "stateMutability": "view",
      "type": "function"
    },
    {
      "inputs": [
        {
          "internalType": "uint256",
          "name": "_tokenId",
          "type": "uint256"
        }
      ],
      "name": "isForRent",
      "outputs": [
        {
          "internalType": "bool",
          "name": "",
          "type": "bool"
        }
      ],
      "stateMutability": "view",
      "type": "function"
    },
    {
      "inputs": [
        {
          "internalType": "uint256",
          "name": "_tokenId",
          "type": "uint256"
        },
        {
          "internalType": "bytes32[]",
          "name": "_merkleProof",
          "type": "bytes32[]"
        }
      ],
      "name": "mint",
      "outputs": [],
      "stateMutability": "payable",
      "type": "function"
    },
    {
      "inputs": [],
      "name": "name",
      "outputs": [
        {
          "internalType": "string",
          "name": "",
          "type": "string"
        }
      ],
      "stateMutability": "view",
      "type": "function"
    },
    {
      "inputs": [],
      "name": "owner",
      "outputs": [
        {
          "internalType": "address",
          "name": "",
          "type": "address"
        }
      ],
      "stateMutability": "view",
      "type": "function"
    },
    {
      "inputs": [
        {
          "internalType": "uint256",
          "name": "tokenId",
          "type": "uint256"
        }
      ],
      "name": "ownerOf",
      "outputs": [
        {
          "internalType": "address",
          "name": "",
          "type": "address"
        }
      ],
      "stateMutability": "view",
      "type": "function"
    },
    {
      "inputs": [],
      "name": "renounceOwnership",
      "outputs": [],
      "stateMutability": "nonpayable",
      "type": "function"
    },
    {
      "inputs": [
        {
          "internalType": "uint256",
          "name": "_tokenId",
          "type": "uint256"
        },
        {
          "internalType": "uint64",
          "name": "_untilTime",
          "type": "uint64"
        }
      ],
      "name": "rent",
      "outputs": [],
      "stateMutability": "payable",
      "type": "function"
    },
    {
      "inputs": [
        {
          "internalType": "uint256",
          "name": "_tokenId",
          "type": "uint256"
        }
      ],
      "name": "rentPricePerDay",
      "outputs": [
        {
          "internalType": "uint256",
          "name": "",
          "type": "uint256"
        }
      ],
      "stateMutability": "view",
      "type": "function"
    },
    {
      "inputs": [
        {
          "internalType": "address",
          "name": "_from",
          "type": "address"
        },
        {
          "internalType": "address",
          "name": "_to",
          "type": "address"
        },
        {
          "internalType": "uint256",
          "name": "_tokenId",
          "type": "uint256"
        }
      ],
      "name": "safeTransferFrom",
      "outputs": [],
      "stateMutability": "nonpayable",
      "type": "function"
    },
    {
      "inputs": [
        {
          "internalType": "address",
          "name": "_from",
          "type": "address"
        },
        {
          "internalType": "address",
          "name": "_to",
          "type": "address"
        },
        {
          "internalType": "uint256",
          "name": "_tokenId",
          "type": "uint256"
        },
        {
          "internalType": "bytes",
          "name": "data",
          "type": "bytes"
        }
      ],
      "name": "safeTransferFrom",
      "outputs": [],
      "stateMutability": "nonpayable",
      "type": "function"
    },
    {
      "inputs": [
        {
          "internalType": "address",
          "name": "operator",
          "type": "address"
        },
        {
          "internalType": "bool",
          "name": "approved",
          "type": "bool"
        }
      ],
      "name": "setApprovalForAll",
      "outputs": [],
      "stateMutability": "nonpayable",
      "type": "function"
    },
    {
      "inputs": [
        {
          "internalType": "uint256",
          "name": "_tokenId",
          "type": "uint256"
        },
        {
          "internalType": "uint256",
          "name": "_pricePerDay",
          "type": "uint256"
        },
        {
          "internalType": "uint256",
          "name": "_untilTime",
          "type": "uint256"
        }
      ],
      "name": "setForRent",
      "outputs": [],
      "stateMutability": "nonpayable",
      "type": "function"
    },
    {
      "inputs": [
        {
          "internalType": "uint256",
          "name": "_tokenId",
          "type": "uint256"
        },
        {
          "internalType": "bool",
          "name": "_onSale",
          "type": "bool"
        }
      ],
      "name": "setOnSale",
      "outputs": [],
      "stateMutability": "nonpayable",
      "type": "function"
    },
    {
      "inputs": [
        {
          "internalType": "uint256",
          "name": "_tokenId",
          "type": "uint256"
        },
        {
          "internalType": "uint256",
          "name": "_tokenPrice",
          "type": "uint256"
        }
      ],
      "name": "setPrice",
      "outputs": [],
      "stateMutability": "nonpayable",
      "type": "function"
    },
    {
      "inputs": [
        {
          "internalType": "uint256",
          "name": "_tokenId",
          "type": "uint256"
        },
        {
          "internalType": "uint256",
          "name": "_fractionPrice",
          "type": "uint256"
        }
      ],
      "name": "setPricePerFraction",
      "outputs": [],
      "stateMutability": "nonpayable",
      "type": "function"
    },
    {
      "inputs": [
        {
          "internalType": "uint256",
          "name": "_tokenId",
          "type": "uint256"
        },
        {
          "internalType": "uint256",
          "name": "_pricePerDay",
          "type": "uint256"
        }
      ],
      "name": "setRentPricePerDay",
      "outputs": [],
      "stateMutability": "nonpayable",
      "type": "function"
    },
    {
      "inputs": [
        {
          "internalType": "uint256",
          "name": "_tokenId",
          "type": "uint256"
        },
        {
          "internalType": "bool",
          "name": "_isTFUnlockable",
          "type": "bool"
        },
        {
          "internalType": "uint256",
          "name": "_timeframeFrom",
          "type": "uint256"
        },
        {
          "internalType": "uint256",
          "name": "_timeframeTo",
          "type": "uint256"
        }
      ],
      "name": "setTimeFramedUnlockable",
      "outputs": [],
      "stateMutability": "nonpayable",
      "type": "function"
    },
    {
      "inputs": [
        {
          "internalType": "uint256",
          "name": "tokenId",
          "type": "uint256"
        },
        {
          "internalType": "address",
          "name": "user",
          "type": "address"
        },
        {
          "internalType": "uint64",
          "name": "expires",
          "type": "uint64"
        }
      ],
      "name": "setUser",
      "outputs": [],
      "stateMutability": "nonpayable",
      "type": "function"
    },
    {
      "inputs": [
        {
          "internalType": "uint256",
          "name": "_tokenId",
          "type": "uint256"
        },
        {
          "internalType": "bytes32",
          "name": "_whitelist",
          "type": "bytes32"
        }
      ],
      "name": "setWhitelist",
      "outputs": [],
      "stateMutability": "nonpayable",
      "type": "function"
    },
    {
      "inputs": [
        {
          "internalType": "bytes4",
          "name": "interfaceId",
          "type": "bytes4"
        }
      ],
      "name": "supportsInterface",
      "outputs": [
        {
          "internalType": "bool",
          "name": "",
          "type": "bool"
        }
      ],
      "stateMutability": "view",
      "type": "function"
    },
    {
      "inputs": [],
      "name": "symbol",
      "outputs": [
        {
          "internalType": "string",
          "name": "",
          "type": "string"
        }
      ],
      "stateMutability": "view",
      "type": "function"
    },
    {
      "inputs": [
        {
          "internalType": "uint256",
          "name": "tokenId",
          "type": "uint256"
        }
      ],
      "name": "tokenURI",
      "outputs": [
        {
          "internalType": "string",
          "name": "",
          "type": "string"
        }
      ],
      "stateMutability": "view",
      "type": "function"
    },
    {
      "inputs": [
        {
          "internalType": "uint256",
          "name": "_tokenId",
          "type": "uint256"
        }
      ],
      "name": "totalFractionsOf",
      "outputs": [
        {
          "internalType": "uint256",
          "name": "",
          "type": "uint256"
        }
      ],
      "stateMutability": "view",
      "type": "function"
    },
    {
      "inputs": [
        {
          "internalType": "address",
          "name": "_recipient",
          "type": "address"
        },
        {
          "internalType": "uint256",
          "name": "_tokenId",
          "type": "uint256"
        },
        {
          "internalType": "uint256",
          "name": "_amount",
          "type": "uint256"
        }
      ],
      "name": "transferFractions",
      "outputs": [],
      "stateMutability": "nonpayable",
      "type": "function"
    },
    {
      "inputs": [
        {
          "internalType": "address",
          "name": "_from",
          "type": "address"
        },
        {
          "internalType": "address",
          "name": "_to",
          "type": "address"
        },
        {
          "internalType": "uint256",
          "name": "_tokenId",
          "type": "uint256"
        }
      ],
      "name": "transferFrom",
      "outputs": [],
      "stateMutability": "nonpayable",
      "type": "function"
    },
    {
      "inputs": [
        {
          "internalType": "address",
          "name": "newOwner",
          "type": "address"
        }
      ],
      "name": "transferOwnership",
      "outputs": [],
      "stateMutability": "nonpayable",
      "type": "function"
    },
    {
      "inputs": [
        {
          "internalType": "uint256",
          "name": "tokenId",
          "type": "uint256"
        }
      ],
      "name": "userExpires",
      "outputs": [
        {
          "internalType": "uint256",
          "name": "",
          "type": "uint256"
        }
      ],
      "stateMutability": "view",
      "type": "function"
    },
    {
      "inputs": [
        {
          "internalType": "uint256",
          "name": "tokenId",
          "type": "uint256"
        }
      ],
      "name": "userOf",
      "outputs": [
        {
          "internalType": "address",
          "name": "",
          "type": "address"
        }
      ],
      "stateMutability": "view",
      "type": "function"
    },
    {
      "inputs": [],
      "name": "version",
      "outputs": [
        {
          "internalType": "uint256",
          "name": "",
          "type": "uint256"
        }
      ],
      "stateMutability": "pure",
      "type": "function"
    },
    {
      "inputs": [],
      "name": "withdraw",
      "outputs": [],
      "stateMutability": "nonpayable",
      "type": "function"
    },
    {
      "inputs": [
        {
          "internalType": "address",
          "name": "_tokenAddress",
          "type": "address"
        }
      ],
      "name": "withdrawToken",
      "outputs": [],
      "stateMutability": "nonpayable",
      "type": "function"
    }
  ],
  "bytecode": "0x6080604052346200084b57620034ab803803806200001d8162000850565b9283398101818103916101a083126200084b5780516001600160401b0381116200084b57826200004f91830162000876565b60208201519093906001600160401b0381116200084b57836200007491840162000876565b60408301519094906001600160401b0381116200084b57846200009991850162000876565b606084015190946001600160401b0382116200084b57620000bc91850162000876565b926101208093607f1901126200084b57604051928084016001600160401b038111858210176200056957604052620000f760808301620008e8565b84526200010760a08301620008e8565b60208501526200011a60c08301620008e8565b604085015260e0820151606085015261010082015160808501528101516001600160a01b03811681036200084b576200017c916101809160a086015261014081015160c0860152620001706101608201620008e8565b60e086015201620008e8565b6101008301528051906001600160401b038211620005695760005490600182811c9216801562000840575b6020831014620005485781601f849311620007e0575b50602090601f8311600114620007645760009262000758575b50508160011b916000199060031b1c1916176000555b83516001600160401b0381116200056957600154600181811c911680156200074d575b60208210146200054857601f8111620006e7575b506020601f8211600114620006775781929394956000926200066b575b50508160011b916000199060031b1c1916176001555b82516001600160401b0381116200056957600854600181811c9116801562000660575b60208210146200054857601f8111620005fa575b506020601f82116001146200058b57819293946000926200057f575b50508160011b916000199060031b1c1916176008555b600a8054336001600160a01b0319821681179092556001600160a01b03167f8be0079c531659141344cd1fd0a4f28419497f9722a3daafe3b4186f6b6457e0600080a3600b5460028101600b556001810160005260096020526040600020835160018060401b03811162000569578154600181811c911680156200055e575b60208210146200054857601f8111620004ff575b506020601f821160011462000483579181610100959492620003af94620004679860009262000477575b50508160011b916000199060031b1c19161790555b6001602084015115159101600052600c6020526040600020620008f6565b620003ca6040820151151560176020526040600020620008f6565b6080810151600f602052604060002055620003f28151151560106020526040600020620008f6565b6060810151601460205260406000205560018060a01b0360a082015116601360205260406000209060018060a01b031982541617905560c081015160166020526040600020556200045360e08201511515600d6020526040600020620008f6565b01511515601c6020526040600020620008f6565b604051612b839081620009088239f35b0151905038806200037c565b8260005260206000209560005b601f1984168110620004e65750826200046797620003af9593600193610100999896601f19811610620004cc575b505050811b01905562000391565b015160001960f88460031b161c19169055388080620004be565b8282015188556001909701966020928301920162000490565b826000526020600020601f830160051c81016020841062000540575b601f830160051c820181106200053357505062000352565b600081556001016200051b565b50806200051b565b634e487b7160e01b600052602260045260246000fd5b90607f16906200033e565b634e487b7160e01b600052604160045260246000fd5b015190503880620002a9565b600860005260206000209060005b601f1984168110620005e15750600193949583601f19811610620005c7575b505050811b01600855620002bf565b015160001960f88460031b161c19169055388080620005b8565b9091602060018192858a01518155019301910162000599565b60086000527ff3f7a9fe364faab93b216da50a3214154f22a0a2b415b23a84c8169e8b636ee3601f830160051c81016020841062000658575b601f830160051c820181106200064b5750506200028d565b6000815560010162000633565b508062000633565b90607f169062000279565b01519050388062000240565b600160005260206000209060005b601f1984168110620006ce575060019394959683601f19811610620006b4575b505050811b0160015562000256565b015160001960f88460031b161c19169055388080620006a5565b9091602060018192858b01518155019301910162000685565b60016000527fb10e2d527612073b26eecdfd717e6a320cf44b4afac2b0732d9fcbe2b7fa0cf6601f830160051c81016020841062000745575b601f830160051c820181106200073857505062000223565b6000815560010162000720565b508062000720565b90607f16906200020f565b015190503880620001d6565b600080805293506000805160206200348b83398151915291905b601f1984168510620007c4576001945083601f19811610620007aa575b505050811b01600055620001ec565b015160001960f88460031b161c191690553880806200079b565b818101518355602094850194600190930192909101906200077e565b600080529091506000805160206200348b833981519152601f840160051c81016020851062000838575b90849392915b601f830160051c8201811062000828575050620001bd565b6000815585945060010162000810565b50806200080a565b91607f1691620001a7565b600080fd5b6040519190601f01601f191682016001600160401b038111838210176200056957604052565b919080601f840112156200084b5782516001600160401b0381116200056957602090620008ac601f8201601f1916830162000850565b928184528282870101116200084b5760005b818110620008d457508260009394955001015290565b8581018301518482018401528201620008be565b519081151582036200084b57565b9060ff80198354169115151617905556fe608080604052600436101561001357600080fd5b60003560e01c90816301ffc9a714611cdf5750806306fdde0314611c3c578063081812fc14611c1e578063095ea7b314611aa457806323b872dd14611a535780632e97183214611a0f5780632ed2d4291461188e5780633ccfd60b1461184157806342842e0e146117d05780634d0a2c241461178657806354fd4d501461176a5780636352211e1461174c578063659b26ef146116885780636c2f88fb1461165c57806370a08231146115c5578063715018a61461157a57806389476069146114f35780638ada066e146114d55780638da5cb5b146114ac5780638fc88c4814611475578063910bbe4f14611449578063913998921461113857806395d89b4114611087578063a22c369714611056578063a22cb46514610f8e578063b2596acd14610e42578063b88d4fde14610d97578063ba41b0c614610981578063bd52c97f146108d5578063c1844f361461088d578063c2f1f14a1461085d578063c87b56dd14610826578063e030565e14610735578063e322ad2b1461070b578063e49ed292146105ae578063e985e9c514610558578063f2fde38b146104a7578063f4b3523614610338578063f7d97577146102f3578063f9bc27c5146102b1578063faee5bee146102445763fc681a02146101ed57600080fd5b3461023f57602036600319011261023f57600435600052601c602052606060ff60406000205416601a602052604060002054601b60205260406000205490604051921515835260208301526040820152f35b600080fd5b3461023f5761025236611ee3565b9061025b611ef9565b610271600b54821061026b612573565b90612543565b61028461027c61250a565b831515612543565b80600052601860205261029e60ff60406000205416612a89565b6000526019602052604060002055600080f35b3461023f57604036600319011261023f576004356102cd611ef9565b6102dd600b54821061026b612573565b6000526016602052602435604060002055600080f35b3461023f5761030136611ee3565b9061030a611ef9565b61031561027c61250a565b610325600b54821061026b612573565b6000526014602052604060002055600080f35b3461023f5760208060031936011261023f57610426610120916040519061035e82611e1c565b60008252600081830152600060408301526000606083015260006080830152600060a0830152600060c0830152600060e08301526000610100809301526004356000526010815260ff6040600020541690600c815260ff60406000205416906017815260ff604060002054166014825260406000205490600f83526040600020546013845260018060a01b03928360406000205416926016865260406000205495600d815260ff6040600020541697601c82528a60ff604060002054169a6040519d8e611e1c565b15159c8d81528381019215158352604081019415158552606081019586526080810196875260a0810197885260c08101998a5260e081019a15158b52019915158a526040519b8c52511515908b015251151560408a0152516060890152516080880152511660a08601525160c085015251151560e084015251151590820152f35b3461023f57602036600319011261023f576104c0611dac565b6104c8611ef9565b6001600160a01b0390811690811561050457600a80546001600160a01b03198116841790915516600080516020612b0e833981519152600080a3005b60405162461bcd60e51b815260206004820152602660248201527f4f776e61626c653a206e6577206f776e657220697320746865207a65726f206160448201526564647265737360d01b6064820152608490fd5b3461023f57604036600319011261023f57610571611dac565b610579611dc2565b9060018060a01b03809116600052600560205260406000209116600052602052602060ff604060002054166040519015158152f35b3461023f57606036600319011261023f576105c7611dac565b602435906044359180600052602090600f8252604060002054156106ae5780600052600e82526040600020336000528252836040600020541061064f5780600052600e825260406000203360005282526040600020848154039055600052600e815260406000209160018060a01b03166000525261064b60406000209182546125f7565b9055005b60405162461bcd60e51b815260048101839052603160248201527f6d73672e73656e64657220646f65736e2774206861766520656e6f756768206660448201527072616e63696f6e616c2062616c616e636560781b6064820152608490fd5b60405162461bcd60e51b815260048101839052602f60248201527f6672616374696f6e616c206f7074696f6e73206e6f7420616c6c6f776564206660448201526e1bdc881d1a1a5cc81d1bdad95b9259608a1b6064820152608490fd5b3461023f57600036600319011261023f573360005260116020526020604060002054604051908152f35b3461023f57606036600319011261023f57600435610751611dc2565b906044356001600160401b0381169081810361023f576107718333612464565b156107c757600083815260076020908152604090912080546001600160a01b0319166001600160a01b039096169586178155600080516020612aee8339815191529391926107be9161243b565b604051908152a3005b60405162461bcd60e51b815260206004820152603160248201527f4552433732313a207472616e736665722063616c6c6572206973206e6f74206f6044820152701ddb995c881b9bdc88185c1c1c9bdd9959607a1b6064820152608490fd5b3461023f57602036600319011261023f57610859610845600435612052565b604051918291602083526020830190611d87565b0390f35b3461023f57602036600319011261023f57602061087b6004356124d2565b6040516001600160a01b039091168152f35b3461023f57604036600319011261023f576108a6611dac565b602435600052600e60205260406000209060018060a01b03166000526020526020604060002054604051908152f35b3461023f576108e336611ee3565b906108ec611ef9565b6108fc600b54821061026b612573565b61090761027c61250a565b80600052600f6020526040600020541561092e576000526015602052604060002055600080f35b60405162461bcd60e51b815260206004820152602560248201527f74686520746f6b656e206d7573742068617665206672616374696f6e616c20736044820152647570706c7960d81b6064820152608490fd5b604036600319011261023f57602480356004356001600160401b0380831161023f573660238401121561023f57826004013590811161023f57600581811b9085828601019236841161023f576109dd600b54861061026b612573565b84600052602093601485526109f8604060002054151561259f565b85600052600d855260ff6040600020541615610d5757856000526016855260406000205496604051868101903360601b825260148152610a3781611e53565b51902092610a4a87604051970187611e6e565b85528801858086015b838310610d475750505050936000945b8351861015610ac05785831b84018501519081811015610ab057600052845260406000205b946000198114610a9b5760010194610a63565b87634e487b7160e01b60005260116004526000fd5b9060005284526040600020610a88565b87878692148015610d32575b15610cf55760008381526013835260409020546001600160a01b03908116610bf5578360005260148352610b0760406000205434101561261a565b600a5416600052601182526040600020610b223482546125f7565b90555b82600052600f8252604060002054600e835260406000203360005283526040600020553315610bb45750600290610b64610b5e84612035565b1561265d565b610b70610b5e84612035565b336000818152600383526040808220805460010190558582529390925291812080546001600160a01b03191683179055600080516020612b2e8339815191528180a4005b6064916040519162461bcd60e51b83528160048401528201527f4552433732313a206d696e7420746f20746865207a65726f20616464726573736044820152fd5b60008382604083205416601482526064604084205460405194859384926323b872dd60e01b8452336004850152308a85015260448401525af1908115610ce957600091610cbc575b5015610c7b57836000526014835260406000205490601384526040600020541660005260128352610c7460406000209182546125f7565b9055610b25565b60405162461bcd60e51b815260048101849052601a81840152791a5b9cdd59999a58da595b9d08115490cc8c081c185e5b595b9d60321b6044820152606490fd5b610cdc9150843d8611610ce2575b610cd48183611e6e565b8101906125df565b85610c3d565b503d610cca565b6040513d6000823e3d90fd5b9060176064926040519262461bcd60e51b84526004840152820152761859191c995cdcc81b9bdd081dda1a5d195b1a5cdd1959604a1b6044820152fd5b50826000526016825260406000205415610acc565b8235815291810191879101610a53565b60405162461bcd60e51b8152600481018690526019818a01527874686520746f6b656e206d757374206265206f6e2073616c6560381b6044820152606490fd5b3461023f57608036600319011261023f57610db0611dac565b610db8611dc2565b6064359190604435906001600160401b03841161023f573660238501121561023f57610df1610e40943690602481600401359101611eac565b92610e1f610dfe84611f98565b6001600160a01b0390610e16908216848316146126a8565b83161515612702565b82600052600c602052610e3b60ff60406000205416151561275a565b6128b6565b005b3461023f57606036600319011261023f57602435600435610e6281611f98565b336001600160a01b0390911603610f4b5780600052601760205260ff6040600020541615610f0c57610e9582151561259f565b426044351115610ec757600052601960205260406000205560186020526040600020600160ff19825416179055600080f35b60405162461bcd60e51b815260206004820152601f60248201527f756e74696c54696d65206d75737420626520696e2074686520667574757265006044820152606490fd5b60405162461bcd60e51b8152602060048201526017602482015276746f6b656e4964206973206e6f742072656e7461626c6560481b6044820152606490fd5b60405162461bcd60e51b815260206004820152601b60248201527a13db9b1e481bdddb995c8818d85b881cd95d08199bdc881c995b9d602a1b6044820152606490fd5b3461023f57604036600319011261023f57610fa7611dac565b610faf611e0d565b6001600160a01b039091169033821461101557336000526005602052604060002082600052602052610fe5816040600020612024565b60405190151581527f17307eab39ab6107e8899845ad3d59bd9653f200f220920489ca2b5937696c3160203392a3005b60405162461bcd60e51b815260206004820152601960248201527822a9219b99189d1030b8383937bb32903a379031b0b63632b960391b6044820152606490fd5b3461023f57602036600319011261023f576004356000526018602052602060ff604060002054166040519015158152f35b3461023f57600036600319011261023f57604051600090600180546110ab81611fbe565b8084529082811690811561111057506001146110d2575b6108598361084581870382611e6e565b92508060005260209283600020916000925b8284106110fd57505050810190910190610845816110c2565b80548585018701529285019281016110e4565b610859955061084593506020915091849260ff191682840152151560051b82010193506110c2565b3461023f5761014036600319011261023f576004356001600160401b03811161023f573660238201121561023f5761117a903690602481600401359101611eac565b6101208060231936011261023f576040519081016001600160401b03811182821017611433576040526111ab611e0d565b8152604435801515810361023f576020820152606435801515810361023f576040820152608435606082015260a435608082015260c4356001600160a01b038116810361023f5760a082015260e43560c082015261010435801515810361023f5760e0820152610124351515610124350361023f5761012435610100820152611232611ef9565b600b549060018201600b558160005260096020526040600020835160018060401b038111611433576112648254611fbe565b94601f86116113ef575b602095508590601f831160011461137f579180610100949261136c9694600092611374575b50508160011b916000199060031b1c19161790555b6112c385820151151585600052600c87526040600020612024565b6112db60408201511515601787526040600020612024565b6080810151600f86526040600020556112ff81511515601087526040600020612024565b60608101516014865260406000205560018060a01b0360a0820151166013865260406000209060018060a01b031982541617905560c08101516016865260406000205561135a60e08201511515600d87526040600020612024565b01511515601c84526040600020612024565b604051908152f35b015190508880611293565b9083600052866000209160005b601f19851681106113d8575092610100949260019261136c979583601f198116106113bf575b505050811b0190556112a8565b015160001960f88460031b161c191690558880806113b2565b91928860018192868501518155019401920161138c565b826000526020600020601f830160051c81016020841061142c575b601f880160051c8201811061142057505061126e565b6000815560010161140a565b508061140a565b634e487b7160e01b600052604160045260246000fd5b3461023f57602036600319011261023f57600435600052600f6020526020604060002054604051908152f35b3461023f57602036600319011261023f576004356000526007602052602060018060401b0360406000205460a01c16604051908152f35b3461023f57600036600319011261023f57600a546040516001600160a01b039091168152602090f35b3461023f57600036600319011261023f576020600b54604051908152f35b3461023f57602036600319011261023f5760006020611510611dac565b611518611ef9565b6001600160a01b0316808352601282526040808420805490859055905163a9059cbb60e01b8152336004820152602481019190915292839160449183915af18015610ce95761156357005b610e409060203d8111610ce257610cd48183611e6e565b3461023f57600036600319011261023f57611593611ef9565b600a80546001600160a01b031981169091556000906001600160a01b0316600080516020612b0e8339815191528280a3005b3461023f57602036600319011261023f576001600160a01b036115e6611dac565b1680156116055760005260036020526020604060002054604051908152f35b60405162461bcd60e51b815260206004820152602960248201527f4552433732313a2061646472657373207a65726f206973206e6f7420612076616044820152683634b21037bbb732b960b91b6064820152608490fd5b3461023f57602036600319011261023f5760043560005260196020526020604060002054604051908152f35b3461023f57608036600319011261023f576004356116a4611e0d565b60643591604435916116b4611ef9565b6116c4600b54831061026b612573565b828411156116fd576116e291600052601c6020526040600020612024565b601a602052604060002055601b602052604060002055600080f35b60405162461bcd60e51b815260206004820152602160248201527f74696d656672616d65546f206d75737420626520696e207468652066757475726044820152606560f81b6064820152608490fd5b3461023f57602036600319011261023f57602061087b600435611f98565b3461023f57600036600319011261023f57602060405160018152f35b3461023f57604036600319011261023f57610e406004356117a5611e0d565b906117ae611ef9565b6117be600b54821061026b612573565b600052600d6020526040600020612024565b3461023f57610e406117e136611dd8565b9061180f6117ee83611f98565b6001600160a01b0390611806908216868316146126a8565b82161515612702565b81600052600c60205261182b60ff60406000205416151561275a565b6040519261183884611e38565b600084526128b6565b3461023f57600036600319011261023f5761185a611ef9565b33600052601160205260008080806040812054816040812055818115611885575b3390f115610ce957005b506108fc61187b565b604036600319011261023f57602480356001600160401b038116916004359183810361023f5782600052602091601883526118d260ff604060002054161515612a89565b428511156119cd57428503908582116119a4576103e891828102908104831442881417156119b857603c806018920404049085600052601985526040600020548281029281840414901517156119a4578234029234840414341517156119a457509161195361199992600080516020612aee8339815191529594111561261a565b60018060a01b03600a54166000526011835260406000206119753482546125f7565b90556000858152600784526040902080546001600160a01b0319163317815561243b565b6040519384523393a3005b634e487b7160e01b60009081526011600452fd5b50634e487b7160e01b60009081526011600452fd5b606490836040519162461bcd60e51b83528160048401528201527f756e74696c2074696d65206d75737420626520696e20746865206675747572656044820152fd5b3461023f57602036600319011261023f57600435611a2b611ef9565b611a3b600b54821061026b612573565b6000908152601860205260409020805460ff19169055005b3461023f57610e40611a6436611dd8565b91611a71610dfe84611f98565b82600052600c602052611a8d60ff60406000205416151561275a565b611a9f611a9a8433612464565b6127a4565b612806565b3461023f57604036600319011261023f57611abd611dac565b602435906001600160a01b038080611ad485611f98565b16921691808314611bcf57803314908115611baa575b5015611b3f57600083815260046020526040902080546001600160a01b03191683179055611b1783611f98565b167f8c5be1e5ebec7d5bd14f71427d1e84f3dd0314c0f7b2291e5b200ac8c7c3b925600080a4005b60405162461bcd60e51b815260206004820152603d60248201527f4552433732313a20617070726f76652063616c6c6572206973206e6f7420746f60448201527f6b656e206f776e6572206f7220617070726f76656420666f7220616c6c0000006064820152608490fd5b9050600052600560205260406000203360005260205260ff6040600020541684611aea565b60405162461bcd60e51b815260206004820152602160248201527f4552433732313a20617070726f76616c20746f2063757272656e74206f776e656044820152603960f91b6064820152608490fd5b3461023f57602036600319011261023f57602061087b600435611ff8565b3461023f57600036600319011261023f57604051600090600054611c5f81611fbe565b8083526001918083169081156111105750600114611c87576108598361084581870382611e6e565b600080805260209450917f290decd9548b62a8d60345a988386fc84ba6bc95484008f6362f93160ef3e5635b828410611ccc57505050810190910190610845816110c2565b8054858501870152928501928101611cb3565b3461023f57602036600319011261023f576004359063ffffffff60e01b821680920361023f57602091632b424ad760e21b8114908115611d21575b5015158152f35b6380ac58cd60e01b811491508115611d53575b8115611d42575b5083611d1a565b6301ffc9a760e01b14905083611d3b565b635b5e139f60e01b81149150611d34565b60005b838110611d775750506000910152565b8181015183820152602001611d67565b90602091611da081518092818552858086019101611d64565b601f01601f1916010190565b600435906001600160a01b038216820361023f57565b602435906001600160a01b038216820361023f57565b606090600319011261023f576001600160a01b0390600435828116810361023f5791602435908116810361023f579060443590565b60243590811515820361023f57565b61012081019081106001600160401b0382111761143357604052565b602081019081106001600160401b0382111761143357604052565b604081019081106001600160401b0382111761143357604052565b601f909101601f19168101906001600160401b0382119082101761143357604052565b6001600160401b03811161143357601f01601f191660200190565b929192611eb882611e91565b91611ec66040519384611e6e565b82948184528183011161023f578281602093846000960137010152565b604090600319011261023f576004359060243590565b600a546001600160a01b03163303611f0d57565b606460405162461bcd60e51b815260206004820152602060248201527f4f776e61626c653a2063616c6c6572206973206e6f7420746865206f776e65726044820152fd5b15611f5857565b60405162461bcd60e51b8152602060048201526018602482015277115490cdcc8c4e881a5b9d985b1a59081d1bdad95b88125160421b6044820152606490fd5b6000908152600260205260409020546001600160a01b0316611fbb811515611f51565b90565b90600182811c92168015611fee575b6020831014611fd857565b634e487b7160e01b600052602260045260246000fd5b91607f1691611fcd565b61200961200482612035565b611f51565b6000908152600460205260409020546001600160a01b031690565b9060ff801983541691151516179055565b6000908152600260205260409020546001600160a01b0316151590565b61205e61200482612035565b60009080825260209060068252604092838120918451828454908261208283611fbe565b91828252888201976001948a868216918260001461241d5750506001146123df575b506120b192500383611e6e565b8651918492600854966120c388611fbe565b918281528981019281868b1697888d816000146123c45750600114612386575b6120ef92500382611e6e565b51928315612378578051612355575050505061210d61200484612035565b865194858561211b83611fbe565b928383528980840196918260001461233a5750506001146122fc575b61214392500386611e6e565b8451156122e557839290819072184f03e93ff9f4daa797ed6e38ed64bf6a1f0160401b82818110156122d8575b508890506904ee2d6d415b85acef8160201b808510156122ca575b5050662386f26fc10000808410156122bb575b506305f5e100808410156122ac575b506127108084101561229d575b50606483101561228d575b600a80931015612284575b90816021866121f9838d99016121f16121e882611e91565b9a519a8b611e6e565b808a52611e91565b888c019990601f1901368b3750870101905b61224e575b5050505090612242611fbb95949392612233975197889551809288880190611d64565b84019151809386840190611d64565b01038084520182611e6e565b600019019083906f181899199a1a9b1b9c1cb0b131b232b360811b8282061a83530491821561227f5791908261220b565b612210565b809401936121d0565b93916064600291049201936121c5565b600491959304920193386121ba565b600891959304920193386121ad565b6010919593049201933861219e565b95019490920491873861218b565b8a96500492503880612170565b5050509291505051906122f782611e38565b815290565b50506008855285878087208488915b8583106123215750506121439350820101612137565b80919294505483858c010152019101889084899361230b565b60ff1916875261214394151560051b84010191506121379050565b945094509450611fbb969550612242915061223381985198899688880190611d64565b995050505050505050505090565b505060088952818b808b20888c915b8583106123ab5750506120ef93508201016120e3565b8091929450548385880101520191018c90888593612395565b9150506120ef9260ff198d168752151560051b8201016120e3565b915050855282878087208488915b8583106124045750506120b19350820101386120a4565b80919294505483858901015201910188908486936123ed565b60ff19168b526120b195151560051b85010192503891506120a49050565b8054600160a01b600160e01b03191660a09290921b600160a01b600160e01b0316919091179055565b906001600160a01b03808061247884611f98565b169316918383149384156124ab575b508315612495575b50505090565b6124a191929350611ff8565b161438808061248f565b909350600052600560205260406000208260005260205260ff604060002054169238612487565b60009081526007602052604090205460a01c6001600160401b03164211612505576040600020546001600160a01b031690565b600090565b6040519061251782611e53565b601f82527f7072696365206d7573742062652067726561746572207468616e207a65726f006020830152565b1561254b5750565b60405162461bcd60e51b81526020600482015290819061256f906024830190611d87565b0390fd5b6040519061258082611e53565b601082526f125b9d985b1a5908151bdad95b88125960821b6020830152565b156125a657565b60405162461bcd60e51b81526020600482015260116024820152701c1c9a58d9481b5d5cdd081899481cd95d607a1b6044820152606490fd5b9081602091031261023f5751801515810361023f5790565b9190820180921161260457565b634e487b7160e01b600052601160045260246000fd5b1561262157565b60405162461bcd60e51b81526020600482015260146024820152731a5b9cdd59999a58da595b9d081c185e5b595b9d60621b6044820152606490fd5b1561266457565b60405162461bcd60e51b815260206004820152601c60248201527b115490cdcc8c4e881d1bdad95b88185b1c9958591e481b5a5b9d195960221b6044820152606490fd5b156126af57565b60405162461bcd60e51b815260206004820152602560248201527f4552433732313a207472616e736665722066726f6d20696e636f72726563742060448201526437bbb732b960d91b6064820152608490fd5b1561270957565b60405162461bcd60e51b8152602060048201526024808201527f4552433732313a207472616e7366657220746f20746865207a65726f206164646044820152637265737360e01b6064820152608490fd5b1561276157565b60405162461bcd60e51b815260206004820152601b60248201527a746f6b656e4964206973206e6f74207472616e7366657261626c6560281b6044820152606490fd5b156127ab57565b60405162461bcd60e51b815260206004820152602d60248201527f4552433732313a2063616c6c6572206973206e6f7420746f6b656e206f776e6560448201526c1c881bdc88185c1c1c9bdd9959609a1b6064820152608490fd5b6128506128339161281685611f98565b6001600160a01b03949185169384928692909190831684146126a8565b1693612840851515612702565b61284986611f98565b16146126a8565b600080516020612b2e833981519152600084815260046020526040812060018060a01b03199081815416905583825260036020526040822060001981540190558482526040822060018154019055858252600260205284604083209182541617905580a4565b906128da9392916128ca611a9a8433612464565b6128d5838383612806565b61292f565b156128e157565b60405162461bcd60e51b81526020600482015260326024820152600080516020612ace83398151915260448201527131b2b4bb32b91034b6b83632b6b2b73a32b960711b6064820152608490fd5b9293600093909291803b15612a7e579484916129899660405180948193630a85bd0160e11b9788845233600485015260018060a01b0380921660248501526044840152608060648401528260209b8c976084830190611d87565b0393165af1849181612a3a575b50612a29575050503d600014612a21573d6129b081611e91565b906129be6040519283611e6e565b81528091833d92013e5b80519182612a1e5760405162461bcd60e51b81526020600482015260326024820152600080516020612ace83398151915260448201527131b2b4bb32b91034b6b83632b6b2b73a32b960711b6064820152608490fd5b01fd5b5060606129c8565b6001600160e01b0319161492509050565b9091508581813d8311612a77575b612a528183611e6e565b81010312612a7357516001600160e01b031981168103612a73579038612996565b8480fd5b503d612a48565b505050915050600190565b15612a9057565b60405162461bcd60e51b81526020600482015260156024820152741d1bdad95b881a5cc81b9bdd08199bdc881c995b9d605a1b6044820152606490fdfe4552433732313a207472616e7366657220746f206e6f6e2045524337323152654e06b4e7000e659094299b3533b47b6aa8ad048e95e872d23d1f4ee55af89cfe8be0079c531659141344cd1fd0a4f28419497f9722a3daafe3b4186f6b6457e0ddf252ad1be2c89b69c2b068fc378daa952ba7f163c4a11628f55a4df523b3efa2646970667358221220022bedf27b10e4b2ae266403b3388c19b9003b52fd8790e42239dc25487c163064736f6c63430008110033290decd9548b62a8d60345a988386fc84ba6bc95484008f6362f93160ef3e563",
  "linkReferences": {},
  "deployedLinkReferences": {}
}